{"contracts/tokenStaking.sol":{"TokenStaking":{"abi":[{"inputs":[{"internalType":"address","name":"_rewardsDistribution","type":"address"},{"internalType":"address","name":"_rewardsToken","type":"address"},{"internalType":"address","name":"_stakingToken","type":"address"},{"internalType":"uint256","name":"_rewardsDuration","type":"uint256"},{"internalType":"uint256","name":"_lockPeriod","type":"uint256"}],"stateMutability":"nonpayable","type":"constructor"},{"anonymous":false,"inputs":[{"indexed":true,"internalType":"address","name":"previousOwner","type":"address"},{"indexed":true,"internalType":"address","name":"newOwner","type":"address"}],"name":"OwnershipTransferred","type":"event"},{"anonymous":false,"inputs":[{"indexed":false,"internalType":"address","name":"account","type":"address"}],"name":"Paused","type":"event"},{"anonymous":false,"inputs":[{"indexed":false,"internalType":"address","name":"token","type":"address"},{"indexed":false,"internalType":"uint256","name":"amount","type":"uint256"}],"name":"Recovered","type":"event"},{"anonymous":false,"inputs":[{"indexed":false,"internalType":"uint256","name":"reward","type":"uint256"}],"name":"RewardAdded","type":"event"},{"anonymous":false,"inputs":[{"indexed":true,"internalType":"address","name":"user","type":"address"},{"indexed":false,"internalType":"uint256","name":"reward","type":"uint256"}],"name":"RewardPaid","type":"event"},{"anonymous":false,"inputs":[{"indexed":false,"internalType":"address","name":"newDistribution","type":"address"}],"name":"RewardsDistributionUpdated","type":"event"},{"anonymous":false,"inputs":[{"indexed":false,"internalType":"uint256","name":"newDuration","type":"uint256"}],"name":"RewardsDurationUpdated","type":"event"},{"anonymous":false,"inputs":[{"indexed":true,"internalType":"address","name":"user","type":"address"},{"indexed":false,"internalType":"uint256","name":"amount","type":"uint256"}],"name":"Staked","type":"event"},{"anonymous":false,"inputs":[{"indexed":false,"internalType":"address","name":"account","type":"address"}],"name":"Unpaused","type":"event"},{"anonymous":false,"inputs":[{"indexed":true,"internalType":"address","name":"user","type":"address"},{"indexed":false,"internalType":"uint256","name":"amount","type":"uint256"}],"name":"Withdrawn","type":"event"},{"inputs":[{"internalType":"address","name":"account","type":"address"}],"name":"balanceOf","outputs":[{"internalType":"uint256","name":"","type":"uint256"}],"stateMutability":"view","type":"function"},{"inputs":[{"internalType":"address","name":"account","type":"address"}],"name":"earned","outputs":[{"internalType":"uint256","name":"","type":"uint256"}],"stateMutability":"view","type":"function"},{"inputs":[],"name":"exit","outputs":[],"stateMutability":"nonpayable","type":"function"},{"inputs":[],"name":"getReward","outputs":[],"stateMutability":"nonpayable","type":"function"},{"inputs":[],"name":"getRewardForDuration","outputs":[{"internalType":"uint256","name":"","type":"uint256"}],"stateMutability":"view","type":"function"},{"inputs":[{"internalType":"string","name":"strCoin","type":"string"}],"name":"getRewardStable","outputs":[],"stateMutability":"payable","type":"function"},{"inputs":[{"internalType":"address","name":"","type":"address"}],"name":"lastStakeTime","outputs":[{"internalType":"uint256","name":"","type":"uint256"}],"stateMutability":"view","type":"function"},{"inputs":[],"name":"lastTimeRewardApplicable","outputs":[{"internalType":"uint256","name":"","type":"uint256"}],"stateMutability":"view","type":"function"},{"inputs":[],"name":"lastUpdateTime","outputs":[{"internalType":"uint256","name":"","type":"uint256"}],"stateMutability":"view","type":"function"},{"inputs":[],"name":"lockPeriod","outputs":[{"internalType":"uint256","name":"","type":"uint256"}],"stateMutability":"view","type":"function"},{"inputs":[{"internalType":"uint256","name":"reward","type":"uint256"}],"name":"notifyRewardAmount","outputs":[],"stateMutability":"nonpayable","type":"function"},{"inputs":[],"name":"owner","outputs":[{"internalType":"address","name":"","type":"address"}],"stateMutability":"view","type":"function"},{"inputs":[],"name":"pause","outputs":[],"stateMutability":"nonpayable","type":"function"},{"inputs":[],"name":"paused","outputs":[{"internalType":"bool","name":"","type":"bool"}],"stateMutability":"view","type":"function"},{"inputs":[],"name":"periodFinish","outputs":[{"internalType":"uint256","name":"","type":"uint256"}],"stateMutability":"view","type":"function"},{"inputs":[{"internalType":"address","name":"tokenAddress","type":"address"},{"internalType":"uint256","name":"tokenAmount","type":"uint256"}],"name":"recoverERC20","outputs":[],"stateMutability":"nonpayable","type":"function"},{"inputs":[],"name":"renounceOwnership","outputs":[],"stateMutability":"nonpayable","type":"function"},{"inputs":[],"name":"rewardPerToken","outputs":[{"internalType":"uint256","name":"","type":"uint256"}],"stateMutability":"view","type":"function"},{"inputs":[],"name":"rewardPerTokenStored","outputs":[{"internalType":"uint256","name":"","type":"uint256"}],"stateMutability":"view","type":"function"},{"inputs":[],"name":"rewardRate","outputs":[{"internalType":"uint256","name":"","type":"uint256"}],"stateMutability":"view","type":"function"},{"inputs":[{"internalType":"address","name":"","type":"address"}],"name":"rewards","outputs":[{"internalType":"uint256","name":"","type":"uint256"}],"stateMutability":"view","type":"function"},{"inputs":[],"name":"rewardsDistribution","outputs":[{"internalType":"address","name":"","type":"address"}],"stateMutability":"view","type":"function"},{"inputs":[],"name":"rewardsDuration","outputs":[{"internalType":"uint256","name":"","type":"uint256"}],"stateMutability":"view","type":"function"},{"inputs":[],"name":"rewardsToken","outputs":[{"internalType":"contract IERC20","name":"","type":"address"}],"stateMutability":"view","type":"function"},{"inputs":[{"internalType":"uint256","name":"_lockPeriod","type":"uint256"}],"name":"setLockPeriod","outputs":[],"stateMutability":"nonpayable","type":"function"},{"inputs":[{"internalType":"address","name":"_rewardsDistribution","type":"address"}],"name":"setRewardsDistribution","outputs":[],"stateMutability":"nonpayable","type":"function"},{"inputs":[{"internalType":"uint256","name":"_rewardsDuration","type":"uint256"}],"name":"setRewardsDuration","outputs":[],"stateMutability":"nonpayable","type":"function"},{"inputs":[{"internalType":"string","name":"strCoin","type":"string"},{"internalType":"uint256","name":"stbPrice","type":"uint256"}],"name":"setStabPrice","outputs":[],"stateMutability":"nonpayable","type":"function"},{"inputs":[{"internalType":"uint256","name":"amount","type":"uint256"}],"name":"stake","outputs":[],"stateMutability":"nonpayable","type":"function"},{"inputs":[],"name":"stakingToken","outputs":[{"internalType":"contract IERC20","name":"","type":"address"}],"stateMutability":"view","type":"function"},{"inputs":[],"name":"totalSupply","outputs":[{"internalType":"uint256","name":"","type":"uint256"}],"stateMutability":"view","type":"function"},{"inputs":[{"internalType":"address","name":"newOwner","type":"address"}],"name":"transferOwnership","outputs":[],"stateMutability":"nonpayable","type":"function"},{"inputs":[],"name":"unpause","outputs":[],"stateMutability":"nonpayable","type":"function"},{"inputs":[{"internalType":"address","name":"","type":"address"}],"name":"userRewardPerTokenPaid","outputs":[{"internalType":"uint256","name":"","type":"uint256"}],"stateMutability":"view","type":"function"},{"inputs":[{"internalType":"uint256","name":"amount","type":"uint256"}],"name":"withdraw","outputs":[],"stateMutability":"nonpayable","type":"function"},{"stateMutability":"payable","type":"receive"}],"evm":{"bytecode":{"linkReferences":{},"object":"60806040523480156200001157600080fd5b5060405162001d0d38038062001d0d83398101604081905262000034916200026f565b6200003f3362000202565b600180556002805460ff191690556001600160a01b038416620000a95760405162461bcd60e51b815260206004820152601760248201527f726577617264546f6b656e206d757374206e6f7420307800000000000000000060448201526064015b60405180910390fd5b6001600160a01b038316620001015760405162461bcd60e51b815260206004820152601860248201527f7374616b696e67546f6b656e206d757374206e6f7420307800000000000000006044820152606401620000a0565b6001600160a01b038516620001595760405162461bcd60e51b815260206004820152601e60248201527f726577617264446973747269627574696f6e206d757374206e6f7420307800006044820152606401620000a0565b81620001a85760405162461bcd60e51b815260206004820152601a60248201527f726577617264734475726174696f6e206d757374206e6f7420300000000000006044820152606401620000a0565b60028054610100600160a81b0319166101006001600160a01b0396871602179055600380546001600160a01b0319908116948616949094179055600a805490931694909316939093179055600791909155600455620002cb565b600080546001600160a01b038381166001600160a01b0319831681178455604051919092169283917f8be0079c531659141344cd1fd0a4f28419497f9722a3daafe3b4186f6b6457e09190a35050565b80516001600160a01b03811681146200026a57600080fd5b919050565b600080600080600060a0868803121562000287578081fd5b620002928662000252565b9450620002a26020870162000252565b9350620002b26040870162000252565b6060870151608090970151959894975095949392505050565b611a3280620002db6000396000f3fe6080604052600436106101975760003560e01c80628cc262146101a35780630700037d146101d657806318160ddd1461020357806319762143146102185780631c1f78eb1461023a5780632e1a7d4d1461024f578063386a95251461026f5780633c6b16ab146102855780633d18b912146102a55780633f4ba83a146102ba5780633fc6df6e146102cf5780633fd8b02f146102fc5780635c975abb1461031257806370a0823114610335578063715018a61461036b57806372f702f314610380578063779972da146103a05780637b0a47ee146103c05780637bb1ca19146103d657806380faa57d146104035780638456cb59146104185780638980f11f1461042d5780638b8763471461044d5780638da5cb5b1461047a5780639fbd4fc71461048f578063a694fc3a146104af578063c8f33c91146104cf578063cc1a378f146104e5578063cd3daf9d14610505578063d1af0c7d1461051a578063df136d651461053f578063e12585f114610555578063e9fad8ee14610568578063ebe2b12b1461057d578063f2fde38b1461059357600080fd5b3661019e57005b600080fd5b3480156101af57600080fd5b506101c36101be36600461177e565b6105b3565b6040519081526020015b60405180910390f35b3480156101e257600080fd5b506101c36101f136600461177e565b600c6020526000908152604090205481565b34801561020f57600080fd5b50600d546101c3565b34801561022457600080fd5b5061023861023336600461177e565b610630565b005b34801561024657600080fd5b506101c36106e9565b34801561025b57600080fd5b5061023861026a36600461185c565b610700565b34801561027b57600080fd5b506101c360075481565b34801561029157600080fd5b506102386102a036600461185c565b610878565b3480156102b157600080fd5b506102386109f2565b3480156102c657600080fd5b50610238610b05565b3480156102db57600080fd5b50600a546102ef906001600160a01b031681565b6040516101cd9190611890565b34801561030857600080fd5b506101c360045481565b34801561031e57600080fd5b5060025460ff1660405190151581526020016101cd565b34801561034157600080fd5b506101c361035036600461177e565b6001600160a01b031660009081526010602052604090205490565b34801561037757600080fd5b50610238610b15565b34801561038c57600080fd5b506003546102ef906001600160a01b031681565b3480156103ac57600080fd5b506102386103bb36600461185c565b610b27565b3480156103cc57600080fd5b506101c360065481565b3480156103e257600080fd5b506101c36103f136600461177e565b60116020526000908152604090205481565b34801561040f57600080fd5b506101c3610b34565b34801561042457600080fd5b50610238610b4b565b34801561043957600080fd5b5061023861044836600461179f565b610b5b565b34801561045957600080fd5b506101c361046836600461177e565b600b6020526000908152604090205481565b34801561048657600080fd5b506102ef610c40565b34801561049b57600080fd5b506102386104aa36600461181a565b610c4f565b3480156104bb57600080fd5b506102386104ca36600461185c565b610c7c565b3480156104db57600080fd5b506101c360085481565b3480156104f157600080fd5b5061023861050036600461185c565b610dc1565b34801561051157600080fd5b506101c3610e96565b34801561052657600080fd5b506002546102ef9061010090046001600160a01b031681565b34801561054b57600080fd5b506101c360095481565b6102386105633660046117e8565b610ef8565b34801561057457600080fd5b5061023861112c565b34801561058957600080fd5b506101c360055481565b34801561059f57600080fd5b506102386105ae36600461177e565b61114d565b6001600160a01b0381166000908152600c6020908152604080832054600b909252822054670de0b6b3a7640000906105e9610e96565b6105f3919061196d565b6001600160a01b038516600090815260106020526040902054610616919061194e565b610620919061192e565b61062a9190611916565b92915050565b6106386111c3565b6001600160a01b0381166106935760405162461bcd60e51b815260206004820152601e60248201527f726577617264446973747269627574696f6e206d757374206e6f74203078000060448201526064015b60405180910390fd5b600a80546001600160a01b0319166001600160a01b0383161790556040517f1c794a043683a294127c95bc365bae91b63b651eb9884a2c9120afee2bb690b4906106de908390611890565b60405180910390a150565b60006007546006546106fb919061194e565b905090565b610708611222565b33610711610e96565b60095561071c610b34565b6008556001600160a01b0381161561076357610737816105b3565b6001600160a01b0382166000908152600c6020908152604080832093909355600954600b909152919020555b600082116107a75760405162461bcd60e51b8152602060048201526011602482015270043616e6e6f74207769746864726177203607c1b604482015260640161068a565b6004543360009081526011602052604090205442916107c591611916565b11156107e35760405162461bcd60e51b815260040161068a906118f0565b81600d60008282546107f5919061196d565b9091555050336000908152601060205260408120805484929061081990849061196d565b9091555050600354610835906001600160a01b0316338461127c565b60405182815233907f7084f5476618d8e60b11ef0d7d3f06914655adb8793e28ff7f018d4c76d505d5906020015b60405180910390a25061087560018055565b50565b6000610882610e96565b60095561088d610b34565b6008556001600160a01b038116156108d4576108a8816105b3565b6001600160a01b0382166000908152600c6020908152604080832093909355600954600b909152919020555b600a546001600160a01b031633146109285760405162461bcd60e51b81526020600482015260176024820152762737ba103932bbb0b93239a234b9ba3934b13aba34b7b760491b604482015260640161068a565b6002546109459061010090046001600160a01b03163330856112d7565b60055442106109635760075461095b908361192e565b6006556109a5565b600042600554610973919061196d565b9050600060065482610985919061194e565b6007549091506109958286611916565b61099f919061192e565b60065550505b4260088190556007546109b791611916565b6005556040518281527fde88a922e0d3b88b24e9623efeb464919c6bf9f66857a65e2bfcf2ce87a9433d906020015b60405180910390a15050565b6109fa611222565b33610a03610e96565b600955610a0e610b34565b6008556001600160a01b03811615610a5557610a29816105b3565b6001600160a01b0382166000908152600c6020908152604080832093909355600954600b909152919020555b600454336000908152601160205260409020544291610a7391611916565b1115610a915760405162461bcd60e51b815260040161068a906118f0565b336000908152600c60205260409020548015610af857336000818152600c6020526040812055600254610ad4916101009091046001600160a01b0316908361127c565b60405181815233906000805160206119dd8339815191529060200160405180910390a25b5050610b0360018055565b565b610b0d6111c3565b610b03611315565b610b1d6111c3565b610b036000611361565b610b2f6111c3565b600455565b60006005544210610b46575060055490565b504290565b610b536111c3565b610b036113b1565b610b636111c3565b6003546001600160a01b03838116911614801590610b9457506002546001600160a01b038381166101009092041614155b610bfb5760405162461bcd60e51b815260206004820152603260248201527f43616e6e6f7420776974686472617720746865207374616b696e6720746f6b65604482015271371030b732103932bbb0b932103a37b5b2b760711b606482015260840161068a565b610c0f6001600160a01b038316338361127c565b7f8c1256b8896378cd5044f80c202f9772b9d77dc85c8a6eb51967210b09bfaa2882826040516109e69291906118a4565b6000546001600160a01b031690565b610c576111c3565b80600e83604051610c689190611874565b908152604051908190036020019020555050565b610c84611222565b610c8c6113ee565b33610c95610e96565b600955610ca0610b34565b6008556001600160a01b03811615610ce757610cbb816105b3565b6001600160a01b0382166000908152600c6020908152604080832093909355600954600b909152919020555b60008211610d285760405162461bcd60e51b815260206004820152600e60248201526d043616e6e6f74207374616b6520360941b604482015260640161068a565b81600d6000828254610d3a9190611916565b90915550503360009081526010602052604081208054849290610d5e908490611916565b9091555050336000818152601160205260409020429055600354610d8f916001600160a01b039091169030856112d7565b60405182815233907f9e71bc8eea02a63969f509818f2dafb9254532904319f9dbda79b67bd34a5f3d90602001610863565b610dc96111c3565b6005544211610e615760405162461bcd60e51b815260206004820152605860248201527f50726576696f7573207265776172647320706572696f64206d7573742062652060448201527f636f6d706c657465206265666f7265206368616e67696e672074686520647572606482015277185d1a5bdb88199bdc881d1a19481b995dc81c195c9a5bd960421b608482015260a40161068a565b60078190556040518181527ffb46ca5a5e06d4540d6387b930a7c978bce0db5f449ec6b3f5d07c6e1d44f2d3906020016106de565b6000600d5460001415610eaa575060095490565b600d54600654600854610ebb610b34565b610ec5919061196d565b610ecf919061194e565b610ee190670de0b6b3a764000061194e565b610eeb919061192e565b6009546106fb9190611916565b610f00611222565b33610f09610e96565b600955610f14610b34565b6008556001600160a01b03811615610f5b57610f2f816105b3565b6001600160a01b0382166000908152600c6020908152604080832093909355600954600b909152919020555b600454336000908152601160205260409020544291610f7991611916565b1115610f975760405162461bcd60e51b815260040161068a906118f0565b336000908152600c6020526040902054801561112157336000908152600c602052604080822082905551600e90610fcf908690611874565b90815260200160405180910390205482610fe9919061194e565b905060008111610ff857600080fd5b835160208501207f3ed03c38e59dc60c7b69c2a4bf68f9214acd953252b5a90e8f5f59583e9bc3ae908082141561105c57604051339084156108fc029085906000818181858888f19350505050158015611056573d6000803e3d6000fd5b506110fa565b600f8660405161106c9190611874565b9081526040519081900360200181205463a9059cbb60e01b82526001600160a01b03169063a9059cbb906110a690339087906004016118a4565b602060405180830381600087803b1580156110c057600080fd5b505af11580156110d4573d6000803e3d6000fd5b505050506040513d601f19601f820116820180604052508101906110f891906117c8565b505b60405183815233906000805160206119dd8339815191529060200160405180910390a25050505b505061087560018055565b3360009081526010602052604090205461114590610700565b610b036109f2565b6111556111c3565b6001600160a01b0381166111ba5760405162461bcd60e51b815260206004820152602660248201527f4f776e61626c653a206e6577206f776e657220697320746865207a65726f206160448201526564647265737360d01b606482015260840161068a565b61087581611361565b336111cc610c40565b6001600160a01b031614610b035760405162461bcd60e51b815260206004820181905260248201527f4f776e61626c653a2063616c6c6572206973206e6f7420746865206f776e6572604482015260640161068a565b600260015414156112755760405162461bcd60e51b815260206004820152601f60248201527f5265656e7472616e637947756172643a207265656e7472616e742063616c6c00604482015260640161068a565b6002600155565b6112d28363a9059cbb60e01b848460405160240161129b9291906118a4565b60408051601f198184030181529190526020810180516001600160e01b03166001600160e01b031990931692909217909152611434565b505050565b6040516001600160a01b038085166024830152831660448201526064810182905261130f9085906323b872dd60e01b9060840161129b565b50505050565b61131d611506565b6002805460ff191690557f5db9ee0a495bf2e6ff9c91a7834c1ba4fdd244a5e8aa4e537bd38aeae4b073aa335b6040516113579190611890565b60405180910390a1565b600080546001600160a01b038381166001600160a01b0319831681178455604051919092169283917f8be0079c531659141344cd1fd0a4f28419497f9722a3daafe3b4186f6b6457e09190a35050565b6113b96113ee565b6002805460ff191660011790557f62e78cea01bee320cd4e420270b5ea74000d11b0c9f74754ebdbfc544b05a25861134a3390565b60025460ff1615610b035760405162461bcd60e51b815260206004820152601060248201526f14185d5cd8589b194e881c185d5cd95960821b604482015260640161068a565b6000611489826040518060400160405280602081526020017f5361666545524332303a206c6f772d6c6576656c2063616c6c206661696c6564815250856001600160a01b031661154f9092919063ffffffff16565b8051909150156112d257808060200190518101906114a791906117c8565b6112d25760405162461bcd60e51b815260206004820152602a60248201527f5361666545524332303a204552433230206f7065726174696f6e20646964206e6044820152691bdd081cdd58d8d9595960b21b606482015260840161068a565b60025460ff16610b035760405162461bcd60e51b815260206004820152601460248201527314185d5cd8589b194e881b9bdd081c185d5cd95960621b604482015260640161068a565b606061155e8484600085611566565b949350505050565b6060824710156115c75760405162461bcd60e51b815260206004820152602660248201527f416464726573733a20696e73756666696369656e742062616c616e636520666f6044820152651c8818d85b1b60d21b606482015260840161068a565b600080866001600160a01b031685876040516115e39190611874565b60006040518083038185875af1925050503d8060008114611620576040519150601f19603f3d011682016040523d82523d6000602084013e611625565b606091505b509150915061163687838387611641565b979650505050505050565b606083156116ad5782516116a6576001600160a01b0385163b6116a65760405162461bcd60e51b815260206004820152601d60248201527f416464726573733a2063616c6c20746f206e6f6e2d636f6e7472616374000000604482015260640161068a565b508161155e565b61155e83838151156116c25781518083602001fd5b8060405162461bcd60e51b815260040161068a91906118bd565b80356001600160a01b03811681146116f357600080fd5b919050565b600082601f830112611708578081fd5b81356001600160401b0380821115611722576117226119c6565b604051601f8301601f19908116603f0116810190828211818310171561174a5761174a6119c6565b81604052838152866020858801011115611762578485fd5b8360208701602083013792830160200193909352509392505050565b60006020828403121561178f578081fd5b611798826116dc565b9392505050565b600080604083850312156117b1578081fd5b6117ba836116dc565b946020939093013593505050565b6000602082840312156117d9578081fd5b81518015158114611798578182fd5b6000602082840312156117f9578081fd5b81356001600160401b0381111561180e578182fd5b61155e848285016116f8565b6000806040838503121561182c578182fd5b82356001600160401b03811115611841578283fd5b61184d858286016116f8565b95602094909401359450505050565b60006020828403121561186d578081fd5b5035919050565b60008251611886818460208701611984565b9190910192915050565b6001600160a01b0391909116815260200190565b6001600160a01b03929092168252602082015260400190565b60208152600082518060208401526118dc816040850160208701611984565b601f01601f19169190910160400192915050565b6020808252600c908201526b14dd1a5b1b081b1bd8dad95960a21b604082015260600190565b60008219821115611929576119296119b0565b500190565b60008261194957634e487b7160e01b81526012600452602481fd5b500490565b6000816000190483118215151615611968576119686119b0565b500290565b60008282101561197f5761197f6119b0565b500390565b60005b8381101561199f578181015183820152602001611987565b8381111561130f5750506000910152565b634e487b7160e01b600052601160045260246000fd5b634e487b7160e01b600052604160045260246000fdfee2403640ba68fed3a2f88b7557551d1993f84b99bb10ff833f0cf8db0c5e0486a2646970667358221220df4bef410fcd86cadb75b075a8b67daf38e5dffd08fa159f143f522aa694156064736f6c63430008040033","opcodes":"PUSH1 0x80 PUSH1 0x40 MSTORE CALLVALUE DUP1 ISZERO PUSH3 0x11 JUMPI PUSH1 0x0 DUP1 REVERT JUMPDEST POP PUSH1 0x40 MLOAD PUSH3 0x1D0D CODESIZE SUB DUP1 PUSH3 0x1D0D DUP4 CODECOPY DUP2 ADD PUSH1 0x40 DUP2 SWAP1 MSTORE PUSH3 0x34 SWAP2 PUSH3 0x26F JUMP JUMPDEST PUSH3 0x3F CALLER PUSH3 0x202 JUMP JUMPDEST PUSH1 0x1 DUP1 SSTORE PUSH1 0x2 DUP1 SLOAD PUSH1 0xFF NOT AND SWAP1 SSTORE PUSH1 0x1 PUSH1 0x1 PUSH1 0xA0 SHL SUB DUP5 AND PUSH3 0xA9 JUMPI PUSH1 0x40 MLOAD PUSH3 0x461BCD PUSH1 0xE5 SHL DUP2 MSTORE PUSH1 0x20 PUSH1 0x4 DUP3 ADD MSTORE PUSH1 0x17 PUSH1 0x24 DUP3 ADD MSTORE PUSH32 0x726577617264546F6B656E206D757374206E6F74203078000000000000000000 PUSH1 0x44 DUP3 ADD MSTORE PUSH1 0x64 ADD JUMPDEST PUSH1 0x40 MLOAD DUP1 SWAP2 SUB SWAP1 REVERT JUMPDEST PUSH1 0x1 PUSH1 0x1 PUSH1 0xA0 SHL SUB DUP4 AND PUSH3 0x101 JUMPI PUSH1 0x40 MLOAD PUSH3 0x461BCD PUSH1 0xE5 SHL DUP2 MSTORE PUSH1 0x20 PUSH1 0x4 DUP3 ADD MSTORE PUSH1 0x18 PUSH1 0x24 DUP3 ADD MSTORE PUSH32 0x7374616B696E67546F6B656E206D757374206E6F742030780000000000000000 PUSH1 0x44 DUP3 ADD MSTORE PUSH1 0x64 ADD PUSH3 0xA0 JUMP JUMPDEST PUSH1 0x1 PUSH1 0x1 PUSH1 0xA0 SHL SUB DUP6 AND PUSH3 0x159 JUMPI PUSH1 0x40 MLOAD PUSH3 0x461BCD PUSH1 0xE5 SHL DUP2 MSTORE PUSH1 0x20 PUSH1 0x4 DUP3 ADD MSTORE PUSH1 0x1E PUSH1 0x24 DUP3 ADD MSTORE PUSH32 0x726577617264446973747269627574696F6E206D757374206E6F742030780000 PUSH1 0x44 DUP3 ADD MSTORE PUSH1 0x64 ADD PUSH3 0xA0 JUMP JUMPDEST DUP2 PUSH3 0x1A8 JUMPI PUSH1 0x40 MLOAD PUSH3 0x461BCD PUSH1 0xE5 SHL DUP2 MSTORE PUSH1 0x20 PUSH1 0x4 DUP3 ADD MSTORE PUSH1 0x1A PUSH1 0x24 DUP3 ADD MSTORE PUSH32 0x726577617264734475726174696F6E206D757374206E6F742030000000000000 PUSH1 0x44 DUP3 ADD MSTORE PUSH1 0x64 ADD PUSH3 0xA0 JUMP JUMPDEST PUSH1 0x2 DUP1 SLOAD PUSH2 0x100 PUSH1 0x1 PUSH1 0xA8 SHL SUB NOT AND PUSH2 0x100 PUSH1 0x1 PUSH1 0x1 PUSH1 0xA0 SHL SUB SWAP7 DUP8 AND MUL OR SWAP1 SSTORE PUSH1 0x3 DUP1 SLOAD PUSH1 0x1 PUSH1 0x1 PUSH1 0xA0 SHL SUB NOT SWAP1 DUP2 AND SWAP5 DUP7 AND SWAP5 SWAP1 SWAP5 OR SWAP1 SSTORE PUSH1 0xA DUP1 SLOAD SWAP1 SWAP4 AND SWAP5 SWAP1 SWAP4 AND SWAP4 SWAP1 SWAP4 OR SWAP1 SSTORE PUSH1 0x7 SWAP2 SWAP1 SWAP2 SSTORE PUSH1 0x4 SSTORE PUSH3 0x2CB JUMP JUMPDEST PUSH1 0x0 DUP1 SLOAD PUSH1 0x1 PUSH1 0x1 PUSH1 0xA0 SHL SUB DUP4 DUP2 AND PUSH1 0x1 PUSH1 0x1 PUSH1 0xA0 SHL SUB NOT DUP4 AND DUP2 OR DUP5 SSTORE PUSH1 0x40 MLOAD SWAP2 SWAP1 SWAP3 AND SWAP3 DUP4 SWAP2 PUSH32 0x8BE0079C531659141344CD1FD0A4F28419497F9722A3DAAFE3B4186F6B6457E0 SWAP2 SWAP1 LOG3 POP POP JUMP JUMPDEST DUP1 MLOAD PUSH1 0x1 PUSH1 0x1 PUSH1 0xA0 SHL SUB DUP2 AND DUP2 EQ PUSH3 0x26A JUMPI PUSH1 0x0 DUP1 REVERT JUMPDEST SWAP2 SWAP1 POP JUMP JUMPDEST PUSH1 0x0 DUP1 PUSH1 0x0 DUP1 PUSH1 0x0 PUSH1 0xA0 DUP7 DUP9 SUB SLT ISZERO PUSH3 0x287 JUMPI DUP1 DUP2 REVERT JUMPDEST PUSH3 0x292 DUP7 PUSH3 0x252 JUMP JUMPDEST SWAP5 POP PUSH3 0x2A2 PUSH1 0x20 DUP8 ADD PUSH3 0x252 JUMP JUMPDEST SWAP4 POP PUSH3 0x2B2 PUSH1 0x40 DUP8 ADD PUSH3 0x252 JUMP JUMPDEST PUSH1 0x60 DUP8 ADD MLOAD PUSH1 0x80 SWAP1 SWAP8 ADD MLOAD SWAP6 SWAP9 SWAP5 SWAP8 POP SWAP6 SWAP5 SWAP4 SWAP3 POP POP POP JUMP JUMPDEST PUSH2 0x1A32 DUP1 PUSH3 0x2DB PUSH1 0x0 CODECOPY PUSH1 0x0 RETURN INVALID PUSH1 0x80 PUSH1 0x40 MSTORE PUSH1 0x4 CALLDATASIZE LT PUSH2 0x197 JUMPI PUSH1 0x0 CALLDATALOAD PUSH1 0xE0 SHR DUP1 PUSH3 0x8CC262 EQ PUSH2 0x1A3 JUMPI DUP1 PUSH4 0x700037D EQ PUSH2 0x1D6 JUMPI DUP1 PUSH4 0x18160DDD EQ PUSH2 0x203 JUMPI DUP1 PUSH4 0x19762143 EQ PUSH2 0x218 JUMPI DUP1 PUSH4 0x1C1F78EB EQ PUSH2 0x23A JUMPI DUP1 PUSH4 0x2E1A7D4D EQ PUSH2 0x24F JUMPI DUP1 PUSH4 0x386A9525 EQ PUSH2 0x26F JUMPI DUP1 PUSH4 0x3C6B16AB EQ PUSH2 0x285 JUMPI DUP1 PUSH4 0x3D18B912 EQ PUSH2 0x2A5 JUMPI DUP1 PUSH4 0x3F4BA83A EQ PUSH2 0x2BA JUMPI DUP1 PUSH4 0x3FC6DF6E EQ PUSH2 0x2CF JUMPI DUP1 PUSH4 0x3FD8B02F EQ PUSH2 0x2FC JUMPI DUP1 PUSH4 0x5C975ABB EQ PUSH2 0x312 JUMPI DUP1 PUSH4 0x70A08231 EQ PUSH2 0x335 JUMPI DUP1 PUSH4 0x715018A6 EQ PUSH2 0x36B JUMPI DUP1 PUSH4 0x72F702F3 EQ PUSH2 0x380 JUMPI DUP1 PUSH4 0x779972DA EQ PUSH2 0x3A0 JUMPI DUP1 PUSH4 0x7B0A47EE EQ PUSH2 0x3C0 JUMPI DUP1 PUSH4 0x7BB1CA19 EQ PUSH2 0x3D6 JUMPI DUP1 PUSH4 0x80FAA57D EQ PUSH2 0x403 JUMPI DUP1 PUSH4 0x8456CB59 EQ PUSH2 0x418 JUMPI DUP1 PUSH4 0x8980F11F EQ PUSH2 0x42D JUMPI DUP1 PUSH4 0x8B876347 EQ PUSH2 0x44D JUMPI DUP1 PUSH4 0x8DA5CB5B EQ PUSH2 0x47A JUMPI DUP1 PUSH4 0x9FBD4FC7 EQ PUSH2 0x48F JUMPI DUP1 PUSH4 0xA694FC3A EQ PUSH2 0x4AF JUMPI DUP1 PUSH4 0xC8F33C91 EQ PUSH2 0x4CF JUMPI DUP1 PUSH4 0xCC1A378F EQ PUSH2 0x4E5 JUMPI DUP1 PUSH4 0xCD3DAF9D EQ PUSH2 0x505 JUMPI DUP1 PUSH4 0xD1AF0C7D EQ PUSH2 0x51A JUMPI DUP1 PUSH4 0xDF136D65 EQ PUSH2 0x53F JUMPI DUP1 PUSH4 0xE12585F1 EQ PUSH2 0x555 JUMPI DUP1 PUSH4 0xE9FAD8EE EQ PUSH2 0x568 JUMPI DUP1 PUSH4 0xEBE2B12B EQ PUSH2 0x57D JUMPI DUP1 PUSH4 0xF2FDE38B EQ PUSH2 0x593 JUMPI PUSH1 0x0 DUP1 REVERT JUMPDEST CALLDATASIZE PUSH2 0x19E JUMPI STOP JUMPDEST PUSH1 0x0 DUP1 REVERT JUMPDEST CALLVALUE DUP1 ISZERO PUSH2 0x1AF JUMPI PUSH1 0x0 DUP1 REVERT JUMPDEST POP PUSH2 0x1C3 PUSH2 0x1BE CALLDATASIZE PUSH1 0x4 PUSH2 0x177E JUMP JUMPDEST PUSH2 0x5B3 JUMP JUMPDEST PUSH1 0x40 MLOAD SWAP1 DUP2 MSTORE PUSH1 0x20 ADD JUMPDEST PUSH1 0x40 MLOAD DUP1 SWAP2 SUB SWAP1 RETURN JUMPDEST CALLVALUE DUP1 ISZERO PUSH2 0x1E2 JUMPI PUSH1 0x0 DUP1 REVERT JUMPDEST POP PUSH2 0x1C3 PUSH2 0x1F1 CALLDATASIZE PUSH1 0x4 PUSH2 0x177E JUMP JUMPDEST PUSH1 0xC PUSH1 0x20 MSTORE PUSH1 0x0 SWAP1 DUP2 MSTORE PUSH1 0x40 SWAP1 KECCAK256 SLOAD DUP2 JUMP JUMPDEST CALLVALUE DUP1 ISZERO PUSH2 0x20F JUMPI PUSH1 0x0 DUP1 REVERT JUMPDEST POP PUSH1 0xD SLOAD PUSH2 0x1C3 JUMP JUMPDEST CALLVALUE DUP1 ISZERO PUSH2 0x224 JUMPI PUSH1 0x0 DUP1 REVERT JUMPDEST POP PUSH2 0x238 PUSH2 0x233 CALLDATASIZE PUSH1 0x4 PUSH2 0x177E JUMP JUMPDEST PUSH2 0x630 JUMP JUMPDEST STOP JUMPDEST CALLVALUE DUP1 ISZERO PUSH2 0x246 JUMPI PUSH1 0x0 DUP1 REVERT JUMPDEST POP PUSH2 0x1C3 PUSH2 0x6E9 JUMP JUMPDEST CALLVALUE DUP1 ISZERO PUSH2 0x25B JUMPI PUSH1 0x0 DUP1 REVERT JUMPDEST POP PUSH2 0x238 PUSH2 0x26A CALLDATASIZE PUSH1 0x4 PUSH2 0x185C JUMP JUMPDEST PUSH2 0x700 JUMP JUMPDEST CALLVALUE DUP1 ISZERO PUSH2 0x27B JUMPI PUSH1 0x0 DUP1 REVERT JUMPDEST POP PUSH2 0x1C3 PUSH1 0x7 SLOAD DUP2 JUMP JUMPDEST CALLVALUE DUP1 ISZERO PUSH2 0x291 JUMPI PUSH1 0x0 DUP1 REVERT JUMPDEST POP PUSH2 0x238 PUSH2 0x2A0 CALLDATASIZE PUSH1 0x4 PUSH2 0x185C JUMP JUMPDEST PUSH2 0x878 JUMP JUMPDEST CALLVALUE DUP1 ISZERO PUSH2 0x2B1 JUMPI PUSH1 0x0 DUP1 REVERT JUMPDEST POP PUSH2 0x238 PUSH2 0x9F2 JUMP JUMPDEST CALLVALUE DUP1 ISZERO PUSH2 0x2C6 JUMPI PUSH1 0x0 DUP1 REVERT JUMPDEST POP PUSH2 0x238 PUSH2 0xB05 JUMP JUMPDEST CALLVALUE DUP1 ISZERO PUSH2 0x2DB JUMPI PUSH1 0x0 DUP1 REVERT JUMPDEST POP PUSH1 0xA SLOAD PUSH2 0x2EF SWAP1 PUSH1 0x1 PUSH1 0x1 PUSH1 0xA0 SHL SUB AND DUP2 JUMP JUMPDEST PUSH1 0x40 MLOAD PUSH2 0x1CD SWAP2 SWAP1 PUSH2 0x1890 JUMP JUMPDEST CALLVALUE DUP1 ISZERO PUSH2 0x308 JUMPI PUSH1 0x0 DUP1 REVERT JUMPDEST POP PUSH2 0x1C3 PUSH1 0x4 SLOAD DUP2 JUMP JUMPDEST CALLVALUE DUP1 ISZERO PUSH2 0x31E JUMPI PUSH1 0x0 DUP1 REVERT JUMPDEST POP PUSH1 0x2 SLOAD PUSH1 0xFF AND PUSH1 0x40 MLOAD SWAP1 ISZERO ISZERO DUP2 MSTORE PUSH1 0x20 ADD PUSH2 0x1CD JUMP JUMPDEST CALLVALUE DUP1 ISZERO PUSH2 0x341 JUMPI PUSH1 0x0 DUP1 REVERT JUMPDEST POP PUSH2 0x1C3 PUSH2 0x350 CALLDATASIZE PUSH1 0x4 PUSH2 0x177E JUMP JUMPDEST PUSH1 0x1 PUSH1 0x1 PUSH1 0xA0 SHL SUB AND PUSH1 0x0 SWAP1 DUP2 MSTORE PUSH1 0x10 PUSH1 0x20 MSTORE PUSH1 0x40 SWAP1 KECCAK256 SLOAD SWAP1 JUMP JUMPDEST CALLVALUE DUP1 ISZERO PUSH2 0x377 JUMPI PUSH1 0x0 DUP1 REVERT JUMPDEST POP PUSH2 0x238 PUSH2 0xB15 JUMP JUMPDEST CALLVALUE DUP1 ISZERO PUSH2 0x38C JUMPI PUSH1 0x0 DUP1 REVERT JUMPDEST POP PUSH1 0x3 SLOAD PUSH2 0x2EF SWAP1 PUSH1 0x1 PUSH1 0x1 PUSH1 0xA0 SHL SUB AND DUP2 JUMP JUMPDEST CALLVALUE DUP1 ISZERO PUSH2 0x3AC JUMPI PUSH1 0x0 DUP1 REVERT JUMPDEST POP PUSH2 0x238 PUSH2 0x3BB CALLDATASIZE PUSH1 0x4 PUSH2 0x185C JUMP JUMPDEST PUSH2 0xB27 JUMP JUMPDEST CALLVALUE DUP1 ISZERO PUSH2 0x3CC JUMPI PUSH1 0x0 DUP1 REVERT JUMPDEST POP PUSH2 0x1C3 PUSH1 0x6 SLOAD DUP2 JUMP JUMPDEST CALLVALUE DUP1 ISZERO PUSH2 0x3E2 JUMPI PUSH1 0x0 DUP1 REVERT JUMPDEST POP PUSH2 0x1C3 PUSH2 0x3F1 CALLDATASIZE PUSH1 0x4 PUSH2 0x177E JUMP JUMPDEST PUSH1 0x11 PUSH1 0x20 MSTORE PUSH1 0x0 SWAP1 DUP2 MSTORE PUSH1 0x40 SWAP1 KECCAK256 SLOAD DUP2 JUMP JUMPDEST CALLVALUE DUP1 ISZERO PUSH2 0x40F JUMPI PUSH1 0x0 DUP1 REVERT JUMPDEST POP PUSH2 0x1C3 PUSH2 0xB34 JUMP JUMPDEST CALLVALUE DUP1 ISZERO PUSH2 0x424 JUMPI PUSH1 0x0 DUP1 REVERT JUMPDEST POP PUSH2 0x238 PUSH2 0xB4B JUMP JUMPDEST CALLVALUE DUP1 ISZERO PUSH2 0x439 JUMPI PUSH1 0x0 DUP1 REVERT JUMPDEST POP PUSH2 0x238 PUSH2 0x448 CALLDATASIZE PUSH1 0x4 PUSH2 0x179F JUMP JUMPDEST PUSH2 0xB5B JUMP JUMPDEST CALLVALUE DUP1 ISZERO PUSH2 0x459 JUMPI PUSH1 0x0 DUP1 REVERT JUMPDEST POP PUSH2 0x1C3 PUSH2 0x468 CALLDATASIZE PUSH1 0x4 PUSH2 0x177E JUMP JUMPDEST PUSH1 0xB PUSH1 0x20 MSTORE PUSH1 0x0 SWAP1 DUP2 MSTORE PUSH1 0x40 SWAP1 KECCAK256 SLOAD DUP2 JUMP JUMPDEST CALLVALUE DUP1 ISZERO PUSH2 0x486 JUMPI PUSH1 0x0 DUP1 REVERT JUMPDEST POP PUSH2 0x2EF PUSH2 0xC40 JUMP JUMPDEST CALLVALUE DUP1 ISZERO PUSH2 0x49B JUMPI PUSH1 0x0 DUP1 REVERT JUMPDEST POP PUSH2 0x238 PUSH2 0x4AA CALLDATASIZE PUSH1 0x4 PUSH2 0x181A JUMP JUMPDEST PUSH2 0xC4F JUMP JUMPDEST CALLVALUE DUP1 ISZERO PUSH2 0x4BB JUMPI PUSH1 0x0 DUP1 REVERT JUMPDEST POP PUSH2 0x238 PUSH2 0x4CA CALLDATASIZE PUSH1 0x4 PUSH2 0x185C JUMP JUMPDEST PUSH2 0xC7C JUMP JUMPDEST CALLVALUE DUP1 ISZERO PUSH2 0x4DB JUMPI PUSH1 0x0 DUP1 REVERT JUMPDEST POP PUSH2 0x1C3 PUSH1 0x8 SLOAD DUP2 JUMP JUMPDEST CALLVALUE DUP1 ISZERO PUSH2 0x4F1 JUMPI PUSH1 0x0 DUP1 REVERT JUMPDEST POP PUSH2 0x238 PUSH2 0x500 CALLDATASIZE PUSH1 0x4 PUSH2 0x185C JUMP JUMPDEST PUSH2 0xDC1 JUMP JUMPDEST CALLVALUE DUP1 ISZERO PUSH2 0x511 JUMPI PUSH1 0x0 DUP1 REVERT JUMPDEST POP PUSH2 0x1C3 PUSH2 0xE96 JUMP JUMPDEST CALLVALUE DUP1 ISZERO PUSH2 0x526 JUMPI PUSH1 0x0 DUP1 REVERT JUMPDEST POP PUSH1 0x2 SLOAD PUSH2 0x2EF SWAP1 PUSH2 0x100 SWAP1 DIV PUSH1 0x1 PUSH1 0x1 PUSH1 0xA0 SHL SUB AND DUP2 JUMP JUMPDEST CALLVALUE DUP1 ISZERO PUSH2 0x54B JUMPI PUSH1 0x0 DUP1 REVERT JUMPDEST POP PUSH2 0x1C3 PUSH1 0x9 SLOAD DUP2 JUMP JUMPDEST PUSH2 0x238 PUSH2 0x563 CALLDATASIZE PUSH1 0x4 PUSH2 0x17E8 JUMP JUMPDEST PUSH2 0xEF8 JUMP JUMPDEST CALLVALUE DUP1 ISZERO PUSH2 0x574 JUMPI PUSH1 0x0 DUP1 REVERT JUMPDEST POP PUSH2 0x238 PUSH2 0x112C JUMP JUMPDEST CALLVALUE DUP1 ISZERO PUSH2 0x589 JUMPI PUSH1 0x0 DUP1 REVERT JUMPDEST POP PUSH2 0x1C3 PUSH1 0x5 SLOAD DUP2 JUMP JUMPDEST CALLVALUE DUP1 ISZERO PUSH2 0x59F JUMPI PUSH1 0x0 DUP1 REVERT JUMPDEST POP PUSH2 0x238 PUSH2 0x5AE CALLDATASIZE PUSH1 0x4 PUSH2 0x177E JUMP JUMPDEST PUSH2 0x114D JUMP JUMPDEST PUSH1 0x1 PUSH1 0x1 PUSH1 0xA0 SHL SUB DUP2 AND PUSH1 0x0 SWAP1 DUP2 MSTORE PUSH1 0xC PUSH1 0x20 SWAP1 DUP2 MSTORE PUSH1 0x40 DUP1 DUP4 KECCAK256 SLOAD PUSH1 0xB SWAP1 SWAP3 MSTORE DUP3 KECCAK256 SLOAD PUSH8 0xDE0B6B3A7640000 SWAP1 PUSH2 0x5E9 PUSH2 0xE96 JUMP JUMPDEST PUSH2 0x5F3 SWAP2 SWAP1 PUSH2 0x196D JUMP JUMPDEST PUSH1 0x1 PUSH1 0x1 PUSH1 0xA0 SHL SUB DUP6 AND PUSH1 0x0 SWAP1 DUP2 MSTORE PUSH1 0x10 PUSH1 0x20 MSTORE PUSH1 0x40 SWAP1 KECCAK256 SLOAD PUSH2 0x616 SWAP2 SWAP1 PUSH2 0x194E JUMP JUMPDEST PUSH2 0x620 SWAP2 SWAP1 PUSH2 0x192E JUMP JUMPDEST PUSH2 0x62A SWAP2 SWAP1 PUSH2 0x1916 JUMP JUMPDEST SWAP3 SWAP2 POP POP JUMP JUMPDEST PUSH2 0x638 PUSH2 0x11C3 JUMP JUMPDEST PUSH1 0x1 PUSH1 0x1 PUSH1 0xA0 SHL SUB DUP2 AND PUSH2 0x693 JUMPI PUSH1 0x40 MLOAD PUSH3 0x461BCD PUSH1 0xE5 SHL DUP2 MSTORE PUSH1 0x20 PUSH1 0x4 DUP3 ADD MSTORE PUSH1 0x1E PUSH1 0x24 DUP3 ADD MSTORE PUSH32 0x726577617264446973747269627574696F6E206D757374206E6F742030780000 PUSH1 0x44 DUP3 ADD MSTORE PUSH1 0x64 ADD JUMPDEST PUSH1 0x40 MLOAD DUP1 SWAP2 SUB SWAP1 REVERT JUMPDEST PUSH1 0xA DUP1 SLOAD PUSH1 0x1 PUSH1 0x1 PUSH1 0xA0 SHL SUB NOT AND PUSH1 0x1 PUSH1 0x1 PUSH1 0xA0 SHL SUB DUP4 AND OR SWAP1 SSTORE PUSH1 0x40 MLOAD PUSH32 0x1C794A043683A294127C95BC365BAE91B63B651EB9884A2C9120AFEE2BB690B4 SWAP1 PUSH2 0x6DE SWAP1 DUP4 SWAP1 PUSH2 0x1890 JUMP JUMPDEST PUSH1 0x40 MLOAD DUP1 SWAP2 SUB SWAP1 LOG1 POP JUMP JUMPDEST PUSH1 0x0 PUSH1 0x7 SLOAD PUSH1 0x6 SLOAD PUSH2 0x6FB SWAP2 SWAP1 PUSH2 0x194E JUMP JUMPDEST SWAP1 POP SWAP1 JUMP JUMPDEST PUSH2 0x708 PUSH2 0x1222 JUMP JUMPDEST CALLER PUSH2 0x711 PUSH2 0xE96 JUMP JUMPDEST PUSH1 0x9 SSTORE PUSH2 0x71C PUSH2 0xB34 JUMP JUMPDEST PUSH1 0x8 SSTORE PUSH1 0x1 PUSH1 0x1 PUSH1 0xA0 SHL SUB DUP2 AND ISZERO PUSH2 0x763 JUMPI PUSH2 0x737 DUP2 PUSH2 0x5B3 JUMP JUMPDEST PUSH1 0x1 PUSH1 0x1 PUSH1 0xA0 SHL SUB DUP3 AND PUSH1 0x0 SWAP1 DUP2 MSTORE PUSH1 0xC PUSH1 0x20 SWAP1 DUP2 MSTORE PUSH1 0x40 DUP1 DUP4 KECCAK256 SWAP4 SWAP1 SWAP4 SSTORE PUSH1 0x9 SLOAD PUSH1 0xB SWAP1 SWAP2 MSTORE SWAP2 SWAP1 KECCAK256 SSTORE JUMPDEST PUSH1 0x0 DUP3 GT PUSH2 0x7A7 JUMPI PUSH1 0x40 MLOAD PUSH3 0x461BCD PUSH1 0xE5 SHL DUP2 MSTORE PUSH1 0x20 PUSH1 0x4 DUP3 ADD MSTORE PUSH1 0x11 PUSH1 0x24 DUP3 ADD MSTORE PUSH17 0x43616E6E6F74207769746864726177203 PUSH1 0x7C SHL PUSH1 0x44 DUP3 ADD MSTORE PUSH1 0x64 ADD PUSH2 0x68A JUMP JUMPDEST PUSH1 0x4 SLOAD CALLER PUSH1 0x0 SWAP1 DUP2 MSTORE PUSH1 0x11 PUSH1 0x20 MSTORE PUSH1 0x40 SWAP1 KECCAK256 SLOAD TIMESTAMP SWAP2 PUSH2 0x7C5 SWAP2 PUSH2 0x1916 JUMP JUMPDEST GT ISZERO PUSH2 0x7E3 JUMPI PUSH1 0x40 MLOAD PUSH3 0x461BCD PUSH1 0xE5 SHL DUP2 MSTORE PUSH1 0x4 ADD PUSH2 0x68A SWAP1 PUSH2 0x18F0 JUMP JUMPDEST DUP2 PUSH1 0xD PUSH1 0x0 DUP3 DUP3 SLOAD PUSH2 0x7F5 SWAP2 SWAP1 PUSH2 0x196D JUMP JUMPDEST SWAP1 SWAP2 SSTORE POP POP CALLER PUSH1 0x0 SWAP1 DUP2 MSTORE PUSH1 0x10 PUSH1 0x20 MSTORE PUSH1 0x40 DUP2 KECCAK256 DUP1 SLOAD DUP5 SWAP3 SWAP1 PUSH2 0x819 SWAP1 DUP5 SWAP1 PUSH2 0x196D JUMP JUMPDEST SWAP1 SWAP2 SSTORE POP POP PUSH1 0x3 SLOAD PUSH2 0x835 SWAP1 PUSH1 0x1 PUSH1 0x1 PUSH1 0xA0 SHL SUB AND CALLER DUP5 PUSH2 0x127C JUMP JUMPDEST PUSH1 0x40 MLOAD DUP3 DUP2 MSTORE CALLER SWAP1 PUSH32 0x7084F5476618D8E60B11EF0D7D3F06914655ADB8793E28FF7F018D4C76D505D5 SWAP1 PUSH1 0x20 ADD JUMPDEST PUSH1 0x40 MLOAD DUP1 SWAP2 SUB SWAP1 LOG2 POP PUSH2 0x875 PUSH1 0x1 DUP1 SSTORE JUMP JUMPDEST POP JUMP JUMPDEST PUSH1 0x0 PUSH2 0x882 PUSH2 0xE96 JUMP JUMPDEST PUSH1 0x9 SSTORE PUSH2 0x88D PUSH2 0xB34 JUMP JUMPDEST PUSH1 0x8 SSTORE PUSH1 0x1 PUSH1 0x1 PUSH1 0xA0 SHL SUB DUP2 AND ISZERO PUSH2 0x8D4 JUMPI PUSH2 0x8A8 DUP2 PUSH2 0x5B3 JUMP JUMPDEST PUSH1 0x1 PUSH1 0x1 PUSH1 0xA0 SHL SUB DUP3 AND PUSH1 0x0 SWAP1 DUP2 MSTORE PUSH1 0xC PUSH1 0x20 SWAP1 DUP2 MSTORE PUSH1 0x40 DUP1 DUP4 KECCAK256 SWAP4 SWAP1 SWAP4 SSTORE PUSH1 0x9 SLOAD PUSH1 0xB SWAP1 SWAP2 MSTORE SWAP2 SWAP1 KECCAK256 SSTORE JUMPDEST PUSH1 0xA SLOAD PUSH1 0x1 PUSH1 0x1 PUSH1 0xA0 SHL SUB AND CALLER EQ PUSH2 0x928 JUMPI PUSH1 0x40 MLOAD PUSH3 0x461BCD PUSH1 0xE5 SHL DUP2 MSTORE PUSH1 0x20 PUSH1 0x4 DUP3 ADD MSTORE PUSH1 0x17 PUSH1 0x24 DUP3 ADD MSTORE PUSH23 0x2737BA103932BBB0B93239A234B9BA3934B13ABA34B7B7 PUSH1 0x49 SHL PUSH1 0x44 DUP3 ADD MSTORE PUSH1 0x64 ADD PUSH2 0x68A JUMP JUMPDEST PUSH1 0x2 SLOAD PUSH2 0x945 SWAP1 PUSH2 0x100 SWAP1 DIV PUSH1 0x1 PUSH1 0x1 PUSH1 0xA0 SHL SUB AND CALLER ADDRESS DUP6 PUSH2 0x12D7 JUMP JUMPDEST PUSH1 0x5 SLOAD TIMESTAMP LT PUSH2 0x963 JUMPI PUSH1 0x7 SLOAD PUSH2 0x95B SWAP1 DUP4 PUSH2 0x192E JUMP JUMPDEST PUSH1 0x6 SSTORE PUSH2 0x9A5 JUMP JUMPDEST PUSH1 0x0 TIMESTAMP PUSH1 0x5 SLOAD PUSH2 0x973 SWAP2 SWAP1 PUSH2 0x196D JUMP JUMPDEST SWAP1 POP PUSH1 0x0 PUSH1 0x6 SLOAD DUP3 PUSH2 0x985 SWAP2 SWAP1 PUSH2 0x194E JUMP JUMPDEST PUSH1 0x7 SLOAD SWAP1 SWAP2 POP PUSH2 0x995 DUP3 DUP7 PUSH2 0x1916 JUMP JUMPDEST PUSH2 0x99F SWAP2 SWAP1 PUSH2 0x192E JUMP JUMPDEST PUSH1 0x6 SSTORE POP POP JUMPDEST TIMESTAMP PUSH1 0x8 DUP2 SWAP1 SSTORE PUSH1 0x7 SLOAD PUSH2 0x9B7 SWAP2 PUSH2 0x1916 JUMP JUMPDEST PUSH1 0x5 SSTORE PUSH1 0x40 MLOAD DUP3 DUP2 MSTORE PUSH32 0xDE88A922E0D3B88B24E9623EFEB464919C6BF9F66857A65E2BFCF2CE87A9433D SWAP1 PUSH1 0x20 ADD JUMPDEST PUSH1 0x40 MLOAD DUP1 SWAP2 SUB SWAP1 LOG1 POP POP JUMP JUMPDEST PUSH2 0x9FA PUSH2 0x1222 JUMP JUMPDEST CALLER PUSH2 0xA03 PUSH2 0xE96 JUMP JUMPDEST PUSH1 0x9 SSTORE PUSH2 0xA0E PUSH2 0xB34 JUMP JUMPDEST PUSH1 0x8 SSTORE PUSH1 0x1 PUSH1 0x1 PUSH1 0xA0 SHL SUB DUP2 AND ISZERO PUSH2 0xA55 JUMPI PUSH2 0xA29 DUP2 PUSH2 0x5B3 JUMP JUMPDEST PUSH1 0x1 PUSH1 0x1 PUSH1 0xA0 SHL SUB DUP3 AND PUSH1 0x0 SWAP1 DUP2 MSTORE PUSH1 0xC PUSH1 0x20 SWAP1 DUP2 MSTORE PUSH1 0x40 DUP1 DUP4 KECCAK256 SWAP4 SWAP1 SWAP4 SSTORE PUSH1 0x9 SLOAD PUSH1 0xB SWAP1 SWAP2 MSTORE SWAP2 SWAP1 KECCAK256 SSTORE JUMPDEST PUSH1 0x4 SLOAD CALLER PUSH1 0x0 SWAP1 DUP2 MSTORE PUSH1 0x11 PUSH1 0x20 MSTORE PUSH1 0x40 SWAP1 KECCAK256 SLOAD TIMESTAMP SWAP2 PUSH2 0xA73 SWAP2 PUSH2 0x1916 JUMP JUMPDEST GT ISZERO PUSH2 0xA91 JUMPI PUSH1 0x40 MLOAD PUSH3 0x461BCD PUSH1 0xE5 SHL DUP2 MSTORE PUSH1 0x4 ADD PUSH2 0x68A SWAP1 PUSH2 0x18F0 JUMP JUMPDEST CALLER PUSH1 0x0 SWAP1 DUP2 MSTORE PUSH1 0xC PUSH1 0x20 MSTORE PUSH1 0x40 SWAP1 KECCAK256 SLOAD DUP1 ISZERO PUSH2 0xAF8 JUMPI CALLER PUSH1 0x0 DUP2 DUP2 MSTORE PUSH1 0xC PUSH1 0x20 MSTORE PUSH1 0x40 DUP2 KECCAK256 SSTORE PUSH1 0x2 SLOAD PUSH2 0xAD4 SWAP2 PUSH2 0x100 SWAP1 SWAP2 DIV PUSH1 0x1 PUSH1 0x1 PUSH1 0xA0 SHL SUB AND SWAP1 DUP4 PUSH2 0x127C JUMP JUMPDEST PUSH1 0x40 MLOAD DUP2 DUP2 MSTORE CALLER SWAP1 PUSH1 0x0 DUP1 MLOAD PUSH1 0x20 PUSH2 0x19DD DUP4 CODECOPY DUP2 MLOAD SWAP2 MSTORE SWAP1 PUSH1 0x20 ADD PUSH1 0x40 MLOAD DUP1 SWAP2 SUB SWAP1 LOG2 JUMPDEST POP POP PUSH2 0xB03 PUSH1 0x1 DUP1 SSTORE JUMP JUMPDEST JUMP JUMPDEST PUSH2 0xB0D PUSH2 0x11C3 JUMP JUMPDEST PUSH2 0xB03 PUSH2 0x1315 JUMP JUMPDEST PUSH2 0xB1D PUSH2 0x11C3 JUMP JUMPDEST PUSH2 0xB03 PUSH1 0x0 PUSH2 0x1361 JUMP JUMPDEST PUSH2 0xB2F PUSH2 0x11C3 JUMP JUMPDEST PUSH1 0x4 SSTORE JUMP JUMPDEST PUSH1 0x0 PUSH1 0x5 SLOAD TIMESTAMP LT PUSH2 0xB46 JUMPI POP PUSH1 0x5 SLOAD SWAP1 JUMP JUMPDEST POP TIMESTAMP SWAP1 JUMP JUMPDEST PUSH2 0xB53 PUSH2 0x11C3 JUMP JUMPDEST PUSH2 0xB03 PUSH2 0x13B1 JUMP JUMPDEST PUSH2 0xB63 PUSH2 0x11C3 JUMP JUMPDEST PUSH1 0x3 SLOAD PUSH1 0x1 PUSH1 0x1 PUSH1 0xA0 SHL SUB DUP4 DUP2 AND SWAP2 AND EQ DUP1 ISZERO SWAP1 PUSH2 0xB94 JUMPI POP PUSH1 0x2 SLOAD PUSH1 0x1 PUSH1 0x1 PUSH1 0xA0 SHL SUB DUP4 DUP2 AND PUSH2 0x100 SWAP1 SWAP3 DIV AND EQ ISZERO JUMPDEST PUSH2 0xBFB JUMPI PUSH1 0x40 MLOAD PUSH3 0x461BCD PUSH1 0xE5 SHL DUP2 MSTORE PUSH1 0x20 PUSH1 0x4 DUP3 ADD MSTORE PUSH1 0x32 PUSH1 0x24 DUP3 ADD MSTORE PUSH32 0x43616E6E6F7420776974686472617720746865207374616B696E6720746F6B65 PUSH1 0x44 DUP3 ADD MSTORE PUSH18 0x371030B732103932BBB0B932103A37B5B2B7 PUSH1 0x71 SHL PUSH1 0x64 DUP3 ADD MSTORE PUSH1 0x84 ADD PUSH2 0x68A JUMP JUMPDEST PUSH2 0xC0F PUSH1 0x1 PUSH1 0x1 PUSH1 0xA0 SHL SUB DUP4 AND CALLER DUP4 PUSH2 0x127C JUMP JUMPDEST PUSH32 0x8C1256B8896378CD5044F80C202F9772B9D77DC85C8A6EB51967210B09BFAA28 DUP3 DUP3 PUSH1 0x40 MLOAD PUSH2 0x9E6 SWAP3 SWAP2 SWAP1 PUSH2 0x18A4 JUMP JUMPDEST PUSH1 0x0 SLOAD PUSH1 0x1 PUSH1 0x1 PUSH1 0xA0 SHL SUB AND SWAP1 JUMP JUMPDEST PUSH2 0xC57 PUSH2 0x11C3 JUMP JUMPDEST DUP1 PUSH1 0xE DUP4 PUSH1 0x40 MLOAD PUSH2 0xC68 SWAP2 SWAP1 PUSH2 0x1874 JUMP JUMPDEST SWAP1 DUP2 MSTORE PUSH1 0x40 MLOAD SWAP1 DUP2 SWAP1 SUB PUSH1 0x20 ADD SWAP1 KECCAK256 SSTORE POP POP JUMP JUMPDEST PUSH2 0xC84 PUSH2 0x1222 JUMP JUMPDEST PUSH2 0xC8C PUSH2 0x13EE JUMP JUMPDEST CALLER PUSH2 0xC95 PUSH2 0xE96 JUMP JUMPDEST PUSH1 0x9 SSTORE PUSH2 0xCA0 PUSH2 0xB34 JUMP JUMPDEST PUSH1 0x8 SSTORE PUSH1 0x1 PUSH1 0x1 PUSH1 0xA0 SHL SUB DUP2 AND ISZERO PUSH2 0xCE7 JUMPI PUSH2 0xCBB DUP2 PUSH2 0x5B3 JUMP JUMPDEST PUSH1 0x1 PUSH1 0x1 PUSH1 0xA0 SHL SUB DUP3 AND PUSH1 0x0 SWAP1 DUP2 MSTORE PUSH1 0xC PUSH1 0x20 SWAP1 DUP2 MSTORE PUSH1 0x40 DUP1 DUP4 KECCAK256 SWAP4 SWAP1 SWAP4 SSTORE PUSH1 0x9 SLOAD PUSH1 0xB SWAP1 SWAP2 MSTORE SWAP2 SWAP1 KECCAK256 SSTORE JUMPDEST PUSH1 0x0 DUP3 GT PUSH2 0xD28 JUMPI PUSH1 0x40 MLOAD PUSH3 0x461BCD PUSH1 0xE5 SHL DUP2 MSTORE PUSH1 0x20 PUSH1 0x4 DUP3 ADD MSTORE PUSH1 0xE PUSH1 0x24 DUP3 ADD MSTORE PUSH14 0x43616E6E6F74207374616B65203 PUSH1 0x94 SHL PUSH1 0x44 DUP3 ADD MSTORE PUSH1 0x64 ADD PUSH2 0x68A JUMP JUMPDEST DUP2 PUSH1 0xD PUSH1 0x0 DUP3 DUP3 SLOAD PUSH2 0xD3A SWAP2 SWAP1 PUSH2 0x1916 JUMP JUMPDEST SWAP1 SWAP2 SSTORE POP POP CALLER PUSH1 0x0 SWAP1 DUP2 MSTORE PUSH1 0x10 PUSH1 0x20 MSTORE PUSH1 0x40 DUP2 KECCAK256 DUP1 SLOAD DUP5 SWAP3 SWAP1 PUSH2 0xD5E SWAP1 DUP5 SWAP1 PUSH2 0x1916 JUMP JUMPDEST SWAP1 SWAP2 SSTORE POP POP CALLER PUSH1 0x0 DUP2 DUP2 MSTORE PUSH1 0x11 PUSH1 0x20 MSTORE PUSH1 0x40 SWAP1 KECCAK256 TIMESTAMP SWAP1 SSTORE PUSH1 0x3 SLOAD PUSH2 0xD8F SWAP2 PUSH1 0x1 PUSH1 0x1 PUSH1 0xA0 SHL SUB SWAP1 SWAP2 AND SWAP1 ADDRESS DUP6 PUSH2 0x12D7 JUMP JUMPDEST PUSH1 0x40 MLOAD DUP3 DUP2 MSTORE CALLER SWAP1 PUSH32 0x9E71BC8EEA02A63969F509818F2DAFB9254532904319F9DBDA79B67BD34A5F3D SWAP1 PUSH1 0x20 ADD PUSH2 0x863 JUMP JUMPDEST PUSH2 0xDC9 PUSH2 0x11C3 JUMP JUMPDEST PUSH1 0x5 SLOAD TIMESTAMP GT PUSH2 0xE61 JUMPI PUSH1 0x40 MLOAD PUSH3 0x461BCD PUSH1 0xE5 SHL DUP2 MSTORE PUSH1 0x20 PUSH1 0x4 DUP3 ADD MSTORE PUSH1 0x58 PUSH1 0x24 DUP3 ADD MSTORE PUSH32 0x50726576696F7573207265776172647320706572696F64206D75737420626520 PUSH1 0x44 DUP3 ADD MSTORE PUSH32 0x636F6D706C657465206265666F7265206368616E67696E672074686520647572 PUSH1 0x64 DUP3 ADD MSTORE PUSH24 0x185D1A5BDB88199BDC881D1A19481B995DC81C195C9A5BD9 PUSH1 0x42 SHL PUSH1 0x84 DUP3 ADD MSTORE PUSH1 0xA4 ADD PUSH2 0x68A JUMP JUMPDEST PUSH1 0x7 DUP2 SWAP1 SSTORE PUSH1 0x40 MLOAD DUP2 DUP2 MSTORE PUSH32 0xFB46CA5A5E06D4540D6387B930A7C978BCE0DB5F449EC6B3F5D07C6E1D44F2D3 SWAP1 PUSH1 0x20 ADD PUSH2 0x6DE JUMP JUMPDEST PUSH1 0x0 PUSH1 0xD SLOAD PUSH1 0x0 EQ ISZERO PUSH2 0xEAA JUMPI POP PUSH1 0x9 SLOAD SWAP1 JUMP JUMPDEST PUSH1 0xD SLOAD PUSH1 0x6 SLOAD PUSH1 0x8 SLOAD PUSH2 0xEBB PUSH2 0xB34 JUMP JUMPDEST PUSH2 0xEC5 SWAP2 SWAP1 PUSH2 0x196D JUMP JUMPDEST PUSH2 0xECF SWAP2 SWAP1 PUSH2 0x194E JUMP JUMPDEST PUSH2 0xEE1 SWAP1 PUSH8 0xDE0B6B3A7640000 PUSH2 0x194E JUMP JUMPDEST PUSH2 0xEEB SWAP2 SWAP1 PUSH2 0x192E JUMP JUMPDEST PUSH1 0x9 SLOAD PUSH2 0x6FB SWAP2 SWAP1 PUSH2 0x1916 JUMP JUMPDEST PUSH2 0xF00 PUSH2 0x1222 JUMP JUMPDEST CALLER PUSH2 0xF09 PUSH2 0xE96 JUMP JUMPDEST PUSH1 0x9 SSTORE PUSH2 0xF14 PUSH2 0xB34 JUMP JUMPDEST PUSH1 0x8 SSTORE PUSH1 0x1 PUSH1 0x1 PUSH1 0xA0 SHL SUB DUP2 AND ISZERO PUSH2 0xF5B JUMPI PUSH2 0xF2F DUP2 PUSH2 0x5B3 JUMP JUMPDEST PUSH1 0x1 PUSH1 0x1 PUSH1 0xA0 SHL SUB DUP3 AND PUSH1 0x0 SWAP1 DUP2 MSTORE PUSH1 0xC PUSH1 0x20 SWAP1 DUP2 MSTORE PUSH1 0x40 DUP1 DUP4 KECCAK256 SWAP4 SWAP1 SWAP4 SSTORE PUSH1 0x9 SLOAD PUSH1 0xB SWAP1 SWAP2 MSTORE SWAP2 SWAP1 KECCAK256 SSTORE JUMPDEST PUSH1 0x4 SLOAD CALLER PUSH1 0x0 SWAP1 DUP2 MSTORE PUSH1 0x11 PUSH1 0x20 MSTORE PUSH1 0x40 SWAP1 KECCAK256 SLOAD TIMESTAMP SWAP2 PUSH2 0xF79 SWAP2 PUSH2 0x1916 JUMP JUMPDEST GT ISZERO PUSH2 0xF97 JUMPI PUSH1 0x40 MLOAD PUSH3 0x461BCD PUSH1 0xE5 SHL DUP2 MSTORE PUSH1 0x4 ADD PUSH2 0x68A SWAP1 PUSH2 0x18F0 JUMP JUMPDEST CALLER PUSH1 0x0 SWAP1 DUP2 MSTORE PUSH1 0xC PUSH1 0x20 MSTORE PUSH1 0x40 SWAP1 KECCAK256 SLOAD DUP1 ISZERO PUSH2 0x1121 JUMPI CALLER PUSH1 0x0 SWAP1 DUP2 MSTORE PUSH1 0xC PUSH1 0x20 MSTORE PUSH1 0x40 DUP1 DUP3 KECCAK256 DUP3 SWAP1 SSTORE MLOAD PUSH1 0xE SWAP1 PUSH2 0xFCF SWAP1 DUP7 SWAP1 PUSH2 0x1874 JUMP JUMPDEST SWAP1 DUP2 MSTORE PUSH1 0x20 ADD PUSH1 0x40 MLOAD DUP1 SWAP2 SUB SWAP1 KECCAK256 SLOAD DUP3 PUSH2 0xFE9 SWAP2 SWAP1 PUSH2 0x194E JUMP JUMPDEST SWAP1 POP PUSH1 0x0 DUP2 GT PUSH2 0xFF8 JUMPI PUSH1 0x0 DUP1 REVERT JUMPDEST DUP4 MLOAD PUSH1 0x20 DUP6 ADD KECCAK256 PUSH32 0x3ED03C38E59DC60C7B69C2A4BF68F9214ACD953252B5A90E8F5F59583E9BC3AE SWAP1 DUP1 DUP3 EQ ISZERO PUSH2 0x105C JUMPI PUSH1 0x40 MLOAD CALLER SWAP1 DUP5 ISZERO PUSH2 0x8FC MUL SWAP1 DUP6 SWAP1 PUSH1 0x0 DUP2 DUP2 DUP2 DUP6 DUP9 DUP9 CALL SWAP4 POP POP POP POP ISZERO DUP1 ISZERO PUSH2 0x1056 JUMPI RETURNDATASIZE PUSH1 0x0 DUP1 RETURNDATACOPY RETURNDATASIZE PUSH1 0x0 REVERT JUMPDEST POP PUSH2 0x10FA JUMP JUMPDEST PUSH1 0xF DUP7 PUSH1 0x40 MLOAD PUSH2 0x106C SWAP2 SWAP1 PUSH2 0x1874 JUMP JUMPDEST SWAP1 DUP2 MSTORE PUSH1 0x40 MLOAD SWAP1 DUP2 SWAP1 SUB PUSH1 0x20 ADD DUP2 KECCAK256 SLOAD PUSH4 0xA9059CBB PUSH1 0xE0 SHL DUP3 MSTORE PUSH1 0x1 PUSH1 0x1 PUSH1 0xA0 SHL SUB AND SWAP1 PUSH4 0xA9059CBB SWAP1 PUSH2 0x10A6 SWAP1 CALLER SWAP1 DUP8 SWAP1 PUSH1 0x4 ADD PUSH2 0x18A4 JUMP JUMPDEST PUSH1 0x20 PUSH1 0x40 MLOAD DUP1 DUP4 SUB DUP2 PUSH1 0x0 DUP8 DUP1 EXTCODESIZE ISZERO DUP1 ISZERO PUSH2 0x10C0 JUMPI PUSH1 0x0 DUP1 REVERT JUMPDEST POP GAS CALL ISZERO DUP1 ISZERO PUSH2 0x10D4 JUMPI RETURNDATASIZE PUSH1 0x0 DUP1 RETURNDATACOPY RETURNDATASIZE PUSH1 0x0 REVERT JUMPDEST POP POP POP POP PUSH1 0x40 MLOAD RETURNDATASIZE PUSH1 0x1F NOT PUSH1 0x1F DUP3 ADD AND DUP3 ADD DUP1 PUSH1 0x40 MSTORE POP DUP2 ADD SWAP1 PUSH2 0x10F8 SWAP2 SWAP1 PUSH2 0x17C8 JUMP JUMPDEST POP JUMPDEST PUSH1 0x40 MLOAD DUP4 DUP2 MSTORE CALLER SWAP1 PUSH1 0x0 DUP1 MLOAD PUSH1 0x20 PUSH2 0x19DD DUP4 CODECOPY DUP2 MLOAD SWAP2 MSTORE SWAP1 PUSH1 0x20 ADD PUSH1 0x40 MLOAD DUP1 SWAP2 SUB SWAP1 LOG2 POP POP POP JUMPDEST POP POP PUSH2 0x875 PUSH1 0x1 DUP1 SSTORE JUMP JUMPDEST CALLER PUSH1 0x0 SWAP1 DUP2 MSTORE PUSH1 0x10 PUSH1 0x20 MSTORE PUSH1 0x40 SWAP1 KECCAK256 SLOAD PUSH2 0x1145 SWAP1 PUSH2 0x700 JUMP JUMPDEST PUSH2 0xB03 PUSH2 0x9F2 JUMP JUMPDEST PUSH2 0x1155 PUSH2 0x11C3 JUMP JUMPDEST PUSH1 0x1 PUSH1 0x1 PUSH1 0xA0 SHL SUB DUP2 AND PUSH2 0x11BA JUMPI PUSH1 0x40 MLOAD PUSH3 0x461BCD PUSH1 0xE5 SHL DUP2 MSTORE PUSH1 0x20 PUSH1 0x4 DUP3 ADD MSTORE PUSH1 0x26 PUSH1 0x24 DUP3 ADD MSTORE PUSH32 0x4F776E61626C653A206E6577206F776E657220697320746865207A65726F2061 PUSH1 0x44 DUP3 ADD MSTORE PUSH6 0x646472657373 PUSH1 0xD0 SHL PUSH1 0x64 DUP3 ADD MSTORE PUSH1 0x84 ADD PUSH2 0x68A JUMP JUMPDEST PUSH2 0x875 DUP2 PUSH2 0x1361 JUMP JUMPDEST CALLER PUSH2 0x11CC PUSH2 0xC40 JUMP JUMPDEST PUSH1 0x1 PUSH1 0x1 PUSH1 0xA0 SHL SUB AND EQ PUSH2 0xB03 JUMPI PUSH1 0x40 MLOAD PUSH3 0x461BCD PUSH1 0xE5 SHL DUP2 MSTORE PUSH1 0x20 PUSH1 0x4 DUP3 ADD DUP2 SWAP1 MSTORE PUSH1 0x24 DUP3 ADD MSTORE PUSH32 0x4F776E61626C653A2063616C6C6572206973206E6F7420746865206F776E6572 PUSH1 0x44 DUP3 ADD MSTORE PUSH1 0x64 ADD PUSH2 0x68A JUMP JUMPDEST PUSH1 0x2 PUSH1 0x1 SLOAD EQ ISZERO PUSH2 0x1275 JUMPI PUSH1 0x40 MLOAD PUSH3 0x461BCD PUSH1 0xE5 SHL DUP2 MSTORE PUSH1 0x20 PUSH1 0x4 DUP3 ADD MSTORE PUSH1 0x1F PUSH1 0x24 DUP3 ADD MSTORE PUSH32 0x5265656E7472616E637947756172643A207265656E7472616E742063616C6C00 PUSH1 0x44 DUP3 ADD MSTORE PUSH1 0x64 ADD PUSH2 0x68A JUMP JUMPDEST PUSH1 0x2 PUSH1 0x1 SSTORE JUMP JUMPDEST PUSH2 0x12D2 DUP4 PUSH4 0xA9059CBB PUSH1 0xE0 SHL DUP5 DUP5 PUSH1 0x40 MLOAD PUSH1 0x24 ADD PUSH2 0x129B SWAP3 SWAP2 SWAP1 PUSH2 0x18A4 JUMP JUMPDEST PUSH1 0x40 DUP1 MLOAD PUSH1 0x1F NOT DUP2 DUP5 SUB ADD DUP2 MSTORE SWAP2 SWAP1 MSTORE PUSH1 0x20 DUP2 ADD DUP1 MLOAD PUSH1 0x1 PUSH1 0x1 PUSH1 0xE0 SHL SUB AND PUSH1 0x1 PUSH1 0x1 PUSH1 0xE0 SHL SUB NOT SWAP1 SWAP4 AND SWAP3 SWAP1 SWAP3 OR SWAP1 SWAP2 MSTORE PUSH2 0x1434 JUMP JUMPDEST POP POP POP JUMP JUMPDEST PUSH1 0x40 MLOAD PUSH1 0x1 PUSH1 0x1 PUSH1 0xA0 SHL SUB DUP1 DUP6 AND PUSH1 0x24 DUP4 ADD MSTORE DUP4 AND PUSH1 0x44 DUP3 ADD MSTORE PUSH1 0x64 DUP2 ADD DUP3 SWAP1 MSTORE PUSH2 0x130F SWAP1 DUP6 SWAP1 PUSH4 0x23B872DD PUSH1 0xE0 SHL SWAP1 PUSH1 0x84 ADD PUSH2 0x129B JUMP JUMPDEST POP POP POP POP JUMP JUMPDEST PUSH2 0x131D PUSH2 0x1506 JUMP JUMPDEST PUSH1 0x2 DUP1 SLOAD PUSH1 0xFF NOT AND SWAP1 SSTORE PUSH32 0x5DB9EE0A495BF2E6FF9C91A7834C1BA4FDD244A5E8AA4E537BD38AEAE4B073AA CALLER JUMPDEST PUSH1 0x40 MLOAD PUSH2 0x1357 SWAP2 SWAP1 PUSH2 0x1890 JUMP JUMPDEST PUSH1 0x40 MLOAD DUP1 SWAP2 SUB SWAP1 LOG1 JUMP JUMPDEST PUSH1 0x0 DUP1 SLOAD PUSH1 0x1 PUSH1 0x1 PUSH1 0xA0 SHL SUB DUP4 DUP2 AND PUSH1 0x1 PUSH1 0x1 PUSH1 0xA0 SHL SUB NOT DUP4 AND DUP2 OR DUP5 SSTORE PUSH1 0x40 MLOAD SWAP2 SWAP1 SWAP3 AND SWAP3 DUP4 SWAP2 PUSH32 0x8BE0079C531659141344CD1FD0A4F28419497F9722A3DAAFE3B4186F6B6457E0 SWAP2 SWAP1 LOG3 POP POP JUMP JUMPDEST PUSH2 0x13B9 PUSH2 0x13EE JUMP JUMPDEST PUSH1 0x2 DUP1 SLOAD PUSH1 0xFF NOT AND PUSH1 0x1 OR SWAP1 SSTORE PUSH32 0x62E78CEA01BEE320CD4E420270B5EA74000D11B0C9F74754EBDBFC544B05A258 PUSH2 0x134A CALLER SWAP1 JUMP JUMPDEST PUSH1 0x2 SLOAD PUSH1 0xFF AND ISZERO PUSH2 0xB03 JUMPI PUSH1 0x40 MLOAD PUSH3 0x461BCD PUSH1 0xE5 SHL DUP2 MSTORE PUSH1 0x20 PUSH1 0x4 DUP3 ADD MSTORE PUSH1 0x10 PUSH1 0x24 DUP3 ADD MSTORE PUSH16 0x14185D5CD8589B194E881C185D5CD959 PUSH1 0x82 SHL PUSH1 0x44 DUP3 ADD MSTORE PUSH1 0x64 ADD PUSH2 0x68A JUMP JUMPDEST PUSH1 0x0 PUSH2 0x1489 DUP3 PUSH1 0x40 MLOAD DUP1 PUSH1 0x40 ADD PUSH1 0x40 MSTORE DUP1 PUSH1 0x20 DUP2 MSTORE PUSH1 0x20 ADD PUSH32 0x5361666545524332303A206C6F772D6C6576656C2063616C6C206661696C6564 DUP2 MSTORE POP DUP6 PUSH1 0x1 PUSH1 0x1 PUSH1 0xA0 SHL SUB AND PUSH2 0x154F SWAP1 SWAP3 SWAP2 SWAP1 PUSH4 0xFFFFFFFF AND JUMP JUMPDEST DUP1 MLOAD SWAP1 SWAP2 POP ISZERO PUSH2 0x12D2 JUMPI DUP1 DUP1 PUSH1 0x20 ADD SWAP1 MLOAD DUP2 ADD SWAP1 PUSH2 0x14A7 SWAP2 SWAP1 PUSH2 0x17C8 JUMP JUMPDEST PUSH2 0x12D2 JUMPI PUSH1 0x40 MLOAD PUSH3 0x461BCD PUSH1 0xE5 SHL DUP2 MSTORE PUSH1 0x20 PUSH1 0x4 DUP3 ADD MSTORE PUSH1 0x2A PUSH1 0x24 DUP3 ADD MSTORE PUSH32 0x5361666545524332303A204552433230206F7065726174696F6E20646964206E PUSH1 0x44 DUP3 ADD MSTORE PUSH10 0x1BDD081CDD58D8D95959 PUSH1 0xB2 SHL PUSH1 0x64 DUP3 ADD MSTORE PUSH1 0x84 ADD PUSH2 0x68A JUMP JUMPDEST PUSH1 0x2 SLOAD PUSH1 0xFF AND PUSH2 0xB03 JUMPI PUSH1 0x40 MLOAD PUSH3 0x461BCD PUSH1 0xE5 SHL DUP2 MSTORE PUSH1 0x20 PUSH1 0x4 DUP3 ADD MSTORE PUSH1 0x14 PUSH1 0x24 DUP3 ADD MSTORE PUSH20 0x14185D5CD8589B194E881B9BDD081C185D5CD959 PUSH1 0x62 SHL PUSH1 0x44 DUP3 ADD MSTORE PUSH1 0x64 ADD PUSH2 0x68A JUMP JUMPDEST PUSH1 0x60 PUSH2 0x155E DUP5 DUP5 PUSH1 0x0 DUP6 PUSH2 0x1566 JUMP JUMPDEST SWAP5 SWAP4 POP POP POP POP JUMP JUMPDEST PUSH1 0x60 DUP3 SELFBALANCE LT ISZERO PUSH2 0x15C7 JUMPI PUSH1 0x40 MLOAD PUSH3 0x461BCD PUSH1 0xE5 SHL DUP2 MSTORE PUSH1 0x20 PUSH1 0x4 DUP3 ADD MSTORE PUSH1 0x26 PUSH1 0x24 DUP3 ADD MSTORE PUSH32 0x416464726573733A20696E73756666696369656E742062616C616E636520666F PUSH1 0x44 DUP3 ADD MSTORE PUSH6 0x1C8818D85B1B PUSH1 0xD2 SHL PUSH1 0x64 DUP3 ADD MSTORE PUSH1 0x84 ADD PUSH2 0x68A JUMP JUMPDEST PUSH1 0x0 DUP1 DUP7 PUSH1 0x1 PUSH1 0x1 PUSH1 0xA0 SHL SUB AND DUP6 DUP8 PUSH1 0x40 MLOAD PUSH2 0x15E3 SWAP2 SWAP1 PUSH2 0x1874 JUMP JUMPDEST PUSH1 0x0 PUSH1 0x40 MLOAD DUP1 DUP4 SUB DUP2 DUP6 DUP8 GAS CALL SWAP3 POP POP POP RETURNDATASIZE DUP1 PUSH1 0x0 DUP2 EQ PUSH2 0x1620 JUMPI PUSH1 0x40 MLOAD SWAP2 POP PUSH1 0x1F NOT PUSH1 0x3F RETURNDATASIZE ADD AND DUP3 ADD PUSH1 0x40 MSTORE RETURNDATASIZE DUP3 MSTORE RETURNDATASIZE PUSH1 0x0 PUSH1 0x20 DUP5 ADD RETURNDATACOPY PUSH2 0x1625 JUMP JUMPDEST PUSH1 0x60 SWAP2 POP JUMPDEST POP SWAP2 POP SWAP2 POP PUSH2 0x1636 DUP8 DUP4 DUP4 DUP8 PUSH2 0x1641 JUMP JUMPDEST SWAP8 SWAP7 POP POP POP POP POP POP POP JUMP JUMPDEST PUSH1 0x60 DUP4 ISZERO PUSH2 0x16AD JUMPI DUP3 MLOAD PUSH2 0x16A6 JUMPI PUSH1 0x1 PUSH1 0x1 PUSH1 0xA0 SHL SUB DUP6 AND EXTCODESIZE PUSH2 0x16A6 JUMPI PUSH1 0x40 MLOAD PUSH3 0x461BCD PUSH1 0xE5 SHL DUP2 MSTORE PUSH1 0x20 PUSH1 0x4 DUP3 ADD MSTORE PUSH1 0x1D PUSH1 0x24 DUP3 ADD MSTORE PUSH32 0x416464726573733A2063616C6C20746F206E6F6E2D636F6E7472616374000000 PUSH1 0x44 DUP3 ADD MSTORE PUSH1 0x64 ADD PUSH2 0x68A JUMP JUMPDEST POP DUP2 PUSH2 0x155E JUMP JUMPDEST PUSH2 0x155E DUP4 DUP4 DUP2 MLOAD ISZERO PUSH2 0x16C2 JUMPI DUP2 MLOAD DUP1 DUP4 PUSH1 0x20 ADD REVERT JUMPDEST DUP1 PUSH1 0x40 MLOAD PUSH3 0x461BCD PUSH1 0xE5 SHL DUP2 MSTORE PUSH1 0x4 ADD PUSH2 0x68A SWAP2 SWAP1 PUSH2 0x18BD JUMP JUMPDEST DUP1 CALLDATALOAD PUSH1 0x1 PUSH1 0x1 PUSH1 0xA0 SHL SUB DUP2 AND DUP2 EQ PUSH2 0x16F3 JUMPI PUSH1 0x0 DUP1 REVERT JUMPDEST SWAP2 SWAP1 POP JUMP JUMPDEST PUSH1 0x0 DUP3 PUSH1 0x1F DUP4 ADD SLT PUSH2 0x1708 JUMPI DUP1 DUP2 REVERT JUMPDEST DUP2 CALLDATALOAD PUSH1 0x1 PUSH1 0x1 PUSH1 0x40 SHL SUB DUP1 DUP3 GT ISZERO PUSH2 0x1722 JUMPI PUSH2 0x1722 PUSH2 0x19C6 JUMP JUMPDEST PUSH1 0x40 MLOAD PUSH1 0x1F DUP4 ADD PUSH1 0x1F NOT SWAP1 DUP2 AND PUSH1 0x3F ADD AND DUP2 ADD SWAP1 DUP3 DUP3 GT DUP2 DUP4 LT OR ISZERO PUSH2 0x174A JUMPI PUSH2 0x174A PUSH2 0x19C6 JUMP JUMPDEST DUP2 PUSH1 0x40 MSTORE DUP4 DUP2 MSTORE DUP7 PUSH1 0x20 DUP6 DUP9 ADD ADD GT ISZERO PUSH2 0x1762 JUMPI DUP5 DUP6 REVERT JUMPDEST DUP4 PUSH1 0x20 DUP8 ADD PUSH1 0x20 DUP4 ADD CALLDATACOPY SWAP3 DUP4 ADD PUSH1 0x20 ADD SWAP4 SWAP1 SWAP4 MSTORE POP SWAP4 SWAP3 POP POP POP JUMP JUMPDEST PUSH1 0x0 PUSH1 0x20 DUP3 DUP5 SUB SLT ISZERO PUSH2 0x178F JUMPI DUP1 DUP2 REVERT JUMPDEST PUSH2 0x1798 DUP3 PUSH2 0x16DC JUMP JUMPDEST SWAP4 SWAP3 POP POP POP JUMP JUMPDEST PUSH1 0x0 DUP1 PUSH1 0x40 DUP4 DUP6 SUB SLT ISZERO PUSH2 0x17B1 JUMPI DUP1 DUP2 REVERT JUMPDEST PUSH2 0x17BA DUP4 PUSH2 0x16DC JUMP JUMPDEST SWAP5 PUSH1 0x20 SWAP4 SWAP1 SWAP4 ADD CALLDATALOAD SWAP4 POP POP POP JUMP JUMPDEST PUSH1 0x0 PUSH1 0x20 DUP3 DUP5 SUB SLT ISZERO PUSH2 0x17D9 JUMPI DUP1 DUP2 REVERT JUMPDEST DUP2 MLOAD DUP1 ISZERO ISZERO DUP2 EQ PUSH2 0x1798 JUMPI DUP2 DUP3 REVERT JUMPDEST PUSH1 0x0 PUSH1 0x20 DUP3 DUP5 SUB SLT ISZERO PUSH2 0x17F9 JUMPI DUP1 DUP2 REVERT JUMPDEST DUP2 CALLDATALOAD PUSH1 0x1 PUSH1 0x1 PUSH1 0x40 SHL SUB DUP2 GT ISZERO PUSH2 0x180E JUMPI DUP2 DUP3 REVERT JUMPDEST PUSH2 0x155E DUP5 DUP3 DUP6 ADD PUSH2 0x16F8 JUMP JUMPDEST PUSH1 0x0 DUP1 PUSH1 0x40 DUP4 DUP6 SUB SLT ISZERO PUSH2 0x182C JUMPI DUP2 DUP3 REVERT JUMPDEST DUP3 CALLDATALOAD PUSH1 0x1 PUSH1 0x1 PUSH1 0x40 SHL SUB DUP2 GT ISZERO PUSH2 0x1841 JUMPI DUP3 DUP4 REVERT JUMPDEST PUSH2 0x184D DUP6 DUP3 DUP7 ADD PUSH2 0x16F8 JUMP JUMPDEST SWAP6 PUSH1 0x20 SWAP5 SWAP1 SWAP5 ADD CALLDATALOAD SWAP5 POP POP POP POP JUMP JUMPDEST PUSH1 0x0 PUSH1 0x20 DUP3 DUP5 SUB SLT ISZERO PUSH2 0x186D JUMPI DUP1 DUP2 REVERT JUMPDEST POP CALLDATALOAD SWAP2 SWAP1 POP JUMP JUMPDEST PUSH1 0x0 DUP3 MLOAD PUSH2 0x1886 DUP2 DUP5 PUSH1 0x20 DUP8 ADD PUSH2 0x1984 JUMP JUMPDEST SWAP2 SWAP1 SWAP2 ADD SWAP3 SWAP2 POP POP JUMP JUMPDEST PUSH1 0x1 PUSH1 0x1 PUSH1 0xA0 SHL SUB SWAP2 SWAP1 SWAP2 AND DUP2 MSTORE PUSH1 0x20 ADD SWAP1 JUMP JUMPDEST PUSH1 0x1 PUSH1 0x1 PUSH1 0xA0 SHL SUB SWAP3 SWAP1 SWAP3 AND DUP3 MSTORE PUSH1 0x20 DUP3 ADD MSTORE PUSH1 0x40 ADD SWAP1 JUMP JUMPDEST PUSH1 0x20 DUP2 MSTORE PUSH1 0x0 DUP3 MLOAD DUP1 PUSH1 0x20 DUP5 ADD MSTORE PUSH2 0x18DC DUP2 PUSH1 0x40 DUP6 ADD PUSH1 0x20 DUP8 ADD PUSH2 0x1984 JUMP JUMPDEST PUSH1 0x1F ADD PUSH1 0x1F NOT AND SWAP2 SWAP1 SWAP2 ADD PUSH1 0x40 ADD SWAP3 SWAP2 POP POP JUMP JUMPDEST PUSH1 0x20 DUP1 DUP3 MSTORE PUSH1 0xC SWAP1 DUP3 ADD MSTORE PUSH12 0x14DD1A5B1B081B1BD8DAD959 PUSH1 0xA2 SHL PUSH1 0x40 DUP3 ADD MSTORE PUSH1 0x60 ADD SWAP1 JUMP JUMPDEST PUSH1 0x0 DUP3 NOT DUP3 GT ISZERO PUSH2 0x1929 JUMPI PUSH2 0x1929 PUSH2 0x19B0 JUMP JUMPDEST POP ADD SWAP1 JUMP JUMPDEST PUSH1 0x0 DUP3 PUSH2 0x1949 JUMPI PUSH4 0x4E487B71 PUSH1 0xE0 SHL DUP2 MSTORE PUSH1 0x12 PUSH1 0x4 MSTORE PUSH1 0x24 DUP2 REVERT JUMPDEST POP DIV SWAP1 JUMP JUMPDEST PUSH1 0x0 DUP2 PUSH1 0x0 NOT DIV DUP4 GT DUP3 ISZERO ISZERO AND ISZERO PUSH2 0x1968 JUMPI PUSH2 0x1968 PUSH2 0x19B0 JUMP JUMPDEST POP MUL SWAP1 JUMP JUMPDEST PUSH1 0x0 DUP3 DUP3 LT ISZERO PUSH2 0x197F JUMPI PUSH2 0x197F PUSH2 0x19B0 JUMP JUMPDEST POP SUB SWAP1 JUMP JUMPDEST PUSH1 0x0 JUMPDEST DUP4 DUP2 LT ISZERO PUSH2 0x199F JUMPI DUP2 DUP2 ADD MLOAD DUP4 DUP3 ADD MSTORE PUSH1 0x20 ADD PUSH2 0x1987 JUMP JUMPDEST DUP4 DUP2 GT ISZERO PUSH2 0x130F JUMPI POP POP PUSH1 0x0 SWAP2 ADD MSTORE JUMP JUMPDEST PUSH4 0x4E487B71 PUSH1 0xE0 SHL PUSH1 0x0 MSTORE PUSH1 0x11 PUSH1 0x4 MSTORE PUSH1 0x24 PUSH1 0x0 REVERT JUMPDEST PUSH4 0x4E487B71 PUSH1 0xE0 SHL PUSH1 0x0 MSTORE PUSH1 0x41 PUSH1 0x4 MSTORE PUSH1 0x24 PUSH1 0x0 REVERT INVALID 0xE2 BLOCKHASH CALLDATASIZE BLOCKHASH 0xBA PUSH9 0xFED3A2F88B7557551D NOT SWAP4 0xF8 0x4B SWAP10 0xBB LT SELFDESTRUCT DUP4 EXTCODEHASH 0xC 0xF8 0xDB 0xC 0x5E DIV DUP7 LOG2 PUSH5 0x6970667358 0x22 SLT KECCAK256 0xDF 0x4B 0xEF COINBASE 0xF 0xCD DUP7 0xCA 0xDB PUSH22 0xB075A8B67DAF38E5DFFD08FA159F143F522AA6941560 PUSH5 0x736F6C6343 STOP ADDMOD DIV STOP CALLER "},"methodIdentifiers":{"balanceOf(address)":"70a08231","earned(address)":"008cc262","exit()":"e9fad8ee","getReward()":"3d18b912","getRewardForDuration()":"1c1f78eb","getRewardStable(string)":"e12585f1","lastStakeTime(address)":"7bb1ca19","lastTimeRewardApplicable()":"80faa57d","lastUpdateTime()":"c8f33c91","lockPeriod()":"3fd8b02f","notifyRewardAmount(uint256)":"3c6b16ab","owner()":"8da5cb5b","pause()":"8456cb59","paused()":"5c975abb","periodFinish()":"ebe2b12b","recoverERC20(address,uint256)":"8980f11f","renounceOwnership()":"715018a6","rewardPerToken()":"cd3daf9d","rewardPerTokenStored()":"df136d65","rewardRate()":"7b0a47ee","rewards(address)":"0700037d","rewardsDistribution()":"3fc6df6e","rewardsDuration()":"386a9525","rewardsToken()":"d1af0c7d","setLockPeriod(uint256)":"779972da","setRewardsDistribution(address)":"19762143","setRewardsDuration(uint256)":"cc1a378f","setStabPrice(string,uint256)":"9fbd4fc7","stake(uint256)":"a694fc3a","stakingToken()":"72f702f3","totalSupply()":"18160ddd","transferOwnership(address)":"f2fde38b","unpause()":"3f4ba83a","userRewardPerTokenPaid(address)":"8b876347","withdraw(uint256)":"2e1a7d4d"}}}}}