{"contracts/nftStaking.sol":{"NFTStaking":{"abi":[{"inputs":[{"internalType":"address","name":"_nft","type":"address"},{"internalType":"address","name":"_token","type":"address"}],"stateMutability":"nonpayable","type":"constructor"},{"anonymous":false,"inputs":[{"indexed":false,"internalType":"address","name":"owner","type":"address"},{"indexed":false,"internalType":"uint256","name":"amount","type":"uint256"}],"name":"Claimed","type":"event"},{"anonymous":false,"inputs":[{"indexed":false,"internalType":"address","name":"","type":"address"},{"indexed":false,"internalType":"uint256","name":"","type":"uint256"}],"name":"Fallback","type":"event"},{"anonymous":false,"inputs":[{"indexed":false,"internalType":"address","name":"owner","type":"address"},{"indexed":false,"internalType":"uint256","name":"tokenId","type":"uint256"},{"indexed":false,"internalType":"uint256","name":"value","type":"uint256"}],"name":"NFTStaked","type":"event"},{"anonymous":false,"inputs":[{"indexed":false,"internalType":"address","name":"owner","type":"address"},{"indexed":false,"internalType":"uint256","name":"tokenId","type":"uint256"},{"indexed":false,"internalType":"uint256","name":"value","type":"uint256"}],"name":"NFTUnstaked","type":"event"},{"anonymous":false,"inputs":[{"indexed":true,"internalType":"address","name":"previousOwner","type":"address"},{"indexed":true,"internalType":"address","name":"newOwner","type":"address"}],"name":"OwnershipTransferred","type":"event"},{"anonymous":false,"inputs":[{"indexed":false,"internalType":"address","name":"","type":"address"},{"indexed":false,"internalType":"uint256","name":"","type":"uint256"}],"name":"Received","type":"event"},{"stateMutability":"payable","type":"fallback"},{"inputs":[{"internalType":"address","name":"account","type":"address"}],"name":"balanceOf","outputs":[{"internalType":"uint256","name":"","type":"uint256"}],"stateMutability":"view","type":"function"},{"inputs":[{"internalType":"uint256[]","name":"tokenIds","type":"uint256[]"}],"name":"claim","outputs":[],"stateMutability":"nonpayable","type":"function"},{"inputs":[{"internalType":"address","name":"account","type":"address"},{"internalType":"uint256[]","name":"tokenIds","type":"uint256[]"}],"name":"claimForAddress","outputs":[],"stateMutability":"nonpayable","type":"function"},{"inputs":[{"internalType":"address","name":"account","type":"address"},{"internalType":"uint256[]","name":"tokenIds","type":"uint256[]"}],"name":"earningInfo","outputs":[{"internalType":"uint256[1]","name":"info","type":"uint256[1]"}],"stateMutability":"view","type":"function"},{"inputs":[],"name":"isStart","outputs":[{"internalType":"bool","name":"","type":"bool"}],"stateMutability":"view","type":"function"},{"inputs":[{"internalType":"address","name":"","type":"address"},{"internalType":"address","name":"from","type":"address"},{"internalType":"uint256","name":"","type":"uint256"},{"internalType":"bytes","name":"","type":"bytes"}],"name":"onERC721Received","outputs":[{"internalType":"bytes4","name":"","type":"bytes4"}],"stateMutability":"pure","type":"function"},{"inputs":[],"name":"owner","outputs":[{"internalType":"address","name":"","type":"address"}],"stateMutability":"view","type":"function"},{"inputs":[],"name":"renounceOwnership","outputs":[],"stateMutability":"nonpayable","type":"function"},{"inputs":[{"internalType":"bool","name":"_isStart","type":"bool"}],"name":"setStartStatus","outputs":[],"stateMutability":"nonpayable","type":"function"},{"inputs":[{"internalType":"uint256","name":"_tokenPrice","type":"uint256"}],"name":"setTokenPrice","outputs":[],"stateMutability":"nonpayable","type":"function"},{"inputs":[{"internalType":"uint256[]","name":"tokenIds","type":"uint256[]"}],"name":"stake","outputs":[],"stateMutability":"nonpayable","type":"function"},{"inputs":[],"name":"tokenPrice","outputs":[{"internalType":"uint256","name":"","type":"uint256"}],"stateMutability":"view","type":"function"},{"inputs":[{"internalType":"address","name":"account","type":"address"}],"name":"tokensOfOwner","outputs":[{"internalType":"uint256[]","name":"ownerTokens","type":"uint256[]"}],"stateMutability":"view","type":"function"},{"inputs":[],"name":"totalStaked","outputs":[{"internalType":"uint256","name":"","type":"uint256"}],"stateMutability":"view","type":"function"},{"inputs":[{"internalType":"address","name":"newOwner","type":"address"}],"name":"transferOwnership","outputs":[],"stateMutability":"nonpayable","type":"function"},{"inputs":[{"internalType":"uint256[]","name":"tokenIds","type":"uint256[]"}],"name":"unstake","outputs":[],"stateMutability":"nonpayable","type":"function"},{"inputs":[{"internalType":"uint256","name":"","type":"uint256"}],"name":"vault","outputs":[{"internalType":"uint24","name":"tokenId","type":"uint24"},{"internalType":"uint48","name":"timestamp","type":"uint48"},{"internalType":"address","name":"owner","type":"address"}],"stateMutability":"view","type":"function"},{"stateMutability":"payable","type":"receive"}],"evm":{"bytecode":{"linkReferences":{},"object":"60806040523480156200001157600080fd5b50604051620016b1380380620016b18339810160408190526200003491620000f2565b6200003f3362000085565b60048054610100600160a81b0319166101006001600160a01b0394851602179055600580546001600160a01b031916919092161790556509184e72a00060035562000129565b600080546001600160a01b038381166001600160a01b0319831681178455604051919092169283917f8be0079c531659141344cd1fd0a4f28419497f9722a3daafe3b4186f6b6457e09190a35050565b80516001600160a01b0381168114620000ed57600080fd5b919050565b6000806040838503121562000105578182fd5b6200011083620000d5565b91506200012060208401620000d5565b90509250929050565b61157880620001396000396000f3fe6080604052600436106100d25760003560e01c8063094be381146101435780630fbf0a9314610165578063150b7a02146101855780636a61e5fc146101c35780636ba4c138146101e357806370a0823114610203578063715018a6146102475780637e75dd601461025c5780637ff9b59614610289578063817b1cd21461029f57806381a36fb6146102b55780638462151c1461033a5780638a55d36e146103675780638da5cb5b14610391578063c36be357146103be578063e449f341146103de578063f2fde38b146103fe57610112565b36610112577f88a5966d370b9919b20f3e2c13ff65706f196a4e32cc2c12bf57088f8852587433346040516101089291906113aa565b60405180910390a1005b7ffbf15a1bae5e021d024841007b692b167afd2a281a4ff0b44f47387eb388205c33346040516101089291906113aa565b34801561014f57600080fd5b5061016361015e366004611336565b61041e565b005b34801561017157600080fd5b506101636101803660046112f7565b610439565b34801561019157600080fd5b506101a56101a036600461120c565b610714565b6040516001600160e01b031990911681526020015b60405180910390f35b3480156101cf57600080fd5b506101636101de36600461136e565b61078a565b3480156101ef57600080fd5b506101636101fe3660046112f7565b610797565b34801561020f57600080fd5b5061023961021e3660046111d4565b6001600160a01b031660009081526002602052604090205490565b6040519081526020016101ba565b34801561025357600080fd5b506101636107a8565b34801561026857600080fd5b5061027c6102773660046112a5565b6107bc565b6040516101ba91906113e4565b34801561029557600080fd5b5061023960035481565b3480156102ab57600080fd5b5061023960015481565b3480156102c157600080fd5b506103096102d036600461136e565b60066020526000908152604090205462ffffff8116906301000000810465ffffffffffff1690600160481b90046001600160a01b031683565b6040805162ffffff909416845265ffffffffffff90921660208401526001600160a01b0316908201526060016101ba565b34801561034657600080fd5b5061035a6103553660046111d4565b610902565b6040516101ba9190611416565b34801561037357600080fd5b506004546103819060ff1681565b60405190151581526020016101ba565b34801561039d57600080fd5b506103a661096e565b6040516001600160a01b0390911681526020016101ba565b3480156103ca57600080fd5b506101636103d93660046112a5565b61097d565b3480156103ea57600080fd5b506101636103f93660046112f7565b61098f565b34801561040a57600080fd5b506101636104193660046111d4565b61099c565b610426610a15565b6004805460ff1916911515919091179055565b600082829050600160008282546104509190611480565b90915550600090505b8281101561070e5783838281811061048157634e487b7160e01b600052603260045260246000fd5b600480546040516331a9108f60e11b8152602090930294909401359550339361010090046001600160a01b03169250636352211e916104c69187910190815260200190565b60206040518083038186803b1580156104de57600080fd5b505afa1580156104f2573d6000803e3d6000fd5b505050506040513d601f19601f8201168201806040525081019061051691906111f0565b6001600160a01b0316146105625760405162461bcd60e51b815260206004820152600e60248201526d3737ba103cb7bab9103a37b5b2b760911b60448201526064015b60405180910390fd5b60008281526006602052604090205462ffffff16156105b45760405162461bcd60e51b815260206004820152600e60248201526d185b1c9958591e481cdd185ad95960921b6044820152606401610559565b600480546040516323b872dd60e01b81526101009091046001600160a01b0316916323b872dd916105eb9133913091889101611386565b600060405180830381600087803b15801561060557600080fd5b505af1158015610619573d6000803e3d6000fd5b505050507f36b3725f1783bad4ff05b7f4c077c3aa68eeb23a4d054ba189db4d01ac278d39338342604051610650939291906113c3565b60405180910390a1336000818152600260209081526040808320805460018101825590845282842001869055805160608101825262ffffff808816825265ffffffffffff42811683860190815283850197885289875260069095529290942090518154935195516001600160a01b0316600160481b02600160481b600160e81b0319969093166301000000026001600160481b0319909416941693909317919091179290921691909117905580610706816114ee565b915050610459565b50505050565b60006001600160a01b038516156107785760405162461bcd60e51b815260206004820152602260248201527f43616e6e6f742073656e64206e66747320746f205661756c74206469726563746044820152616c7960f01b6064820152608401610559565b50630a85bd0160e11b95945050505050565b610792610a15565b600355565b6107a43383836000610a74565b5050565b6107b0610a15565b6107ba6000610da4565b565b6107c461116d565b60008080805b858110156108d7578686828181106107f257634e487b7160e01b600052603260045260246000fd5b602090810292909201356000818152600684526040908190208151606081018352905462ffffff8116825265ffffffffffff6301000000820416958201959095526001600160a01b03600160481b909504851691810182905291975090928b161490506108715760405162461bcd60e51b81526004016105599061145a565b602081015165ffffffffffff166201518061088c82426114d7565b61089f9068056bc75e2d631000006114b8565b6108a99190611498565b93506108b6606485611498565b6108c09086611480565b9450505080806108cf906114ee565b9150506107ca565b5081156108f75760405180602001604052808381525093505050506108fb565b5050505b9392505050565b6001600160a01b03811660009081526002602090815260409182902080548351818402810184019094528084526060939283018282801561096257602002820191906000526020600020905b81548152602001906001019080831161094e575b50505050509050919050565b6000546001600160a01b031690565b61098a8383836000610a74565b505050565b6107a43383836001610a74565b6109a4610a15565b6001600160a01b038116610a095760405162461bcd60e51b815260206004820152602660248201527f4f776e61626c653a206e6577206f776e657220697320746865207a65726f206160448201526564647265737360d01b6064820152608401610559565b610a1281610da4565b50565b33610a1e61096e565b6001600160a01b0316146107ba5760405162461bcd60e51b815260206004820181905260248201527f4f776e61626c653a2063616c6c6572206973206e6f7420746865206f776e65726044820152606401610559565b60008080805b85811015610c4b57868682818110610aa257634e487b7160e01b600052603260045260246000fd5b602090810292909201356000818152600684526040908190208151606081018352905462ffffff8116825265ffffffffffff6301000000820416958201959095526001600160a01b03600160481b909504851691810182905291975090928b16149050610b215760405162461bcd60e51b81526004016105599061145a565b602081015165ffffffffffff1662015180610b3c82426114d7565b610b4f9068056bc75e2d631000006114b8565b610b599190611498565b9350610b66606485611498565b610b709086611480565b945060405180606001604052808762ffffff1681526020014265ffffffffffff1681526020018b6001600160a01b03168152506006600088815260200190815260200160002060008201518160000160006101000a81548162ffffff021916908362ffffff16021790555060208201518160000160036101000a81548165ffffffffffff021916908365ffffffffffff16021790555060408201518160000160096101000a8154816001600160a01b0302191690836001600160a01b0316021790555090505050508080610c43906114ee565b915050610a7a565b508115610d515760045460ff16610ccb576000670de0b6b3a764000060035484610c7591906114b8565b610c7f9190611498565b905060008111610c8e57600080fd5b6040516001600160a01b0389169082156108fc029083906000818181858888f19350505050158015610cc4573d6000803e3d6000fd5b5050610d51565b60055460405163a9059cbb60e01b81526001600160a01b039091169063a9059cbb90610cfd908a9086906004016113aa565b602060405180830381600087803b158015610d1757600080fd5b505af1158015610d2b573d6000803e3d6000fd5b505050506040513d601f19601f82011682018060405250810190610d4f9190611352565b505b8315610d6257610d62878787610df4565b7fd8138f8a3f377c5259ca548e70e4c2de94f129f5a11036a15b69513cba2b426a8783604051610d939291906113aa565b60405180910390a150505050505050565b600080546001600160a01b038381166001600160a01b0319831681178455604051919092169283917f8be0079c531659141344cd1fd0a4f28419497f9722a3daafe3b4186f6b6457e09190a35050565b60008060008484905060016000828254610e0e91906114d7565b90915550600090505b8481101561116457858582818110610e3f57634e487b7160e01b600052603260045260246000fd5b602090810292909201356000818152600684526040908190208151606081018352905462ffffff8116825265ffffffffffff6301000000820416958201959095526001600160a01b03600160481b909504851691810182905291975090928a16149050610ebe5760405162461bcd60e51b81526004016105599061145a565b6000858152600660205260409081902080546001600160e81b0319169055517fc486b9458a8637650d84d262414833a5a457bc91ae86b7da110386c8c3fa255b90610f0e908a90889042906113c3565b60405180910390a1600480546040516323b872dd60e01b81526101009091046001600160a01b0316916323b872dd91610f4d9130918d918b9101611386565b600060405180830381600087803b158015610f6757600080fd5b505af1158015610f7b573d6000803e3d6000fd5b5050506001600160a01b0389166000908152600260205260408120549095509350505b82841015611009576001600160a01b0388166000908152600260205260409020805486919086908110610fe157634e487b7160e01b600052603260045260246000fd5b90600052602060002001541415610ff757611009565b83611001816114ee565b945050610f9e565b6110146001846114d7565b8410156110b8576001600160a01b038816600090815260026020526040902061103e6001856114d7565b8154811061105c57634e487b7160e01b600052603260045260246000fd5b9060005260206000200154600260008a6001600160a01b03166001600160a01b0316815260200190815260200160002085815481106110ab57634e487b7160e01b600052603260045260246000fd5b6000918252602090912001555b6001600160a01b03881660009081526002602052604090206110db6001856114d7565b815481106110f957634e487b7160e01b600052603260045260246000fd5b600091825260208083209091018290556001600160a01b038a168252600290526040902080548061113a57634e487b7160e01b600052603160045260246000fd5b6001900381819060005260206000200160009055905550808061115c906114ee565b915050610e17565b50505050505050565b60405180602001604052806001906020820280368337509192915050565b60008083601f84011261119c578182fd5b5081356001600160401b038111156111b2578182fd5b6020830191508360208260051b85010111156111cd57600080fd5b9250929050565b6000602082840312156111e5578081fd5b81356108fb8161151f565b600060208284031215611201578081fd5b81516108fb8161151f565b600080600080600060808688031215611223578081fd5b853561122e8161151f565b9450602086013561123e8161151f565b93506040860135925060608601356001600160401b0380821115611260578283fd5b818801915088601f830112611273578283fd5b813581811115611281578384fd5b896020828501011115611292578384fd5b9699959850939650602001949392505050565b6000806000604084860312156112b9578283fd5b83356112c48161151f565b925060208401356001600160401b038111156112de578283fd5b6112ea8682870161118b565b9497909650939450505050565b60008060208385031215611309578182fd5b82356001600160401b0381111561131e578283fd5b61132a8582860161118b565b90969095509350505050565b600060208284031215611347578081fd5b81356108fb81611534565b600060208284031215611363578081fd5b81516108fb81611534565b60006020828403121561137f578081fd5b5035919050565b6001600160a01b039384168152919092166020820152604081019190915260600190565b6001600160a01b03929092168252602082015260400190565b6001600160a01b039390931683526020830191909152604082015260600190565b602081810190828460005b600181101561140c578151835291830191908301906001016113ef565b5050505092915050565b6020808252825182820181905260009190848201906040850190845b8181101561144e57835183529284019291840191600101611432565b50909695505050505050565b6020808252600c908201526b3737ba1030b71037bbb732b960a11b604082015260600190565b6000821982111561149357611493611509565b500190565b6000826114b357634e487b7160e01b81526012600452602481fd5b500490565b60008160001904831182151516156114d2576114d2611509565b500290565b6000828210156114e9576114e9611509565b500390565b600060001982141561150257611502611509565b5060010190565b634e487b7160e01b600052601160045260246000fd5b6001600160a01b0381168114610a1257600080fd5b8015158114610a1257600080fdfea26469706673582212205d32d43f4f20506c0522d87bfe3c1597f6064bd7c67f68a2252a635fd519cfca64736f6c63430008040033","opcodes":"PUSH1 0x80 PUSH1 0x40 MSTORE CALLVALUE DUP1 ISZERO PUSH3 0x11 JUMPI PUSH1 0x0 DUP1 REVERT JUMPDEST POP PUSH1 0x40 MLOAD PUSH3 0x16B1 CODESIZE SUB DUP1 PUSH3 0x16B1 DUP4 CODECOPY DUP2 ADD PUSH1 0x40 DUP2 SWAP1 MSTORE PUSH3 0x34 SWAP2 PUSH3 0xF2 JUMP JUMPDEST PUSH3 0x3F CALLER PUSH3 0x85 JUMP JUMPDEST PUSH1 0x4 DUP1 SLOAD PUSH2 0x100 PUSH1 0x1 PUSH1 0xA8 SHL SUB NOT AND PUSH2 0x100 PUSH1 0x1 PUSH1 0x1 PUSH1 0xA0 SHL SUB SWAP5 DUP6 AND MUL OR SWAP1 SSTORE PUSH1 0x5 DUP1 SLOAD PUSH1 0x1 PUSH1 0x1 PUSH1 0xA0 SHL SUB NOT AND SWAP2 SWAP1 SWAP3 AND OR SWAP1 SSTORE PUSH6 0x9184E72A000 PUSH1 0x3 SSTORE PUSH3 0x129 JUMP JUMPDEST PUSH1 0x0 DUP1 SLOAD PUSH1 0x1 PUSH1 0x1 PUSH1 0xA0 SHL SUB DUP4 DUP2 AND PUSH1 0x1 PUSH1 0x1 PUSH1 0xA0 SHL SUB NOT DUP4 AND DUP2 OR DUP5 SSTORE PUSH1 0x40 MLOAD SWAP2 SWAP1 SWAP3 AND SWAP3 DUP4 SWAP2 PUSH32 0x8BE0079C531659141344CD1FD0A4F28419497F9722A3DAAFE3B4186F6B6457E0 SWAP2 SWAP1 LOG3 POP POP JUMP JUMPDEST DUP1 MLOAD PUSH1 0x1 PUSH1 0x1 PUSH1 0xA0 SHL SUB DUP2 AND DUP2 EQ PUSH3 0xED JUMPI PUSH1 0x0 DUP1 REVERT JUMPDEST SWAP2 SWAP1 POP JUMP JUMPDEST PUSH1 0x0 DUP1 PUSH1 0x40 DUP4 DUP6 SUB SLT ISZERO PUSH3 0x105 JUMPI DUP2 DUP3 REVERT JUMPDEST PUSH3 0x110 DUP4 PUSH3 0xD5 JUMP JUMPDEST SWAP2 POP PUSH3 0x120 PUSH1 0x20 DUP5 ADD PUSH3 0xD5 JUMP JUMPDEST SWAP1 POP SWAP3 POP SWAP3 SWAP1 POP JUMP JUMPDEST PUSH2 0x1578 DUP1 PUSH3 0x139 PUSH1 0x0 CODECOPY PUSH1 0x0 RETURN INVALID PUSH1 0x80 PUSH1 0x40 MSTORE PUSH1 0x4 CALLDATASIZE LT PUSH2 0xD2 JUMPI PUSH1 0x0 CALLDATALOAD PUSH1 0xE0 SHR DUP1 PUSH4 0x94BE381 EQ PUSH2 0x143 JUMPI DUP1 PUSH4 0xFBF0A93 EQ PUSH2 0x165 JUMPI DUP1 PUSH4 0x150B7A02 EQ PUSH2 0x185 JUMPI DUP1 PUSH4 0x6A61E5FC EQ PUSH2 0x1C3 JUMPI DUP1 PUSH4 0x6BA4C138 EQ PUSH2 0x1E3 JUMPI DUP1 PUSH4 0x70A08231 EQ PUSH2 0x203 JUMPI DUP1 PUSH4 0x715018A6 EQ PUSH2 0x247 JUMPI DUP1 PUSH4 0x7E75DD60 EQ PUSH2 0x25C JUMPI DUP1 PUSH4 0x7FF9B596 EQ PUSH2 0x289 JUMPI DUP1 PUSH4 0x817B1CD2 EQ PUSH2 0x29F JUMPI DUP1 PUSH4 0x81A36FB6 EQ PUSH2 0x2B5 JUMPI DUP1 PUSH4 0x8462151C EQ PUSH2 0x33A JUMPI DUP1 PUSH4 0x8A55D36E EQ PUSH2 0x367 JUMPI DUP1 PUSH4 0x8DA5CB5B EQ PUSH2 0x391 JUMPI DUP1 PUSH4 0xC36BE357 EQ PUSH2 0x3BE JUMPI DUP1 PUSH4 0xE449F341 EQ PUSH2 0x3DE JUMPI DUP1 PUSH4 0xF2FDE38B EQ PUSH2 0x3FE JUMPI PUSH2 0x112 JUMP JUMPDEST CALLDATASIZE PUSH2 0x112 JUMPI PUSH32 0x88A5966D370B9919B20F3E2C13FF65706F196A4E32CC2C12BF57088F88525874 CALLER CALLVALUE PUSH1 0x40 MLOAD PUSH2 0x108 SWAP3 SWAP2 SWAP1 PUSH2 0x13AA JUMP JUMPDEST PUSH1 0x40 MLOAD DUP1 SWAP2 SUB SWAP1 LOG1 STOP JUMPDEST PUSH32 0xFBF15A1BAE5E021D024841007B692B167AFD2A281A4FF0B44F47387EB388205C CALLER CALLVALUE PUSH1 0x40 MLOAD PUSH2 0x108 SWAP3 SWAP2 SWAP1 PUSH2 0x13AA JUMP JUMPDEST CALLVALUE DUP1 ISZERO PUSH2 0x14F JUMPI PUSH1 0x0 DUP1 REVERT JUMPDEST POP PUSH2 0x163 PUSH2 0x15E CALLDATASIZE PUSH1 0x4 PUSH2 0x1336 JUMP JUMPDEST PUSH2 0x41E JUMP JUMPDEST STOP JUMPDEST CALLVALUE DUP1 ISZERO PUSH2 0x171 JUMPI PUSH1 0x0 DUP1 REVERT JUMPDEST POP PUSH2 0x163 PUSH2 0x180 CALLDATASIZE PUSH1 0x4 PUSH2 0x12F7 JUMP JUMPDEST PUSH2 0x439 JUMP JUMPDEST CALLVALUE DUP1 ISZERO PUSH2 0x191 JUMPI PUSH1 0x0 DUP1 REVERT JUMPDEST POP PUSH2 0x1A5 PUSH2 0x1A0 CALLDATASIZE PUSH1 0x4 PUSH2 0x120C JUMP JUMPDEST PUSH2 0x714 JUMP JUMPDEST PUSH1 0x40 MLOAD PUSH1 0x1 PUSH1 0x1 PUSH1 0xE0 SHL SUB NOT SWAP1 SWAP2 AND DUP2 MSTORE PUSH1 0x20 ADD JUMPDEST PUSH1 0x40 MLOAD DUP1 SWAP2 SUB SWAP1 RETURN JUMPDEST CALLVALUE DUP1 ISZERO PUSH2 0x1CF JUMPI PUSH1 0x0 DUP1 REVERT JUMPDEST POP PUSH2 0x163 PUSH2 0x1DE CALLDATASIZE PUSH1 0x4 PUSH2 0x136E JUMP JUMPDEST PUSH2 0x78A JUMP JUMPDEST CALLVALUE DUP1 ISZERO PUSH2 0x1EF JUMPI PUSH1 0x0 DUP1 REVERT JUMPDEST POP PUSH2 0x163 PUSH2 0x1FE CALLDATASIZE PUSH1 0x4 PUSH2 0x12F7 JUMP JUMPDEST PUSH2 0x797 JUMP JUMPDEST CALLVALUE DUP1 ISZERO PUSH2 0x20F JUMPI PUSH1 0x0 DUP1 REVERT JUMPDEST POP PUSH2 0x239 PUSH2 0x21E CALLDATASIZE PUSH1 0x4 PUSH2 0x11D4 JUMP JUMPDEST PUSH1 0x1 PUSH1 0x1 PUSH1 0xA0 SHL SUB AND PUSH1 0x0 SWAP1 DUP2 MSTORE PUSH1 0x2 PUSH1 0x20 MSTORE PUSH1 0x40 SWAP1 KECCAK256 SLOAD SWAP1 JUMP JUMPDEST PUSH1 0x40 MLOAD SWAP1 DUP2 MSTORE PUSH1 0x20 ADD PUSH2 0x1BA JUMP JUMPDEST CALLVALUE DUP1 ISZERO PUSH2 0x253 JUMPI PUSH1 0x0 DUP1 REVERT JUMPDEST POP PUSH2 0x163 PUSH2 0x7A8 JUMP JUMPDEST CALLVALUE DUP1 ISZERO PUSH2 0x268 JUMPI PUSH1 0x0 DUP1 REVERT JUMPDEST POP PUSH2 0x27C PUSH2 0x277 CALLDATASIZE PUSH1 0x4 PUSH2 0x12A5 JUMP JUMPDEST PUSH2 0x7BC JUMP JUMPDEST PUSH1 0x40 MLOAD PUSH2 0x1BA SWAP2 SWAP1 PUSH2 0x13E4 JUMP JUMPDEST CALLVALUE DUP1 ISZERO PUSH2 0x295 JUMPI PUSH1 0x0 DUP1 REVERT JUMPDEST POP PUSH2 0x239 PUSH1 0x3 SLOAD DUP2 JUMP JUMPDEST CALLVALUE DUP1 ISZERO PUSH2 0x2AB JUMPI PUSH1 0x0 DUP1 REVERT JUMPDEST POP PUSH2 0x239 PUSH1 0x1 SLOAD DUP2 JUMP JUMPDEST CALLVALUE DUP1 ISZERO PUSH2 0x2C1 JUMPI PUSH1 0x0 DUP1 REVERT JUMPDEST POP PUSH2 0x309 PUSH2 0x2D0 CALLDATASIZE PUSH1 0x4 PUSH2 0x136E JUMP JUMPDEST PUSH1 0x6 PUSH1 0x20 MSTORE PUSH1 0x0 SWAP1 DUP2 MSTORE PUSH1 0x40 SWAP1 KECCAK256 SLOAD PUSH3 0xFFFFFF DUP2 AND SWAP1 PUSH4 0x1000000 DUP2 DIV PUSH6 0xFFFFFFFFFFFF AND SWAP1 PUSH1 0x1 PUSH1 0x48 SHL SWAP1 DIV PUSH1 0x1 PUSH1 0x1 PUSH1 0xA0 SHL SUB AND DUP4 JUMP JUMPDEST PUSH1 0x40 DUP1 MLOAD PUSH3 0xFFFFFF SWAP1 SWAP5 AND DUP5 MSTORE PUSH6 0xFFFFFFFFFFFF SWAP1 SWAP3 AND PUSH1 0x20 DUP5 ADD MSTORE PUSH1 0x1 PUSH1 0x1 PUSH1 0xA0 SHL SUB AND SWAP1 DUP3 ADD MSTORE PUSH1 0x60 ADD PUSH2 0x1BA JUMP JUMPDEST CALLVALUE DUP1 ISZERO PUSH2 0x346 JUMPI PUSH1 0x0 DUP1 REVERT JUMPDEST POP PUSH2 0x35A PUSH2 0x355 CALLDATASIZE PUSH1 0x4 PUSH2 0x11D4 JUMP JUMPDEST PUSH2 0x902 JUMP JUMPDEST PUSH1 0x40 MLOAD PUSH2 0x1BA SWAP2 SWAP1 PUSH2 0x1416 JUMP JUMPDEST CALLVALUE DUP1 ISZERO PUSH2 0x373 JUMPI PUSH1 0x0 DUP1 REVERT JUMPDEST POP PUSH1 0x4 SLOAD PUSH2 0x381 SWAP1 PUSH1 0xFF AND DUP2 JUMP JUMPDEST PUSH1 0x40 MLOAD SWAP1 ISZERO ISZERO DUP2 MSTORE PUSH1 0x20 ADD PUSH2 0x1BA JUMP JUMPDEST CALLVALUE DUP1 ISZERO PUSH2 0x39D JUMPI PUSH1 0x0 DUP1 REVERT JUMPDEST POP PUSH2 0x3A6 PUSH2 0x96E JUMP JUMPDEST PUSH1 0x40 MLOAD PUSH1 0x1 PUSH1 0x1 PUSH1 0xA0 SHL SUB SWAP1 SWAP2 AND DUP2 MSTORE PUSH1 0x20 ADD PUSH2 0x1BA JUMP JUMPDEST CALLVALUE DUP1 ISZERO PUSH2 0x3CA JUMPI PUSH1 0x0 DUP1 REVERT JUMPDEST POP PUSH2 0x163 PUSH2 0x3D9 CALLDATASIZE PUSH1 0x4 PUSH2 0x12A5 JUMP JUMPDEST PUSH2 0x97D JUMP JUMPDEST CALLVALUE DUP1 ISZERO PUSH2 0x3EA JUMPI PUSH1 0x0 DUP1 REVERT JUMPDEST POP PUSH2 0x163 PUSH2 0x3F9 CALLDATASIZE PUSH1 0x4 PUSH2 0x12F7 JUMP JUMPDEST PUSH2 0x98F JUMP JUMPDEST CALLVALUE DUP1 ISZERO PUSH2 0x40A JUMPI PUSH1 0x0 DUP1 REVERT JUMPDEST POP PUSH2 0x163 PUSH2 0x419 CALLDATASIZE PUSH1 0x4 PUSH2 0x11D4 JUMP JUMPDEST PUSH2 0x99C JUMP JUMPDEST PUSH2 0x426 PUSH2 0xA15 JUMP JUMPDEST PUSH1 0x4 DUP1 SLOAD PUSH1 0xFF NOT AND SWAP2 ISZERO ISZERO SWAP2 SWAP1 SWAP2 OR SWAP1 SSTORE JUMP JUMPDEST PUSH1 0x0 DUP3 DUP3 SWAP1 POP PUSH1 0x1 PUSH1 0x0 DUP3 DUP3 SLOAD PUSH2 0x450 SWAP2 SWAP1 PUSH2 0x1480 JUMP JUMPDEST SWAP1 SWAP2 SSTORE POP PUSH1 0x0 SWAP1 POP JUMPDEST DUP3 DUP2 LT ISZERO PUSH2 0x70E JUMPI DUP4 DUP4 DUP3 DUP2 DUP2 LT PUSH2 0x481 JUMPI PUSH4 0x4E487B71 PUSH1 0xE0 SHL PUSH1 0x0 MSTORE PUSH1 0x32 PUSH1 0x4 MSTORE PUSH1 0x24 PUSH1 0x0 REVERT JUMPDEST PUSH1 0x4 DUP1 SLOAD PUSH1 0x40 MLOAD PUSH4 0x31A9108F PUSH1 0xE1 SHL DUP2 MSTORE PUSH1 0x20 SWAP1 SWAP4 MUL SWAP5 SWAP1 SWAP5 ADD CALLDATALOAD SWAP6 POP CALLER SWAP4 PUSH2 0x100 SWAP1 DIV PUSH1 0x1 PUSH1 0x1 PUSH1 0xA0 SHL SUB AND SWAP3 POP PUSH4 0x6352211E SWAP2 PUSH2 0x4C6 SWAP2 DUP8 SWAP2 ADD SWAP1 DUP2 MSTORE PUSH1 0x20 ADD SWAP1 JUMP JUMPDEST PUSH1 0x20 PUSH1 0x40 MLOAD DUP1 DUP4 SUB DUP2 DUP7 DUP1 EXTCODESIZE ISZERO DUP1 ISZERO PUSH2 0x4DE JUMPI PUSH1 0x0 DUP1 REVERT JUMPDEST POP GAS STATICCALL ISZERO DUP1 ISZERO PUSH2 0x4F2 JUMPI RETURNDATASIZE PUSH1 0x0 DUP1 RETURNDATACOPY RETURNDATASIZE PUSH1 0x0 REVERT JUMPDEST POP POP POP POP PUSH1 0x40 MLOAD RETURNDATASIZE PUSH1 0x1F NOT PUSH1 0x1F DUP3 ADD AND DUP3 ADD DUP1 PUSH1 0x40 MSTORE POP DUP2 ADD SWAP1 PUSH2 0x516 SWAP2 SWAP1 PUSH2 0x11F0 JUMP JUMPDEST PUSH1 0x1 PUSH1 0x1 PUSH1 0xA0 SHL SUB AND EQ PUSH2 0x562 JUMPI PUSH1 0x40 MLOAD PUSH3 0x461BCD PUSH1 0xE5 SHL DUP2 MSTORE PUSH1 0x20 PUSH1 0x4 DUP3 ADD MSTORE PUSH1 0xE PUSH1 0x24 DUP3 ADD MSTORE PUSH14 0x3737BA103CB7BAB9103A37B5B2B7 PUSH1 0x91 SHL PUSH1 0x44 DUP3 ADD MSTORE PUSH1 0x64 ADD JUMPDEST PUSH1 0x40 MLOAD DUP1 SWAP2 SUB SWAP1 REVERT JUMPDEST PUSH1 0x0 DUP3 DUP2 MSTORE PUSH1 0x6 PUSH1 0x20 MSTORE PUSH1 0x40 SWAP1 KECCAK256 SLOAD PUSH3 0xFFFFFF AND ISZERO PUSH2 0x5B4 JUMPI PUSH1 0x40 MLOAD PUSH3 0x461BCD PUSH1 0xE5 SHL DUP2 MSTORE PUSH1 0x20 PUSH1 0x4 DUP3 ADD MSTORE PUSH1 0xE PUSH1 0x24 DUP3 ADD MSTORE PUSH14 0x185B1C9958591E481CDD185AD959 PUSH1 0x92 SHL PUSH1 0x44 DUP3 ADD MSTORE PUSH1 0x64 ADD PUSH2 0x559 JUMP JUMPDEST PUSH1 0x4 DUP1 SLOAD PUSH1 0x40 MLOAD PUSH4 0x23B872DD PUSH1 0xE0 SHL DUP2 MSTORE PUSH2 0x100 SWAP1 SWAP2 DIV PUSH1 0x1 PUSH1 0x1 PUSH1 0xA0 SHL SUB AND SWAP2 PUSH4 0x23B872DD SWAP2 PUSH2 0x5EB SWAP2 CALLER SWAP2 ADDRESS SWAP2 DUP9 SWAP2 ADD PUSH2 0x1386 JUMP JUMPDEST PUSH1 0x0 PUSH1 0x40 MLOAD DUP1 DUP4 SUB DUP2 PUSH1 0x0 DUP8 DUP1 EXTCODESIZE ISZERO DUP1 ISZERO PUSH2 0x605 JUMPI PUSH1 0x0 DUP1 REVERT JUMPDEST POP GAS CALL ISZERO DUP1 ISZERO PUSH2 0x619 JUMPI RETURNDATASIZE PUSH1 0x0 DUP1 RETURNDATACOPY RETURNDATASIZE PUSH1 0x0 REVERT JUMPDEST POP POP POP POP PUSH32 0x36B3725F1783BAD4FF05B7F4C077C3AA68EEB23A4D054BA189DB4D01AC278D39 CALLER DUP4 TIMESTAMP PUSH1 0x40 MLOAD PUSH2 0x650 SWAP4 SWAP3 SWAP2 SWAP1 PUSH2 0x13C3 JUMP JUMPDEST PUSH1 0x40 MLOAD DUP1 SWAP2 SUB SWAP1 LOG1 CALLER PUSH1 0x0 DUP2 DUP2 MSTORE PUSH1 0x2 PUSH1 0x20 SWAP1 DUP2 MSTORE PUSH1 0x40 DUP1 DUP4 KECCAK256 DUP1 SLOAD PUSH1 0x1 DUP2 ADD DUP3 SSTORE SWAP1 DUP5 MSTORE DUP3 DUP5 KECCAK256 ADD DUP7 SWAP1 SSTORE DUP1 MLOAD PUSH1 0x60 DUP2 ADD DUP3 MSTORE PUSH3 0xFFFFFF DUP1 DUP9 AND DUP3 MSTORE PUSH6 0xFFFFFFFFFFFF TIMESTAMP DUP2 AND DUP4 DUP7 ADD SWAP1 DUP2 MSTORE DUP4 DUP6 ADD SWAP8 DUP9 MSTORE DUP10 DUP8 MSTORE PUSH1 0x6 SWAP1 SWAP6 MSTORE SWAP3 SWAP1 SWAP5 KECCAK256 SWAP1 MLOAD DUP2 SLOAD SWAP4 MLOAD SWAP6 MLOAD PUSH1 0x1 PUSH1 0x1 PUSH1 0xA0 SHL SUB AND PUSH1 0x1 PUSH1 0x48 SHL MUL PUSH1 0x1 PUSH1 0x48 SHL PUSH1 0x1 PUSH1 0xE8 SHL SUB NOT SWAP7 SWAP1 SWAP4 AND PUSH4 0x1000000 MUL PUSH1 0x1 PUSH1 0x1 PUSH1 0x48 SHL SUB NOT SWAP1 SWAP5 AND SWAP5 AND SWAP4 SWAP1 SWAP4 OR SWAP2 SWAP1 SWAP2 OR SWAP3 SWAP1 SWAP3 AND SWAP2 SWAP1 SWAP2 OR SWAP1 SSTORE DUP1 PUSH2 0x706 DUP2 PUSH2 0x14EE JUMP JUMPDEST SWAP2 POP POP PUSH2 0x459 JUMP JUMPDEST POP POP POP POP JUMP JUMPDEST PUSH1 0x0 PUSH1 0x1 PUSH1 0x1 PUSH1 0xA0 SHL SUB DUP6 AND ISZERO PUSH2 0x778 JUMPI PUSH1 0x40 MLOAD PUSH3 0x461BCD PUSH1 0xE5 SHL DUP2 MSTORE PUSH1 0x20 PUSH1 0x4 DUP3 ADD MSTORE PUSH1 0x22 PUSH1 0x24 DUP3 ADD MSTORE PUSH32 0x43616E6E6F742073656E64206E66747320746F205661756C7420646972656374 PUSH1 0x44 DUP3 ADD MSTORE PUSH2 0x6C79 PUSH1 0xF0 SHL PUSH1 0x64 DUP3 ADD MSTORE PUSH1 0x84 ADD PUSH2 0x559 JUMP JUMPDEST POP PUSH4 0xA85BD01 PUSH1 0xE1 SHL SWAP6 SWAP5 POP POP POP POP POP JUMP JUMPDEST PUSH2 0x792 PUSH2 0xA15 JUMP JUMPDEST PUSH1 0x3 SSTORE JUMP JUMPDEST PUSH2 0x7A4 CALLER DUP4 DUP4 PUSH1 0x0 PUSH2 0xA74 JUMP JUMPDEST POP POP JUMP JUMPDEST PUSH2 0x7B0 PUSH2 0xA15 JUMP JUMPDEST PUSH2 0x7BA PUSH1 0x0 PUSH2 0xDA4 JUMP JUMPDEST JUMP JUMPDEST PUSH2 0x7C4 PUSH2 0x116D JUMP JUMPDEST PUSH1 0x0 DUP1 DUP1 DUP1 JUMPDEST DUP6 DUP2 LT ISZERO PUSH2 0x8D7 JUMPI DUP7 DUP7 DUP3 DUP2 DUP2 LT PUSH2 0x7F2 JUMPI PUSH4 0x4E487B71 PUSH1 0xE0 SHL PUSH1 0x0 MSTORE PUSH1 0x32 PUSH1 0x4 MSTORE PUSH1 0x24 PUSH1 0x0 REVERT JUMPDEST PUSH1 0x20 SWAP1 DUP2 MUL SWAP3 SWAP1 SWAP3 ADD CALLDATALOAD PUSH1 0x0 DUP2 DUP2 MSTORE PUSH1 0x6 DUP5 MSTORE PUSH1 0x40 SWAP1 DUP2 SWAP1 KECCAK256 DUP2 MLOAD PUSH1 0x60 DUP2 ADD DUP4 MSTORE SWAP1 SLOAD PUSH3 0xFFFFFF DUP2 AND DUP3 MSTORE PUSH6 0xFFFFFFFFFFFF PUSH4 0x1000000 DUP3 DIV AND SWAP6 DUP3 ADD SWAP6 SWAP1 SWAP6 MSTORE PUSH1 0x1 PUSH1 0x1 PUSH1 0xA0 SHL SUB PUSH1 0x1 PUSH1 0x48 SHL SWAP1 SWAP6 DIV DUP6 AND SWAP2 DUP2 ADD DUP3 SWAP1 MSTORE SWAP2 SWAP8 POP SWAP1 SWAP3 DUP12 AND EQ SWAP1 POP PUSH2 0x871 JUMPI PUSH1 0x40 MLOAD PUSH3 0x461BCD PUSH1 0xE5 SHL DUP2 MSTORE PUSH1 0x4 ADD PUSH2 0x559 SWAP1 PUSH2 0x145A JUMP JUMPDEST PUSH1 0x20 DUP2 ADD MLOAD PUSH6 0xFFFFFFFFFFFF AND PUSH3 0x15180 PUSH2 0x88C DUP3 TIMESTAMP PUSH2 0x14D7 JUMP JUMPDEST PUSH2 0x89F SWAP1 PUSH9 0x56BC75E2D63100000 PUSH2 0x14B8 JUMP JUMPDEST PUSH2 0x8A9 SWAP2 SWAP1 PUSH2 0x1498 JUMP JUMPDEST SWAP4 POP PUSH2 0x8B6 PUSH1 0x64 DUP6 PUSH2 0x1498 JUMP JUMPDEST PUSH2 0x8C0 SWAP1 DUP7 PUSH2 0x1480 JUMP JUMPDEST SWAP5 POP POP POP DUP1 DUP1 PUSH2 0x8CF SWAP1 PUSH2 0x14EE JUMP JUMPDEST SWAP2 POP POP PUSH2 0x7CA JUMP JUMPDEST POP DUP2 ISZERO PUSH2 0x8F7 JUMPI PUSH1 0x40 MLOAD DUP1 PUSH1 0x20 ADD PUSH1 0x40 MSTORE DUP1 DUP4 DUP2 MSTORE POP SWAP4 POP POP POP POP PUSH2 0x8FB JUMP JUMPDEST POP POP POP JUMPDEST SWAP4 SWAP3 POP POP POP JUMP JUMPDEST PUSH1 0x1 PUSH1 0x1 PUSH1 0xA0 SHL SUB DUP2 AND PUSH1 0x0 SWAP1 DUP2 MSTORE PUSH1 0x2 PUSH1 0x20 SWAP1 DUP2 MSTORE PUSH1 0x40 SWAP2 DUP3 SWAP1 KECCAK256 DUP1 SLOAD DUP4 MLOAD DUP2 DUP5 MUL DUP2 ADD DUP5 ADD SWAP1 SWAP5 MSTORE DUP1 DUP5 MSTORE PUSH1 0x60 SWAP4 SWAP3 DUP4 ADD DUP3 DUP3 DUP1 ISZERO PUSH2 0x962 JUMPI PUSH1 0x20 MUL DUP3 ADD SWAP2 SWAP1 PUSH1 0x0 MSTORE PUSH1 0x20 PUSH1 0x0 KECCAK256 SWAP1 JUMPDEST DUP2 SLOAD DUP2 MSTORE PUSH1 0x20 ADD SWAP1 PUSH1 0x1 ADD SWAP1 DUP1 DUP4 GT PUSH2 0x94E JUMPI JUMPDEST POP POP POP POP POP SWAP1 POP SWAP2 SWAP1 POP JUMP JUMPDEST PUSH1 0x0 SLOAD PUSH1 0x1 PUSH1 0x1 PUSH1 0xA0 SHL SUB AND SWAP1 JUMP JUMPDEST PUSH2 0x98A DUP4 DUP4 DUP4 PUSH1 0x0 PUSH2 0xA74 JUMP JUMPDEST POP POP POP JUMP JUMPDEST PUSH2 0x7A4 CALLER DUP4 DUP4 PUSH1 0x1 PUSH2 0xA74 JUMP JUMPDEST PUSH2 0x9A4 PUSH2 0xA15 JUMP JUMPDEST PUSH1 0x1 PUSH1 0x1 PUSH1 0xA0 SHL SUB DUP2 AND PUSH2 0xA09 JUMPI PUSH1 0x40 MLOAD PUSH3 0x461BCD PUSH1 0xE5 SHL DUP2 MSTORE PUSH1 0x20 PUSH1 0x4 DUP3 ADD MSTORE PUSH1 0x26 PUSH1 0x24 DUP3 ADD MSTORE PUSH32 0x4F776E61626C653A206E6577206F776E657220697320746865207A65726F2061 PUSH1 0x44 DUP3 ADD MSTORE PUSH6 0x646472657373 PUSH1 0xD0 SHL PUSH1 0x64 DUP3 ADD MSTORE PUSH1 0x84 ADD PUSH2 0x559 JUMP JUMPDEST PUSH2 0xA12 DUP2 PUSH2 0xDA4 JUMP JUMPDEST POP JUMP JUMPDEST CALLER PUSH2 0xA1E PUSH2 0x96E JUMP JUMPDEST PUSH1 0x1 PUSH1 0x1 PUSH1 0xA0 SHL SUB AND EQ PUSH2 0x7BA JUMPI PUSH1 0x40 MLOAD PUSH3 0x461BCD PUSH1 0xE5 SHL DUP2 MSTORE PUSH1 0x20 PUSH1 0x4 DUP3 ADD DUP2 SWAP1 MSTORE PUSH1 0x24 DUP3 ADD MSTORE PUSH32 0x4F776E61626C653A2063616C6C6572206973206E6F7420746865206F776E6572 PUSH1 0x44 DUP3 ADD MSTORE PUSH1 0x64 ADD PUSH2 0x559 JUMP JUMPDEST PUSH1 0x0 DUP1 DUP1 DUP1 JUMPDEST DUP6 DUP2 LT ISZERO PUSH2 0xC4B JUMPI DUP7 DUP7 DUP3 DUP2 DUP2 LT PUSH2 0xAA2 JUMPI PUSH4 0x4E487B71 PUSH1 0xE0 SHL PUSH1 0x0 MSTORE PUSH1 0x32 PUSH1 0x4 MSTORE PUSH1 0x24 PUSH1 0x0 REVERT JUMPDEST PUSH1 0x20 SWAP1 DUP2 MUL SWAP3 SWAP1 SWAP3 ADD CALLDATALOAD PUSH1 0x0 DUP2 DUP2 MSTORE PUSH1 0x6 DUP5 MSTORE PUSH1 0x40 SWAP1 DUP2 SWAP1 KECCAK256 DUP2 MLOAD PUSH1 0x60 DUP2 ADD DUP4 MSTORE SWAP1 SLOAD PUSH3 0xFFFFFF DUP2 AND DUP3 MSTORE PUSH6 0xFFFFFFFFFFFF PUSH4 0x1000000 DUP3 DIV AND SWAP6 DUP3 ADD SWAP6 SWAP1 SWAP6 MSTORE PUSH1 0x1 PUSH1 0x1 PUSH1 0xA0 SHL SUB PUSH1 0x1 PUSH1 0x48 SHL SWAP1 SWAP6 DIV DUP6 AND SWAP2 DUP2 ADD DUP3 SWAP1 MSTORE SWAP2 SWAP8 POP SWAP1 SWAP3 DUP12 AND EQ SWAP1 POP PUSH2 0xB21 JUMPI PUSH1 0x40 MLOAD PUSH3 0x461BCD PUSH1 0xE5 SHL DUP2 MSTORE PUSH1 0x4 ADD PUSH2 0x559 SWAP1 PUSH2 0x145A JUMP JUMPDEST PUSH1 0x20 DUP2 ADD MLOAD PUSH6 0xFFFFFFFFFFFF AND PUSH3 0x15180 PUSH2 0xB3C DUP3 TIMESTAMP PUSH2 0x14D7 JUMP JUMPDEST PUSH2 0xB4F SWAP1 PUSH9 0x56BC75E2D63100000 PUSH2 0x14B8 JUMP JUMPDEST PUSH2 0xB59 SWAP2 SWAP1 PUSH2 0x1498 JUMP JUMPDEST SWAP4 POP PUSH2 0xB66 PUSH1 0x64 DUP6 PUSH2 0x1498 JUMP JUMPDEST PUSH2 0xB70 SWAP1 DUP7 PUSH2 0x1480 JUMP JUMPDEST SWAP5 POP PUSH1 0x40 MLOAD DUP1 PUSH1 0x60 ADD PUSH1 0x40 MSTORE DUP1 DUP8 PUSH3 0xFFFFFF AND DUP2 MSTORE PUSH1 0x20 ADD TIMESTAMP PUSH6 0xFFFFFFFFFFFF AND DUP2 MSTORE PUSH1 0x20 ADD DUP12 PUSH1 0x1 PUSH1 0x1 PUSH1 0xA0 SHL SUB AND DUP2 MSTORE POP PUSH1 0x6 PUSH1 0x0 DUP9 DUP2 MSTORE PUSH1 0x20 ADD SWAP1 DUP2 MSTORE PUSH1 0x20 ADD PUSH1 0x0 KECCAK256 PUSH1 0x0 DUP3 ADD MLOAD DUP2 PUSH1 0x0 ADD PUSH1 0x0 PUSH2 0x100 EXP DUP2 SLOAD DUP2 PUSH3 0xFFFFFF MUL NOT AND SWAP1 DUP4 PUSH3 0xFFFFFF AND MUL OR SWAP1 SSTORE POP PUSH1 0x20 DUP3 ADD MLOAD DUP2 PUSH1 0x0 ADD PUSH1 0x3 PUSH2 0x100 EXP DUP2 SLOAD DUP2 PUSH6 0xFFFFFFFFFFFF MUL NOT AND SWAP1 DUP4 PUSH6 0xFFFFFFFFFFFF AND MUL OR SWAP1 SSTORE POP PUSH1 0x40 DUP3 ADD MLOAD DUP2 PUSH1 0x0 ADD PUSH1 0x9 PUSH2 0x100 EXP DUP2 SLOAD DUP2 PUSH1 0x1 PUSH1 0x1 PUSH1 0xA0 SHL SUB MUL NOT AND SWAP1 DUP4 PUSH1 0x1 PUSH1 0x1 PUSH1 0xA0 SHL SUB AND MUL OR SWAP1 SSTORE POP SWAP1 POP POP POP POP DUP1 DUP1 PUSH2 0xC43 SWAP1 PUSH2 0x14EE JUMP JUMPDEST SWAP2 POP POP PUSH2 0xA7A JUMP JUMPDEST POP DUP2 ISZERO PUSH2 0xD51 JUMPI PUSH1 0x4 SLOAD PUSH1 0xFF AND PUSH2 0xCCB JUMPI PUSH1 0x0 PUSH8 0xDE0B6B3A7640000 PUSH1 0x3 SLOAD DUP5 PUSH2 0xC75 SWAP2 SWAP1 PUSH2 0x14B8 JUMP JUMPDEST PUSH2 0xC7F SWAP2 SWAP1 PUSH2 0x1498 JUMP JUMPDEST SWAP1 POP PUSH1 0x0 DUP2 GT PUSH2 0xC8E JUMPI PUSH1 0x0 DUP1 REVERT JUMPDEST PUSH1 0x40 MLOAD PUSH1 0x1 PUSH1 0x1 PUSH1 0xA0 SHL SUB DUP10 AND SWAP1 DUP3 ISZERO PUSH2 0x8FC MUL SWAP1 DUP4 SWAP1 PUSH1 0x0 DUP2 DUP2 DUP2 DUP6 DUP9 DUP9 CALL SWAP4 POP POP POP POP ISZERO DUP1 ISZERO PUSH2 0xCC4 JUMPI RETURNDATASIZE PUSH1 0x0 DUP1 RETURNDATACOPY RETURNDATASIZE PUSH1 0x0 REVERT JUMPDEST POP POP PUSH2 0xD51 JUMP JUMPDEST PUSH1 0x5 SLOAD PUSH1 0x40 MLOAD PUSH4 0xA9059CBB PUSH1 0xE0 SHL DUP2 MSTORE PUSH1 0x1 PUSH1 0x1 PUSH1 0xA0 SHL SUB SWAP1 SWAP2 AND SWAP1 PUSH4 0xA9059CBB SWAP1 PUSH2 0xCFD SWAP1 DUP11 SWAP1 DUP7 SWAP1 PUSH1 0x4 ADD PUSH2 0x13AA JUMP JUMPDEST PUSH1 0x20 PUSH1 0x40 MLOAD DUP1 DUP4 SUB DUP2 PUSH1 0x0 DUP8 DUP1 EXTCODESIZE ISZERO DUP1 ISZERO PUSH2 0xD17 JUMPI PUSH1 0x0 DUP1 REVERT JUMPDEST POP GAS CALL ISZERO DUP1 ISZERO PUSH2 0xD2B JUMPI RETURNDATASIZE PUSH1 0x0 DUP1 RETURNDATACOPY RETURNDATASIZE PUSH1 0x0 REVERT JUMPDEST POP POP POP POP PUSH1 0x40 MLOAD RETURNDATASIZE PUSH1 0x1F NOT PUSH1 0x1F DUP3 ADD AND DUP3 ADD DUP1 PUSH1 0x40 MSTORE POP DUP2 ADD SWAP1 PUSH2 0xD4F SWAP2 SWAP1 PUSH2 0x1352 JUMP JUMPDEST POP JUMPDEST DUP4 ISZERO PUSH2 0xD62 JUMPI PUSH2 0xD62 DUP8 DUP8 DUP8 PUSH2 0xDF4 JUMP JUMPDEST PUSH32 0xD8138F8A3F377C5259CA548E70E4C2DE94F129F5A11036A15B69513CBA2B426A DUP8 DUP4 PUSH1 0x40 MLOAD PUSH2 0xD93 SWAP3 SWAP2 SWAP1 PUSH2 0x13AA JUMP JUMPDEST PUSH1 0x40 MLOAD DUP1 SWAP2 SUB SWAP1 LOG1 POP POP POP POP POP POP POP JUMP JUMPDEST PUSH1 0x0 DUP1 SLOAD PUSH1 0x1 PUSH1 0x1 PUSH1 0xA0 SHL SUB DUP4 DUP2 AND PUSH1 0x1 PUSH1 0x1 PUSH1 0xA0 SHL SUB NOT DUP4 AND DUP2 OR DUP5 SSTORE PUSH1 0x40 MLOAD SWAP2 SWAP1 SWAP3 AND SWAP3 DUP4 SWAP2 PUSH32 0x8BE0079C531659141344CD1FD0A4F28419497F9722A3DAAFE3B4186F6B6457E0 SWAP2 SWAP1 LOG3 POP POP JUMP JUMPDEST PUSH1 0x0 DUP1 PUSH1 0x0 DUP5 DUP5 SWAP1 POP PUSH1 0x1 PUSH1 0x0 DUP3 DUP3 SLOAD PUSH2 0xE0E SWAP2 SWAP1 PUSH2 0x14D7 JUMP JUMPDEST SWAP1 SWAP2 SSTORE POP PUSH1 0x0 SWAP1 POP JUMPDEST DUP5 DUP2 LT ISZERO PUSH2 0x1164 JUMPI DUP6 DUP6 DUP3 DUP2 DUP2 LT PUSH2 0xE3F JUMPI PUSH4 0x4E487B71 PUSH1 0xE0 SHL PUSH1 0x0 MSTORE PUSH1 0x32 PUSH1 0x4 MSTORE PUSH1 0x24 PUSH1 0x0 REVERT JUMPDEST PUSH1 0x20 SWAP1 DUP2 MUL SWAP3 SWAP1 SWAP3 ADD CALLDATALOAD PUSH1 0x0 DUP2 DUP2 MSTORE PUSH1 0x6 DUP5 MSTORE PUSH1 0x40 SWAP1 DUP2 SWAP1 KECCAK256 DUP2 MLOAD PUSH1 0x60 DUP2 ADD DUP4 MSTORE SWAP1 SLOAD PUSH3 0xFFFFFF DUP2 AND DUP3 MSTORE PUSH6 0xFFFFFFFFFFFF PUSH4 0x1000000 DUP3 DIV AND SWAP6 DUP3 ADD SWAP6 SWAP1 SWAP6 MSTORE PUSH1 0x1 PUSH1 0x1 PUSH1 0xA0 SHL SUB PUSH1 0x1 PUSH1 0x48 SHL SWAP1 SWAP6 DIV DUP6 AND SWAP2 DUP2 ADD DUP3 SWAP1 MSTORE SWAP2 SWAP8 POP SWAP1 SWAP3 DUP11 AND EQ SWAP1 POP PUSH2 0xEBE JUMPI PUSH1 0x40 MLOAD PUSH3 0x461BCD PUSH1 0xE5 SHL DUP2 MSTORE PUSH1 0x4 ADD PUSH2 0x559 SWAP1 PUSH2 0x145A JUMP JUMPDEST PUSH1 0x0 DUP6 DUP2 MSTORE PUSH1 0x6 PUSH1 0x20 MSTORE PUSH1 0x40 SWAP1 DUP2 SWAP1 KECCAK256 DUP1 SLOAD PUSH1 0x1 PUSH1 0x1 PUSH1 0xE8 SHL SUB NOT AND SWAP1 SSTORE MLOAD PUSH32 0xC486B9458A8637650D84D262414833A5A457BC91AE86B7DA110386C8C3FA255B SWAP1 PUSH2 0xF0E SWAP1 DUP11 SWAP1 DUP9 SWAP1 TIMESTAMP SWAP1 PUSH2 0x13C3 JUMP JUMPDEST PUSH1 0x40 MLOAD DUP1 SWAP2 SUB SWAP1 LOG1 PUSH1 0x4 DUP1 SLOAD PUSH1 0x40 MLOAD PUSH4 0x23B872DD PUSH1 0xE0 SHL DUP2 MSTORE PUSH2 0x100 SWAP1 SWAP2 DIV PUSH1 0x1 PUSH1 0x1 PUSH1 0xA0 SHL SUB AND SWAP2 PUSH4 0x23B872DD SWAP2 PUSH2 0xF4D SWAP2 ADDRESS SWAP2 DUP14 SWAP2 DUP12 SWAP2 ADD PUSH2 0x1386 JUMP JUMPDEST PUSH1 0x0 PUSH1 0x40 MLOAD DUP1 DUP4 SUB DUP2 PUSH1 0x0 DUP8 DUP1 EXTCODESIZE ISZERO DUP1 ISZERO PUSH2 0xF67 JUMPI PUSH1 0x0 DUP1 REVERT JUMPDEST POP GAS CALL ISZERO DUP1 ISZERO PUSH2 0xF7B JUMPI RETURNDATASIZE PUSH1 0x0 DUP1 RETURNDATACOPY RETURNDATASIZE PUSH1 0x0 REVERT JUMPDEST POP POP POP PUSH1 0x1 PUSH1 0x1 PUSH1 0xA0 SHL SUB DUP10 AND PUSH1 0x0 SWAP1 DUP2 MSTORE PUSH1 0x2 PUSH1 0x20 MSTORE PUSH1 0x40 DUP2 KECCAK256 SLOAD SWAP1 SWAP6 POP SWAP4 POP POP JUMPDEST DUP3 DUP5 LT ISZERO PUSH2 0x1009 JUMPI PUSH1 0x1 PUSH1 0x1 PUSH1 0xA0 SHL SUB DUP9 AND PUSH1 0x0 SWAP1 DUP2 MSTORE PUSH1 0x2 PUSH1 0x20 MSTORE PUSH1 0x40 SWAP1 KECCAK256 DUP1 SLOAD DUP7 SWAP2 SWAP1 DUP7 SWAP1 DUP2 LT PUSH2 0xFE1 JUMPI PUSH4 0x4E487B71 PUSH1 0xE0 SHL PUSH1 0x0 MSTORE PUSH1 0x32 PUSH1 0x4 MSTORE PUSH1 0x24 PUSH1 0x0 REVERT JUMPDEST SWAP1 PUSH1 0x0 MSTORE PUSH1 0x20 PUSH1 0x0 KECCAK256 ADD SLOAD EQ ISZERO PUSH2 0xFF7 JUMPI PUSH2 0x1009 JUMP JUMPDEST DUP4 PUSH2 0x1001 DUP2 PUSH2 0x14EE JUMP JUMPDEST SWAP5 POP POP PUSH2 0xF9E JUMP JUMPDEST PUSH2 0x1014 PUSH1 0x1 DUP5 PUSH2 0x14D7 JUMP JUMPDEST DUP5 LT ISZERO PUSH2 0x10B8 JUMPI PUSH1 0x1 PUSH1 0x1 PUSH1 0xA0 SHL SUB DUP9 AND PUSH1 0x0 SWAP1 DUP2 MSTORE PUSH1 0x2 PUSH1 0x20 MSTORE PUSH1 0x40 SWAP1 KECCAK256 PUSH2 0x103E PUSH1 0x1 DUP6 PUSH2 0x14D7 JUMP JUMPDEST DUP2 SLOAD DUP2 LT PUSH2 0x105C JUMPI PUSH4 0x4E487B71 PUSH1 0xE0 SHL PUSH1 0x0 MSTORE PUSH1 0x32 PUSH1 0x4 MSTORE PUSH1 0x24 PUSH1 0x0 REVERT JUMPDEST SWAP1 PUSH1 0x0 MSTORE PUSH1 0x20 PUSH1 0x0 KECCAK256 ADD SLOAD PUSH1 0x2 PUSH1 0x0 DUP11 PUSH1 0x1 PUSH1 0x1 PUSH1 0xA0 SHL SUB AND PUSH1 0x1 PUSH1 0x1 PUSH1 0xA0 SHL SUB AND DUP2 MSTORE PUSH1 0x20 ADD SWAP1 DUP2 MSTORE PUSH1 0x20 ADD PUSH1 0x0 KECCAK256 DUP6 DUP2 SLOAD DUP2 LT PUSH2 0x10AB JUMPI PUSH4 0x4E487B71 PUSH1 0xE0 SHL PUSH1 0x0 MSTORE PUSH1 0x32 PUSH1 0x4 MSTORE PUSH1 0x24 PUSH1 0x0 REVERT JUMPDEST PUSH1 0x0 SWAP2 DUP3 MSTORE PUSH1 0x20 SWAP1 SWAP2 KECCAK256 ADD SSTORE JUMPDEST PUSH1 0x1 PUSH1 0x1 PUSH1 0xA0 SHL SUB DUP9 AND PUSH1 0x0 SWAP1 DUP2 MSTORE PUSH1 0x2 PUSH1 0x20 MSTORE PUSH1 0x40 SWAP1 KECCAK256 PUSH2 0x10DB PUSH1 0x1 DUP6 PUSH2 0x14D7 JUMP JUMPDEST DUP2 SLOAD DUP2 LT PUSH2 0x10F9 JUMPI PUSH4 0x4E487B71 PUSH1 0xE0 SHL PUSH1 0x0 MSTORE PUSH1 0x32 PUSH1 0x4 MSTORE PUSH1 0x24 PUSH1 0x0 REVERT JUMPDEST PUSH1 0x0 SWAP2 DUP3 MSTORE PUSH1 0x20 DUP1 DUP4 KECCAK256 SWAP1 SWAP2 ADD DUP3 SWAP1 SSTORE PUSH1 0x1 PUSH1 0x1 PUSH1 0xA0 SHL SUB DUP11 AND DUP3 MSTORE PUSH1 0x2 SWAP1 MSTORE PUSH1 0x40 SWAP1 KECCAK256 DUP1 SLOAD DUP1 PUSH2 0x113A JUMPI PUSH4 0x4E487B71 PUSH1 0xE0 SHL PUSH1 0x0 MSTORE PUSH1 0x31 PUSH1 0x4 MSTORE PUSH1 0x24 PUSH1 0x0 REVERT JUMPDEST PUSH1 0x1 SWAP1 SUB DUP2 DUP2 SWAP1 PUSH1 0x0 MSTORE PUSH1 0x20 PUSH1 0x0 KECCAK256 ADD PUSH1 0x0 SWAP1 SSTORE SWAP1 SSTORE POP DUP1 DUP1 PUSH2 0x115C SWAP1 PUSH2 0x14EE JUMP JUMPDEST SWAP2 POP POP PUSH2 0xE17 JUMP JUMPDEST POP POP POP POP POP POP POP JUMP JUMPDEST PUSH1 0x40 MLOAD DUP1 PUSH1 0x20 ADD PUSH1 0x40 MSTORE DUP1 PUSH1 0x1 SWAP1 PUSH1 0x20 DUP3 MUL DUP1 CALLDATASIZE DUP4 CALLDATACOPY POP SWAP2 SWAP3 SWAP2 POP POP JUMP JUMPDEST PUSH1 0x0 DUP1 DUP4 PUSH1 0x1F DUP5 ADD SLT PUSH2 0x119C JUMPI DUP2 DUP3 REVERT JUMPDEST POP DUP2 CALLDATALOAD PUSH1 0x1 PUSH1 0x1 PUSH1 0x40 SHL SUB DUP2 GT ISZERO PUSH2 0x11B2 JUMPI DUP2 DUP3 REVERT JUMPDEST PUSH1 0x20 DUP4 ADD SWAP2 POP DUP4 PUSH1 0x20 DUP3 PUSH1 0x5 SHL DUP6 ADD ADD GT ISZERO PUSH2 0x11CD JUMPI PUSH1 0x0 DUP1 REVERT JUMPDEST SWAP3 POP SWAP3 SWAP1 POP JUMP JUMPDEST PUSH1 0x0 PUSH1 0x20 DUP3 DUP5 SUB SLT ISZERO PUSH2 0x11E5 JUMPI DUP1 DUP2 REVERT JUMPDEST DUP2 CALLDATALOAD PUSH2 0x8FB DUP2 PUSH2 0x151F JUMP JUMPDEST PUSH1 0x0 PUSH1 0x20 DUP3 DUP5 SUB SLT ISZERO PUSH2 0x1201 JUMPI DUP1 DUP2 REVERT JUMPDEST DUP2 MLOAD PUSH2 0x8FB DUP2 PUSH2 0x151F JUMP JUMPDEST PUSH1 0x0 DUP1 PUSH1 0x0 DUP1 PUSH1 0x0 PUSH1 0x80 DUP7 DUP9 SUB SLT ISZERO PUSH2 0x1223 JUMPI DUP1 DUP2 REVERT JUMPDEST DUP6 CALLDATALOAD PUSH2 0x122E DUP2 PUSH2 0x151F JUMP JUMPDEST SWAP5 POP PUSH1 0x20 DUP7 ADD CALLDATALOAD PUSH2 0x123E DUP2 PUSH2 0x151F JUMP JUMPDEST SWAP4 POP PUSH1 0x40 DUP7 ADD CALLDATALOAD SWAP3 POP PUSH1 0x60 DUP7 ADD CALLDATALOAD PUSH1 0x1 PUSH1 0x1 PUSH1 0x40 SHL SUB DUP1 DUP3 GT ISZERO PUSH2 0x1260 JUMPI DUP3 DUP4 REVERT JUMPDEST DUP2 DUP9 ADD SWAP2 POP DUP9 PUSH1 0x1F DUP4 ADD SLT PUSH2 0x1273 JUMPI DUP3 DUP4 REVERT JUMPDEST DUP2 CALLDATALOAD DUP2 DUP2 GT ISZERO PUSH2 0x1281 JUMPI DUP4 DUP5 REVERT JUMPDEST DUP10 PUSH1 0x20 DUP3 DUP6 ADD ADD GT ISZERO PUSH2 0x1292 JUMPI DUP4 DUP5 REVERT JUMPDEST SWAP7 SWAP10 SWAP6 SWAP9 POP SWAP4 SWAP7 POP PUSH1 0x20 ADD SWAP5 SWAP4 SWAP3 POP POP POP JUMP JUMPDEST PUSH1 0x0 DUP1 PUSH1 0x0 PUSH1 0x40 DUP5 DUP7 SUB SLT ISZERO PUSH2 0x12B9 JUMPI DUP3 DUP4 REVERT JUMPDEST DUP4 CALLDATALOAD PUSH2 0x12C4 DUP2 PUSH2 0x151F JUMP JUMPDEST SWAP3 POP PUSH1 0x20 DUP5 ADD CALLDATALOAD PUSH1 0x1 PUSH1 0x1 PUSH1 0x40 SHL SUB DUP2 GT ISZERO PUSH2 0x12DE JUMPI DUP3 DUP4 REVERT JUMPDEST PUSH2 0x12EA DUP7 DUP3 DUP8 ADD PUSH2 0x118B JUMP JUMPDEST SWAP5 SWAP8 SWAP1 SWAP7 POP SWAP4 SWAP5 POP POP POP POP JUMP JUMPDEST PUSH1 0x0 DUP1 PUSH1 0x20 DUP4 DUP6 SUB SLT ISZERO PUSH2 0x1309 JUMPI DUP2 DUP3 REVERT JUMPDEST DUP3 CALLDATALOAD PUSH1 0x1 PUSH1 0x1 PUSH1 0x40 SHL SUB DUP2 GT ISZERO PUSH2 0x131E JUMPI DUP3 DUP4 REVERT JUMPDEST PUSH2 0x132A DUP6 DUP3 DUP7 ADD PUSH2 0x118B JUMP JUMPDEST SWAP1 SWAP7 SWAP1 SWAP6 POP SWAP4 POP POP POP POP JUMP JUMPDEST PUSH1 0x0 PUSH1 0x20 DUP3 DUP5 SUB SLT ISZERO PUSH2 0x1347 JUMPI DUP1 DUP2 REVERT JUMPDEST DUP2 CALLDATALOAD PUSH2 0x8FB DUP2 PUSH2 0x1534 JUMP JUMPDEST PUSH1 0x0 PUSH1 0x20 DUP3 DUP5 SUB SLT ISZERO PUSH2 0x1363 JUMPI DUP1 DUP2 REVERT JUMPDEST DUP2 MLOAD PUSH2 0x8FB DUP2 PUSH2 0x1534 JUMP JUMPDEST PUSH1 0x0 PUSH1 0x20 DUP3 DUP5 SUB SLT ISZERO PUSH2 0x137F JUMPI DUP1 DUP2 REVERT JUMPDEST POP CALLDATALOAD SWAP2 SWAP1 POP JUMP JUMPDEST PUSH1 0x1 PUSH1 0x1 PUSH1 0xA0 SHL SUB SWAP4 DUP5 AND DUP2 MSTORE SWAP2 SWAP1 SWAP3 AND PUSH1 0x20 DUP3 ADD MSTORE PUSH1 0x40 DUP2 ADD SWAP2 SWAP1 SWAP2 MSTORE PUSH1 0x60 ADD SWAP1 JUMP JUMPDEST PUSH1 0x1 PUSH1 0x1 PUSH1 0xA0 SHL SUB SWAP3 SWAP1 SWAP3 AND DUP3 MSTORE PUSH1 0x20 DUP3 ADD MSTORE PUSH1 0x40 ADD SWAP1 JUMP JUMPDEST PUSH1 0x1 PUSH1 0x1 PUSH1 0xA0 SHL SUB SWAP4 SWAP1 SWAP4 AND DUP4 MSTORE PUSH1 0x20 DUP4 ADD SWAP2 SWAP1 SWAP2 MSTORE PUSH1 0x40 DUP3 ADD MSTORE PUSH1 0x60 ADD SWAP1 JUMP JUMPDEST PUSH1 0x20 DUP2 DUP2 ADD SWAP1 DUP3 DUP5 PUSH1 0x0 JUMPDEST PUSH1 0x1 DUP2 LT ISZERO PUSH2 0x140C JUMPI DUP2 MLOAD DUP4 MSTORE SWAP2 DUP4 ADD SWAP2 SWAP1 DUP4 ADD SWAP1 PUSH1 0x1 ADD PUSH2 0x13EF JUMP JUMPDEST POP POP POP POP SWAP3 SWAP2 POP POP JUMP JUMPDEST PUSH1 0x20 DUP1 DUP3 MSTORE DUP3 MLOAD DUP3 DUP3 ADD DUP2 SWAP1 MSTORE PUSH1 0x0 SWAP2 SWAP1 DUP5 DUP3 ADD SWAP1 PUSH1 0x40 DUP6 ADD SWAP1 DUP5 JUMPDEST DUP2 DUP2 LT ISZERO PUSH2 0x144E JUMPI DUP4 MLOAD DUP4 MSTORE SWAP3 DUP5 ADD SWAP3 SWAP2 DUP5 ADD SWAP2 PUSH1 0x1 ADD PUSH2 0x1432 JUMP JUMPDEST POP SWAP1 SWAP7 SWAP6 POP POP POP POP POP POP JUMP JUMPDEST PUSH1 0x20 DUP1 DUP3 MSTORE PUSH1 0xC SWAP1 DUP3 ADD MSTORE PUSH12 0x3737BA1030B71037BBB732B9 PUSH1 0xA1 SHL PUSH1 0x40 DUP3 ADD MSTORE PUSH1 0x60 ADD SWAP1 JUMP JUMPDEST PUSH1 0x0 DUP3 NOT DUP3 GT ISZERO PUSH2 0x1493 JUMPI PUSH2 0x1493 PUSH2 0x1509 JUMP JUMPDEST POP ADD SWAP1 JUMP JUMPDEST PUSH1 0x0 DUP3 PUSH2 0x14B3 JUMPI PUSH4 0x4E487B71 PUSH1 0xE0 SHL DUP2 MSTORE PUSH1 0x12 PUSH1 0x4 MSTORE PUSH1 0x24 DUP2 REVERT JUMPDEST POP DIV SWAP1 JUMP JUMPDEST PUSH1 0x0 DUP2 PUSH1 0x0 NOT DIV DUP4 GT DUP3 ISZERO ISZERO AND ISZERO PUSH2 0x14D2 JUMPI PUSH2 0x14D2 PUSH2 0x1509 JUMP JUMPDEST POP MUL SWAP1 JUMP JUMPDEST PUSH1 0x0 DUP3 DUP3 LT ISZERO PUSH2 0x14E9 JUMPI PUSH2 0x14E9 PUSH2 0x1509 JUMP JUMPDEST POP SUB SWAP1 JUMP JUMPDEST PUSH1 0x0 PUSH1 0x0 NOT DUP3 EQ ISZERO PUSH2 0x1502 JUMPI PUSH2 0x1502 PUSH2 0x1509 JUMP JUMPDEST POP PUSH1 0x1 ADD SWAP1 JUMP JUMPDEST PUSH4 0x4E487B71 PUSH1 0xE0 SHL PUSH1 0x0 MSTORE PUSH1 0x11 PUSH1 0x4 MSTORE PUSH1 0x24 PUSH1 0x0 REVERT JUMPDEST PUSH1 0x1 PUSH1 0x1 PUSH1 0xA0 SHL SUB DUP2 AND DUP2 EQ PUSH2 0xA12 JUMPI PUSH1 0x0 DUP1 REVERT JUMPDEST DUP1 ISZERO ISZERO DUP2 EQ PUSH2 0xA12 JUMPI PUSH1 0x0 DUP1 REVERT INVALID LOG2 PUSH5 0x6970667358 0x22 SLT KECCAK256 0x5D ORIGIN 0xD4 EXTCODEHASH 0x4F KECCAK256 POP PUSH13 0x522D87BFE3C1597F6064BD7C6 PUSH32 0x68A2252A635FD519CFCA64736F6C634300080400330000000000000000000000 "},"methodIdentifiers":{"balanceOf(address)":"70a08231","claim(uint256[])":"6ba4c138","claimForAddress(address,uint256[])":"c36be357","earningInfo(address,uint256[])":"7e75dd60","isStart()":"8a55d36e","onERC721Received(address,address,uint256,bytes)":"150b7a02","owner()":"8da5cb5b","renounceOwnership()":"715018a6","setStartStatus(bool)":"094be381","setTokenPrice(uint256)":"6a61e5fc","stake(uint256[])":"0fbf0a93","tokenPrice()":"7ff9b596","tokensOfOwner(address)":"8462151c","totalStaked()":"817b1cd2","transferOwnership(address)":"f2fde38b","unstake(uint256[])":"e449f341","vault(uint256)":"81a36fb6"}}}}}