{
  "_format": "hh-sol-artifact-1",
  "contractName": "TokenStaking",
  "sourceName": "contracts/tokenStaking.sol",
  "abi": [
    {
      "inputs": [
        {
          "internalType": "address",
          "name": "_rewardsDistribution",
          "type": "address"
        },
        {
          "internalType": "address",
          "name": "_rewardsToken",
          "type": "address"
        },
        {
          "internalType": "address",
          "name": "_stakingToken",
          "type": "address"
        },
        {
          "internalType": "uint256",
          "name": "_rewardsDuration",
          "type": "uint256"
        },
        {
          "internalType": "uint256",
          "name": "_lockPeriod",
          "type": "uint256"
        }
      ],
      "stateMutability": "nonpayable",
      "type": "constructor"
    },
    {
      "anonymous": false,
      "inputs": [
        {
          "indexed": true,
          "internalType": "address",
          "name": "previousOwner",
          "type": "address"
        },
        {
          "indexed": true,
          "internalType": "address",
          "name": "newOwner",
          "type": "address"
        }
      ],
      "name": "OwnershipTransferred",
      "type": "event"
    },
    {
      "anonymous": false,
      "inputs": [
        {
          "indexed": false,
          "internalType": "address",
          "name": "account",
          "type": "address"
        }
      ],
      "name": "Paused",
      "type": "event"
    },
    {
      "anonymous": false,
      "inputs": [
        {
          "indexed": false,
          "internalType": "address",
          "name": "token",
          "type": "address"
        },
        {
          "indexed": false,
          "internalType": "uint256",
          "name": "amount",
          "type": "uint256"
        }
      ],
      "name": "Recovered",
      "type": "event"
    },
    {
      "anonymous": false,
      "inputs": [
        {
          "indexed": false,
          "internalType": "uint256",
          "name": "reward",
          "type": "uint256"
        }
      ],
      "name": "RewardAdded",
      "type": "event"
    },
    {
      "anonymous": false,
      "inputs": [
        {
          "indexed": true,
          "internalType": "address",
          "name": "user",
          "type": "address"
        },
        {
          "indexed": false,
          "internalType": "uint256",
          "name": "reward",
          "type": "uint256"
        }
      ],
      "name": "RewardPaid",
      "type": "event"
    },
    {
      "anonymous": false,
      "inputs": [
        {
          "indexed": false,
          "internalType": "address",
          "name": "newDistribution",
          "type": "address"
        }
      ],
      "name": "RewardsDistributionUpdated",
      "type": "event"
    },
    {
      "anonymous": false,
      "inputs": [
        {
          "indexed": false,
          "internalType": "uint256",
          "name": "newDuration",
          "type": "uint256"
        }
      ],
      "name": "RewardsDurationUpdated",
      "type": "event"
    },
    {
      "anonymous": false,
      "inputs": [
        {
          "indexed": true,
          "internalType": "address",
          "name": "user",
          "type": "address"
        },
        {
          "indexed": false,
          "internalType": "uint256",
          "name": "amount",
          "type": "uint256"
        }
      ],
      "name": "Staked",
      "type": "event"
    },
    {
      "anonymous": false,
      "inputs": [
        {
          "indexed": false,
          "internalType": "address",
          "name": "account",
          "type": "address"
        }
      ],
      "name": "Unpaused",
      "type": "event"
    },
    {
      "anonymous": false,
      "inputs": [
        {
          "indexed": true,
          "internalType": "address",
          "name": "user",
          "type": "address"
        },
        {
          "indexed": false,
          "internalType": "uint256",
          "name": "amount",
          "type": "uint256"
        }
      ],
      "name": "Withdrawn",
      "type": "event"
    },
    {
      "inputs": [
        {
          "internalType": "address",
          "name": "account",
          "type": "address"
        }
      ],
      "name": "balanceOf",
      "outputs": [
        {
          "internalType": "uint256",
          "name": "",
          "type": "uint256"
        }
      ],
      "stateMutability": "view",
      "type": "function"
    },
    {
      "inputs": [
        {
          "internalType": "address",
          "name": "account",
          "type": "address"
        }
      ],
      "name": "earned",
      "outputs": [
        {
          "internalType": "uint256",
          "name": "",
          "type": "uint256"
        }
      ],
      "stateMutability": "view",
      "type": "function"
    },
    {
      "inputs": [],
      "name": "exit",
      "outputs": [],
      "stateMutability": "nonpayable",
      "type": "function"
    },
    {
      "inputs": [],
      "name": "getReward",
      "outputs": [],
      "stateMutability": "nonpayable",
      "type": "function"
    },
    {
      "inputs": [],
      "name": "getRewardForDuration",
      "outputs": [
        {
          "internalType": "uint256",
          "name": "",
          "type": "uint256"
        }
      ],
      "stateMutability": "view",
      "type": "function"
    },
    {
      "inputs": [
        {
          "internalType": "string",
          "name": "strCoin",
          "type": "string"
        }
      ],
      "name": "getRewardStable",
      "outputs": [],
      "stateMutability": "payable",
      "type": "function"
    },
    {
      "inputs": [
        {
          "internalType": "address",
          "name": "",
          "type": "address"
        }
      ],
      "name": "lastStakeTime",
      "outputs": [
        {
          "internalType": "uint256",
          "name": "",
          "type": "uint256"
        }
      ],
      "stateMutability": "view",
      "type": "function"
    },
    {
      "inputs": [],
      "name": "lastTimeRewardApplicable",
      "outputs": [
        {
          "internalType": "uint256",
          "name": "",
          "type": "uint256"
        }
      ],
      "stateMutability": "view",
      "type": "function"
    },
    {
      "inputs": [],
      "name": "lastUpdateTime",
      "outputs": [
        {
          "internalType": "uint256",
          "name": "",
          "type": "uint256"
        }
      ],
      "stateMutability": "view",
      "type": "function"
    },
    {
      "inputs": [],
      "name": "lockPeriod",
      "outputs": [
        {
          "internalType": "uint256",
          "name": "",
          "type": "uint256"
        }
      ],
      "stateMutability": "view",
      "type": "function"
    },
    {
      "inputs": [
        {
          "internalType": "uint256",
          "name": "reward",
          "type": "uint256"
        }
      ],
      "name": "notifyRewardAmount",
      "outputs": [],
      "stateMutability": "nonpayable",
      "type": "function"
    },
    {
      "inputs": [],
      "name": "owner",
      "outputs": [
        {
          "internalType": "address",
          "name": "",
          "type": "address"
        }
      ],
      "stateMutability": "view",
      "type": "function"
    },
    {
      "inputs": [],
      "name": "pause",
      "outputs": [],
      "stateMutability": "nonpayable",
      "type": "function"
    },
    {
      "inputs": [],
      "name": "paused",
      "outputs": [
        {
          "internalType": "bool",
          "name": "",
          "type": "bool"
        }
      ],
      "stateMutability": "view",
      "type": "function"
    },
    {
      "inputs": [],
      "name": "periodFinish",
      "outputs": [
        {
          "internalType": "uint256",
          "name": "",
          "type": "uint256"
        }
      ],
      "stateMutability": "view",
      "type": "function"
    },
    {
      "inputs": [
        {
          "internalType": "address",
          "name": "tokenAddress",
          "type": "address"
        },
        {
          "internalType": "uint256",
          "name": "tokenAmount",
          "type": "uint256"
        }
      ],
      "name": "recoverERC20",
      "outputs": [],
      "stateMutability": "nonpayable",
      "type": "function"
    },
    {
      "inputs": [],
      "name": "renounceOwnership",
      "outputs": [],
      "stateMutability": "nonpayable",
      "type": "function"
    },
    {
      "inputs": [],
      "name": "rewardPerToken",
      "outputs": [
        {
          "internalType": "uint256",
          "name": "",
          "type": "uint256"
        }
      ],
      "stateMutability": "view",
      "type": "function"
    },
    {
      "inputs": [],
      "name": "rewardPerTokenStored",
      "outputs": [
        {
          "internalType": "uint256",
          "name": "",
          "type": "uint256"
        }
      ],
      "stateMutability": "view",
      "type": "function"
    },
    {
      "inputs": [],
      "name": "rewardRate",
      "outputs": [
        {
          "internalType": "uint256",
          "name": "",
          "type": "uint256"
        }
      ],
      "stateMutability": "view",
      "type": "function"
    },
    {
      "inputs": [
        {
          "internalType": "address",
          "name": "",
          "type": "address"
        }
      ],
      "name": "rewards",
      "outputs": [
        {
          "internalType": "uint256",
          "name": "",
          "type": "uint256"
        }
      ],
      "stateMutability": "view",
      "type": "function"
    },
    {
      "inputs": [],
      "name": "rewardsDistribution",
      "outputs": [
        {
          "internalType": "address",
          "name": "",
          "type": "address"
        }
      ],
      "stateMutability": "view",
      "type": "function"
    },
    {
      "inputs": [],
      "name": "rewardsDuration",
      "outputs": [
        {
          "internalType": "uint256",
          "name": "",
          "type": "uint256"
        }
      ],
      "stateMutability": "view",
      "type": "function"
    },
    {
      "inputs": [],
      "name": "rewardsToken",
      "outputs": [
        {
          "internalType": "contract IERC20",
          "name": "",
          "type": "address"
        }
      ],
      "stateMutability": "view",
      "type": "function"
    },
    {
      "inputs": [
        {
          "internalType": "uint256",
          "name": "_lockPeriod",
          "type": "uint256"
        }
      ],
      "name": "setLockPeriod",
      "outputs": [],
      "stateMutability": "nonpayable",
      "type": "function"
    },
    {
      "inputs": [
        {
          "internalType": "address",
          "name": "_rewardsDistribution",
          "type": "address"
        }
      ],
      "name": "setRewardsDistribution",
      "outputs": [],
      "stateMutability": "nonpayable",
      "type": "function"
    },
    {
      "inputs": [
        {
          "internalType": "uint256",
          "name": "_rewardsDuration",
          "type": "uint256"
        }
      ],
      "name": "setRewardsDuration",
      "outputs": [],
      "stateMutability": "nonpayable",
      "type": "function"
    },
    {
      "inputs": [
        {
          "internalType": "string",
          "name": "strCoin",
          "type": "string"
        },
        {
          "internalType": "uint256",
          "name": "stbPrice",
          "type": "uint256"
        }
      ],
      "name": "setStabPrice",
      "outputs": [],
      "stateMutability": "nonpayable",
      "type": "function"
    },
    {
      "inputs": [
        {
          "internalType": "uint256",
          "name": "amount",
          "type": "uint256"
        }
      ],
      "name": "stake",
      "outputs": [],
      "stateMutability": "nonpayable",
      "type": "function"
    },
    {
      "inputs": [],
      "name": "stakingToken",
      "outputs": [
        {
          "internalType": "contract IERC20",
          "name": "",
          "type": "address"
        }
      ],
      "stateMutability": "view",
      "type": "function"
    },
    {
      "inputs": [],
      "name": "totalSupply",
      "outputs": [
        {
          "internalType": "uint256",
          "name": "",
          "type": "uint256"
        }
      ],
      "stateMutability": "view",
      "type": "function"
    },
    {
      "inputs": [
        {
          "internalType": "address",
          "name": "newOwner",
          "type": "address"
        }
      ],
      "name": "transferOwnership",
      "outputs": [],
      "stateMutability": "nonpayable",
      "type": "function"
    },
    {
      "inputs": [],
      "name": "unpause",
      "outputs": [],
      "stateMutability": "nonpayable",
      "type": "function"
    },
    {
      "inputs": [
        {
          "internalType": "address",
          "name": "",
          "type": "address"
        }
      ],
      "name": "userRewardPerTokenPaid",
      "outputs": [
        {
          "internalType": "uint256",
          "name": "",
          "type": "uint256"
        }
      ],
      "stateMutability": "view",
      "type": "function"
    },
    {
      "inputs": [
        {
          "internalType": "uint256",
          "name": "amount",
          "type": "uint256"
        }
      ],
      "name": "withdraw",
      "outputs": [],
      "stateMutability": "nonpayable",
      "type": "function"
    },
    {
      "stateMutability": "payable",
      "type": "receive"
    }
  ],
  "bytecode": "0x60806040523480156200001157600080fd5b5060405162001d0d38038062001d0d83398101604081905262000034916200026f565b6200003f3362000202565b600180556002805460ff191690556001600160a01b038416620000a95760405162461bcd60e51b815260206004820152601760248201527f726577617264546f6b656e206d757374206e6f7420307800000000000000000060448201526064015b60405180910390fd5b6001600160a01b038316620001015760405162461bcd60e51b815260206004820152601860248201527f7374616b696e67546f6b656e206d757374206e6f7420307800000000000000006044820152606401620000a0565b6001600160a01b038516620001595760405162461bcd60e51b815260206004820152601e60248201527f726577617264446973747269627574696f6e206d757374206e6f7420307800006044820152606401620000a0565b81620001a85760405162461bcd60e51b815260206004820152601a60248201527f726577617264734475726174696f6e206d757374206e6f7420300000000000006044820152606401620000a0565b60028054610100600160a81b0319166101006001600160a01b0396871602179055600380546001600160a01b0319908116948616949094179055600a805490931694909316939093179055600791909155600455620002cb565b600080546001600160a01b038381166001600160a01b0319831681178455604051919092169283917f8be0079c531659141344cd1fd0a4f28419497f9722a3daafe3b4186f6b6457e09190a35050565b80516001600160a01b03811681146200026a57600080fd5b919050565b600080600080600060a0868803121562000287578081fd5b620002928662000252565b9450620002a26020870162000252565b9350620002b26040870162000252565b6060870151608090970151959894975095949392505050565b611a3280620002db6000396000f3fe6080604052600436106101975760003560e01c80628cc262146101a35780630700037d146101d657806318160ddd1461020357806319762143146102185780631c1f78eb1461023a5780632e1a7d4d1461024f578063386a95251461026f5780633c6b16ab146102855780633d18b912146102a55780633f4ba83a146102ba5780633fc6df6e146102cf5780633fd8b02f146102fc5780635c975abb1461031257806370a0823114610335578063715018a61461036b57806372f702f314610380578063779972da146103a05780637b0a47ee146103c05780637bb1ca19146103d657806380faa57d146104035780638456cb59146104185780638980f11f1461042d5780638b8763471461044d5780638da5cb5b1461047a5780639fbd4fc71461048f578063a694fc3a146104af578063c8f33c91146104cf578063cc1a378f146104e5578063cd3daf9d14610505578063d1af0c7d1461051a578063df136d651461053f578063e12585f114610555578063e9fad8ee14610568578063ebe2b12b1461057d578063f2fde38b1461059357600080fd5b3661019e57005b600080fd5b3480156101af57600080fd5b506101c36101be36600461177e565b6105b3565b6040519081526020015b60405180910390f35b3480156101e257600080fd5b506101c36101f136600461177e565b600c6020526000908152604090205481565b34801561020f57600080fd5b50600d546101c3565b34801561022457600080fd5b5061023861023336600461177e565b610630565b005b34801561024657600080fd5b506101c36106e9565b34801561025b57600080fd5b5061023861026a36600461185c565b610700565b34801561027b57600080fd5b506101c360075481565b34801561029157600080fd5b506102386102a036600461185c565b610878565b3480156102b157600080fd5b506102386109f2565b3480156102c657600080fd5b50610238610b05565b3480156102db57600080fd5b50600a546102ef906001600160a01b031681565b6040516101cd9190611890565b34801561030857600080fd5b506101c360045481565b34801561031e57600080fd5b5060025460ff1660405190151581526020016101cd565b34801561034157600080fd5b506101c361035036600461177e565b6001600160a01b031660009081526010602052604090205490565b34801561037757600080fd5b50610238610b15565b34801561038c57600080fd5b506003546102ef906001600160a01b031681565b3480156103ac57600080fd5b506102386103bb36600461185c565b610b27565b3480156103cc57600080fd5b506101c360065481565b3480156103e257600080fd5b506101c36103f136600461177e565b60116020526000908152604090205481565b34801561040f57600080fd5b506101c3610b34565b34801561042457600080fd5b50610238610b4b565b34801561043957600080fd5b5061023861044836600461179f565b610b5b565b34801561045957600080fd5b506101c361046836600461177e565b600b6020526000908152604090205481565b34801561048657600080fd5b506102ef610c40565b34801561049b57600080fd5b506102386104aa36600461181a565b610c4f565b3480156104bb57600080fd5b506102386104ca36600461185c565b610c7c565b3480156104db57600080fd5b506101c360085481565b3480156104f157600080fd5b5061023861050036600461185c565b610dc1565b34801561051157600080fd5b506101c3610e96565b34801561052657600080fd5b506002546102ef9061010090046001600160a01b031681565b34801561054b57600080fd5b506101c360095481565b6102386105633660046117e8565b610ef8565b34801561057457600080fd5b5061023861112c565b34801561058957600080fd5b506101c360055481565b34801561059f57600080fd5b506102386105ae36600461177e565b61114d565b6001600160a01b0381166000908152600c6020908152604080832054600b909252822054670de0b6b3a7640000906105e9610e96565b6105f3919061196d565b6001600160a01b038516600090815260106020526040902054610616919061194e565b610620919061192e565b61062a9190611916565b92915050565b6106386111c3565b6001600160a01b0381166106935760405162461bcd60e51b815260206004820152601e60248201527f726577617264446973747269627574696f6e206d757374206e6f74203078000060448201526064015b60405180910390fd5b600a80546001600160a01b0319166001600160a01b0383161790556040517f1c794a043683a294127c95bc365bae91b63b651eb9884a2c9120afee2bb690b4906106de908390611890565b60405180910390a150565b60006007546006546106fb919061194e565b905090565b610708611222565b33610711610e96565b60095561071c610b34565b6008556001600160a01b0381161561076357610737816105b3565b6001600160a01b0382166000908152600c6020908152604080832093909355600954600b909152919020555b600082116107a75760405162461bcd60e51b8152602060048201526011602482015270043616e6e6f74207769746864726177203607c1b604482015260640161068a565b6004543360009081526011602052604090205442916107c591611916565b11156107e35760405162461bcd60e51b815260040161068a906118f0565b81600d60008282546107f5919061196d565b9091555050336000908152601060205260408120805484929061081990849061196d565b9091555050600354610835906001600160a01b0316338461127c565b60405182815233907f7084f5476618d8e60b11ef0d7d3f06914655adb8793e28ff7f018d4c76d505d5906020015b60405180910390a25061087560018055565b50565b6000610882610e96565b60095561088d610b34565b6008556001600160a01b038116156108d4576108a8816105b3565b6001600160a01b0382166000908152600c6020908152604080832093909355600954600b909152919020555b600a546001600160a01b031633146109285760405162461bcd60e51b81526020600482015260176024820152762737ba103932bbb0b93239a234b9ba3934b13aba34b7b760491b604482015260640161068a565b6002546109459061010090046001600160a01b03163330856112d7565b60055442106109635760075461095b908361192e565b6006556109a5565b600042600554610973919061196d565b9050600060065482610985919061194e565b6007549091506109958286611916565b61099f919061192e565b60065550505b4260088190556007546109b791611916565b6005556040518281527fde88a922e0d3b88b24e9623efeb464919c6bf9f66857a65e2bfcf2ce87a9433d906020015b60405180910390a15050565b6109fa611222565b33610a03610e96565b600955610a0e610b34565b6008556001600160a01b03811615610a5557610a29816105b3565b6001600160a01b0382166000908152600c6020908152604080832093909355600954600b909152919020555b600454336000908152601160205260409020544291610a7391611916565b1115610a915760405162461bcd60e51b815260040161068a906118f0565b336000908152600c60205260409020548015610af857336000818152600c6020526040812055600254610ad4916101009091046001600160a01b0316908361127c565b60405181815233906000805160206119dd8339815191529060200160405180910390a25b5050610b0360018055565b565b610b0d6111c3565b610b03611315565b610b1d6111c3565b610b036000611361565b610b2f6111c3565b600455565b60006005544210610b46575060055490565b504290565b610b536111c3565b610b036113b1565b610b636111c3565b6003546001600160a01b03838116911614801590610b9457506002546001600160a01b038381166101009092041614155b610bfb5760405162461bcd60e51b815260206004820152603260248201527f43616e6e6f7420776974686472617720746865207374616b696e6720746f6b65604482015271371030b732103932bbb0b932103a37b5b2b760711b606482015260840161068a565b610c0f6001600160a01b038316338361127c565b7f8c1256b8896378cd5044f80c202f9772b9d77dc85c8a6eb51967210b09bfaa2882826040516109e69291906118a4565b6000546001600160a01b031690565b610c576111c3565b80600e83604051610c689190611874565b908152604051908190036020019020555050565b610c84611222565b610c8c6113ee565b33610c95610e96565b600955610ca0610b34565b6008556001600160a01b03811615610ce757610cbb816105b3565b6001600160a01b0382166000908152600c6020908152604080832093909355600954600b909152919020555b60008211610d285760405162461bcd60e51b815260206004820152600e60248201526d043616e6e6f74207374616b6520360941b604482015260640161068a565b81600d6000828254610d3a9190611916565b90915550503360009081526010602052604081208054849290610d5e908490611916565b9091555050336000818152601160205260409020429055600354610d8f916001600160a01b039091169030856112d7565b60405182815233907f9e71bc8eea02a63969f509818f2dafb9254532904319f9dbda79b67bd34a5f3d90602001610863565b610dc96111c3565b6005544211610e615760405162461bcd60e51b815260206004820152605860248201527f50726576696f7573207265776172647320706572696f64206d7573742062652060448201527f636f6d706c657465206265666f7265206368616e67696e672074686520647572606482015277185d1a5bdb88199bdc881d1a19481b995dc81c195c9a5bd960421b608482015260a40161068a565b60078190556040518181527ffb46ca5a5e06d4540d6387b930a7c978bce0db5f449ec6b3f5d07c6e1d44f2d3906020016106de565b6000600d5460001415610eaa575060095490565b600d54600654600854610ebb610b34565b610ec5919061196d565b610ecf919061194e565b610ee190670de0b6b3a764000061194e565b610eeb919061192e565b6009546106fb9190611916565b610f00611222565b33610f09610e96565b600955610f14610b34565b6008556001600160a01b03811615610f5b57610f2f816105b3565b6001600160a01b0382166000908152600c6020908152604080832093909355600954600b909152919020555b600454336000908152601160205260409020544291610f7991611916565b1115610f975760405162461bcd60e51b815260040161068a906118f0565b336000908152600c6020526040902054801561112157336000908152600c602052604080822082905551600e90610fcf908690611874565b90815260200160405180910390205482610fe9919061194e565b905060008111610ff857600080fd5b835160208501207f3ed03c38e59dc60c7b69c2a4bf68f9214acd953252b5a90e8f5f59583e9bc3ae908082141561105c57604051339084156108fc029085906000818181858888f19350505050158015611056573d6000803e3d6000fd5b506110fa565b600f8660405161106c9190611874565b9081526040519081900360200181205463a9059cbb60e01b82526001600160a01b03169063a9059cbb906110a690339087906004016118a4565b602060405180830381600087803b1580156110c057600080fd5b505af11580156110d4573d6000803e3d6000fd5b505050506040513d601f19601f820116820180604052508101906110f891906117c8565b505b60405183815233906000805160206119dd8339815191529060200160405180910390a25050505b505061087560018055565b3360009081526010602052604090205461114590610700565b610b036109f2565b6111556111c3565b6001600160a01b0381166111ba5760405162461bcd60e51b815260206004820152602660248201527f4f776e61626c653a206e6577206f776e657220697320746865207a65726f206160448201526564647265737360d01b606482015260840161068a565b61087581611361565b336111cc610c40565b6001600160a01b031614610b035760405162461bcd60e51b815260206004820181905260248201527f4f776e61626c653a2063616c6c6572206973206e6f7420746865206f776e6572604482015260640161068a565b600260015414156112755760405162461bcd60e51b815260206004820152601f60248201527f5265656e7472616e637947756172643a207265656e7472616e742063616c6c00604482015260640161068a565b6002600155565b6112d28363a9059cbb60e01b848460405160240161129b9291906118a4565b60408051601f198184030181529190526020810180516001600160e01b03166001600160e01b031990931692909217909152611434565b505050565b6040516001600160a01b038085166024830152831660448201526064810182905261130f9085906323b872dd60e01b9060840161129b565b50505050565b61131d611506565b6002805460ff191690557f5db9ee0a495bf2e6ff9c91a7834c1ba4fdd244a5e8aa4e537bd38aeae4b073aa335b6040516113579190611890565b60405180910390a1565b600080546001600160a01b038381166001600160a01b0319831681178455604051919092169283917f8be0079c531659141344cd1fd0a4f28419497f9722a3daafe3b4186f6b6457e09190a35050565b6113b96113ee565b6002805460ff191660011790557f62e78cea01bee320cd4e420270b5ea74000d11b0c9f74754ebdbfc544b05a25861134a3390565b60025460ff1615610b035760405162461bcd60e51b815260206004820152601060248201526f14185d5cd8589b194e881c185d5cd95960821b604482015260640161068a565b6000611489826040518060400160405280602081526020017f5361666545524332303a206c6f772d6c6576656c2063616c6c206661696c6564815250856001600160a01b031661154f9092919063ffffffff16565b8051909150156112d257808060200190518101906114a791906117c8565b6112d25760405162461bcd60e51b815260206004820152602a60248201527f5361666545524332303a204552433230206f7065726174696f6e20646964206e6044820152691bdd081cdd58d8d9595960b21b606482015260840161068a565b60025460ff16610b035760405162461bcd60e51b815260206004820152601460248201527314185d5cd8589b194e881b9bdd081c185d5cd95960621b604482015260640161068a565b606061155e8484600085611566565b949350505050565b6060824710156115c75760405162461bcd60e51b815260206004820152602660248201527f416464726573733a20696e73756666696369656e742062616c616e636520666f6044820152651c8818d85b1b60d21b606482015260840161068a565b600080866001600160a01b031685876040516115e39190611874565b60006040518083038185875af1925050503d8060008114611620576040519150601f19603f3d011682016040523d82523d6000602084013e611625565b606091505b509150915061163687838387611641565b979650505050505050565b606083156116ad5782516116a6576001600160a01b0385163b6116a65760405162461bcd60e51b815260206004820152601d60248201527f416464726573733a2063616c6c20746f206e6f6e2d636f6e7472616374000000604482015260640161068a565b508161155e565b61155e83838151156116c25781518083602001fd5b8060405162461bcd60e51b815260040161068a91906118bd565b80356001600160a01b03811681146116f357600080fd5b919050565b600082601f830112611708578081fd5b81356001600160401b0380821115611722576117226119c6565b604051601f8301601f19908116603f0116810190828211818310171561174a5761174a6119c6565b81604052838152866020858801011115611762578485fd5b8360208701602083013792830160200193909352509392505050565b60006020828403121561178f578081fd5b611798826116dc565b9392505050565b600080604083850312156117b1578081fd5b6117ba836116dc565b946020939093013593505050565b6000602082840312156117d9578081fd5b81518015158114611798578182fd5b6000602082840312156117f9578081fd5b81356001600160401b0381111561180e578182fd5b61155e848285016116f8565b6000806040838503121561182c578182fd5b82356001600160401b03811115611841578283fd5b61184d858286016116f8565b95602094909401359450505050565b60006020828403121561186d578081fd5b5035919050565b60008251611886818460208701611984565b9190910192915050565b6001600160a01b0391909116815260200190565b6001600160a01b03929092168252602082015260400190565b60208152600082518060208401526118dc816040850160208701611984565b601f01601f19169190910160400192915050565b6020808252600c908201526b14dd1a5b1b081b1bd8dad95960a21b604082015260600190565b60008219821115611929576119296119b0565b500190565b60008261194957634e487b7160e01b81526012600452602481fd5b500490565b6000816000190483118215151615611968576119686119b0565b500290565b60008282101561197f5761197f6119b0565b500390565b60005b8381101561199f578181015183820152602001611987565b8381111561130f5750506000910152565b634e487b7160e01b600052601160045260246000fd5b634e487b7160e01b600052604160045260246000fdfee2403640ba68fed3a2f88b7557551d1993f84b99bb10ff833f0cf8db0c5e0486a26469706673582212202ec0d2fde4a9305112bc3dc0c025c47014ffba9f98034afe22f1f3076c304fe364736f6c63430008040033",
  "linkReferences": {},
  "deployedLinkReferences": {}
}