{
  "_format": "hh-sol-artifact-1",
  "contractName": "PepeBornNFT",
  "sourceName": "contracts/nft.sol",
  "abi": [
    {
      "inputs": [],
      "stateMutability": "nonpayable",
      "type": "constructor"
    },
    {
      "anonymous": false,
      "inputs": [
        {
          "indexed": true,
          "internalType": "address",
          "name": "owner",
          "type": "address"
        },
        {
          "indexed": true,
          "internalType": "address",
          "name": "approved",
          "type": "address"
        },
        {
          "indexed": true,
          "internalType": "uint256",
          "name": "tokenId",
          "type": "uint256"
        }
      ],
      "name": "Approval",
      "type": "event"
    },
    {
      "anonymous": false,
      "inputs": [
        {
          "indexed": true,
          "internalType": "address",
          "name": "owner",
          "type": "address"
        },
        {
          "indexed": true,
          "internalType": "address",
          "name": "operator",
          "type": "address"
        },
        {
          "indexed": false,
          "internalType": "bool",
          "name": "approved",
          "type": "bool"
        }
      ],
      "name": "ApprovalForAll",
      "type": "event"
    },
    {
      "anonymous": false,
      "inputs": [
        {
          "indexed": false,
          "internalType": "address",
          "name": "",
          "type": "address"
        },
        {
          "indexed": false,
          "internalType": "uint256",
          "name": "",
          "type": "uint256"
        }
      ],
      "name": "Fallback",
      "type": "event"
    },
    {
      "anonymous": false,
      "inputs": [
        {
          "indexed": true,
          "internalType": "address",
          "name": "previousOwner",
          "type": "address"
        },
        {
          "indexed": true,
          "internalType": "address",
          "name": "newOwner",
          "type": "address"
        }
      ],
      "name": "OwnershipTransferred",
      "type": "event"
    },
    {
      "anonymous": false,
      "inputs": [
        {
          "indexed": false,
          "internalType": "address",
          "name": "",
          "type": "address"
        },
        {
          "indexed": false,
          "internalType": "uint256",
          "name": "",
          "type": "uint256"
        }
      ],
      "name": "Received",
      "type": "event"
    },
    {
      "anonymous": false,
      "inputs": [
        {
          "indexed": true,
          "internalType": "address",
          "name": "from",
          "type": "address"
        },
        {
          "indexed": true,
          "internalType": "address",
          "name": "to",
          "type": "address"
        },
        {
          "indexed": true,
          "internalType": "uint256",
          "name": "tokenId",
          "type": "uint256"
        }
      ],
      "name": "Transfer",
      "type": "event"
    },
    {
      "stateMutability": "payable",
      "type": "fallback"
    },
    {
      "inputs": [
        {
          "internalType": "uint256",
          "name": "",
          "type": "uint256"
        }
      ],
      "name": "AllowedCrypto",
      "outputs": [
        {
          "internalType": "contract IERC20",
          "name": "paytoken",
          "type": "address"
        },
        {
          "internalType": "uint256",
          "name": "costvalue",
          "type": "uint256"
        }
      ],
      "stateMutability": "view",
      "type": "function"
    },
    {
      "inputs": [
        {
          "internalType": "contract IERC20",
          "name": "_paytoken",
          "type": "address"
        },
        {
          "internalType": "uint256",
          "name": "_costvalue",
          "type": "uint256"
        }
      ],
      "name": "addCurrency",
      "outputs": [],
      "stateMutability": "nonpayable",
      "type": "function"
    },
    {
      "inputs": [
        {
          "internalType": "address",
          "name": "to",
          "type": "address"
        },
        {
          "internalType": "uint256",
          "name": "tokenId",
          "type": "uint256"
        }
      ],
      "name": "approve",
      "outputs": [],
      "stateMutability": "nonpayable",
      "type": "function"
    },
    {
      "inputs": [
        {
          "internalType": "address",
          "name": "owner",
          "type": "address"
        }
      ],
      "name": "balanceOf",
      "outputs": [
        {
          "internalType": "uint256",
          "name": "",
          "type": "uint256"
        }
      ],
      "stateMutability": "view",
      "type": "function"
    },
    {
      "inputs": [],
      "name": "baseExtension",
      "outputs": [
        {
          "internalType": "string",
          "name": "",
          "type": "string"
        }
      ],
      "stateMutability": "view",
      "type": "function"
    },
    {
      "inputs": [],
      "name": "baseURI",
      "outputs": [
        {
          "internalType": "string",
          "name": "",
          "type": "string"
        }
      ],
      "stateMutability": "view",
      "type": "function"
    },
    {
      "inputs": [],
      "name": "cost",
      "outputs": [
        {
          "internalType": "uint256",
          "name": "",
          "type": "uint256"
        }
      ],
      "stateMutability": "view",
      "type": "function"
    },
    {
      "inputs": [
        {
          "internalType": "uint256",
          "name": "tokenId",
          "type": "uint256"
        }
      ],
      "name": "getApproved",
      "outputs": [
        {
          "internalType": "address",
          "name": "",
          "type": "address"
        }
      ],
      "stateMutability": "view",
      "type": "function"
    },
    {
      "inputs": [
        {
          "internalType": "uint256",
          "name": "_pid",
          "type": "uint256"
        }
      ],
      "name": "getCryptotoken",
      "outputs": [
        {
          "internalType": "contract IERC20",
          "name": "",
          "type": "address"
        }
      ],
      "stateMutability": "view",
      "type": "function"
    },
    {
      "inputs": [
        {
          "internalType": "uint256",
          "name": "_pid",
          "type": "uint256"
        }
      ],
      "name": "getNFTCost",
      "outputs": [
        {
          "internalType": "uint256",
          "name": "",
          "type": "uint256"
        }
      ],
      "stateMutability": "view",
      "type": "function"
    },
    {
      "inputs": [],
      "name": "getRandomNumber",
      "outputs": [
        {
          "internalType": "uint256",
          "name": "",
          "type": "uint256"
        }
      ],
      "stateMutability": "view",
      "type": "function"
    },
    {
      "inputs": [
        {
          "internalType": "address",
          "name": "owner",
          "type": "address"
        },
        {
          "internalType": "address",
          "name": "operator",
          "type": "address"
        }
      ],
      "name": "isApprovedForAll",
      "outputs": [
        {
          "internalType": "bool",
          "name": "",
          "type": "bool"
        }
      ],
      "stateMutability": "view",
      "type": "function"
    },
    {
      "inputs": [],
      "name": "maxMintAmount",
      "outputs": [
        {
          "internalType": "uint256",
          "name": "",
          "type": "uint256"
        }
      ],
      "stateMutability": "view",
      "type": "function"
    },
    {
      "inputs": [],
      "name": "maxSupply",
      "outputs": [
        {
          "internalType": "uint256",
          "name": "",
          "type": "uint256"
        }
      ],
      "stateMutability": "view",
      "type": "function"
    },
    {
      "inputs": [
        {
          "internalType": "address",
          "name": "_to",
          "type": "address"
        },
        {
          "internalType": "uint256",
          "name": "_mintAmount",
          "type": "uint256"
        }
      ],
      "name": "mint",
      "outputs": [],
      "stateMutability": "payable",
      "type": "function"
    },
    {
      "inputs": [
        {
          "internalType": "uint256[]",
          "name": "__tokenIds",
          "type": "uint256[]"
        }
      ],
      "name": "mintForDev",
      "outputs": [],
      "stateMutability": "payable",
      "type": "function"
    },
    {
      "inputs": [
        {
          "internalType": "address",
          "name": "_to",
          "type": "address"
        },
        {
          "internalType": "uint256",
          "name": "_mintAmount",
          "type": "uint256"
        },
        {
          "internalType": "uint256",
          "name": "_pid",
          "type": "uint256"
        }
      ],
      "name": "mintpid",
      "outputs": [],
      "stateMutability": "payable",
      "type": "function"
    },
    {
      "inputs": [],
      "name": "name",
      "outputs": [
        {
          "internalType": "string",
          "name": "",
          "type": "string"
        }
      ],
      "stateMutability": "view",
      "type": "function"
    },
    {
      "inputs": [],
      "name": "owner",
      "outputs": [
        {
          "internalType": "address",
          "name": "",
          "type": "address"
        }
      ],
      "stateMutability": "view",
      "type": "function"
    },
    {
      "inputs": [
        {
          "internalType": "uint256",
          "name": "tokenId",
          "type": "uint256"
        }
      ],
      "name": "ownerOf",
      "outputs": [
        {
          "internalType": "address",
          "name": "",
          "type": "address"
        }
      ],
      "stateMutability": "view",
      "type": "function"
    },
    {
      "inputs": [
        {
          "internalType": "bool",
          "name": "_state",
          "type": "bool"
        }
      ],
      "name": "pause",
      "outputs": [],
      "stateMutability": "nonpayable",
      "type": "function"
    },
    {
      "inputs": [],
      "name": "paused",
      "outputs": [
        {
          "internalType": "bool",
          "name": "",
          "type": "bool"
        }
      ],
      "stateMutability": "view",
      "type": "function"
    },
    {
      "inputs": [],
      "name": "renounceOwnership",
      "outputs": [],
      "stateMutability": "nonpayable",
      "type": "function"
    },
    {
      "inputs": [
        {
          "internalType": "address",
          "name": "from",
          "type": "address"
        },
        {
          "internalType": "address",
          "name": "to",
          "type": "address"
        },
        {
          "internalType": "uint256",
          "name": "tokenId",
          "type": "uint256"
        }
      ],
      "name": "safeTransferFrom",
      "outputs": [],
      "stateMutability": "nonpayable",
      "type": "function"
    },
    {
      "inputs": [
        {
          "internalType": "address",
          "name": "from",
          "type": "address"
        },
        {
          "internalType": "address",
          "name": "to",
          "type": "address"
        },
        {
          "internalType": "uint256",
          "name": "tokenId",
          "type": "uint256"
        },
        {
          "internalType": "bytes",
          "name": "data",
          "type": "bytes"
        }
      ],
      "name": "safeTransferFrom",
      "outputs": [],
      "stateMutability": "nonpayable",
      "type": "function"
    },
    {
      "inputs": [
        {
          "internalType": "address",
          "name": "operator",
          "type": "address"
        },
        {
          "internalType": "bool",
          "name": "approved",
          "type": "bool"
        }
      ],
      "name": "setApprovalForAll",
      "outputs": [],
      "stateMutability": "nonpayable",
      "type": "function"
    },
    {
      "inputs": [
        {
          "internalType": "string",
          "name": "_newBaseExtension",
          "type": "string"
        }
      ],
      "name": "setBaseExtension",
      "outputs": [],
      "stateMutability": "nonpayable",
      "type": "function"
    },
    {
      "inputs": [
        {
          "internalType": "string",
          "name": "_newBaseURI",
          "type": "string"
        }
      ],
      "name": "setBaseURI",
      "outputs": [],
      "stateMutability": "nonpayable",
      "type": "function"
    },
    {
      "inputs": [
        {
          "internalType": "address[]",
          "name": "_devWallets",
          "type": "address[]"
        }
      ],
      "name": "setDevWallets",
      "outputs": [],
      "stateMutability": "nonpayable",
      "type": "function"
    },
    {
      "inputs": [
        {
          "internalType": "uint256",
          "name": "_pid",
          "type": "uint256"
        },
        {
          "internalType": "uint256",
          "name": "costVal",
          "type": "uint256"
        }
      ],
      "name": "setNFTCost",
      "outputs": [],
      "stateMutability": "nonpayable",
      "type": "function"
    },
    {
      "inputs": [
        {
          "internalType": "uint256",
          "name": "_newmaxMintAmount",
          "type": "uint256"
        }
      ],
      "name": "setmaxMintAmount",
      "outputs": [],
      "stateMutability": "nonpayable",
      "type": "function"
    },
    {
      "inputs": [
        {
          "internalType": "bytes4",
          "name": "interfaceId",
          "type": "bytes4"
        }
      ],
      "name": "supportsInterface",
      "outputs": [
        {
          "internalType": "bool",
          "name": "",
          "type": "bool"
        }
      ],
      "stateMutability": "view",
      "type": "function"
    },
    {
      "inputs": [],
      "name": "symbol",
      "outputs": [
        {
          "internalType": "string",
          "name": "",
          "type": "string"
        }
      ],
      "stateMutability": "view",
      "type": "function"
    },
    {
      "inputs": [
        {
          "internalType": "uint256",
          "name": "index",
          "type": "uint256"
        }
      ],
      "name": "tokenByIndex",
      "outputs": [
        {
          "internalType": "uint256",
          "name": "",
          "type": "uint256"
        }
      ],
      "stateMutability": "view",
      "type": "function"
    },
    {
      "inputs": [
        {
          "internalType": "address",
          "name": "owner",
          "type": "address"
        },
        {
          "internalType": "uint256",
          "name": "index",
          "type": "uint256"
        }
      ],
      "name": "tokenOfOwnerByIndex",
      "outputs": [
        {
          "internalType": "uint256",
          "name": "",
          "type": "uint256"
        }
      ],
      "stateMutability": "view",
      "type": "function"
    },
    {
      "inputs": [
        {
          "internalType": "uint256",
          "name": "tokenId",
          "type": "uint256"
        }
      ],
      "name": "tokenURI",
      "outputs": [
        {
          "internalType": "string",
          "name": "",
          "type": "string"
        }
      ],
      "stateMutability": "view",
      "type": "function"
    },
    {
      "inputs": [],
      "name": "totalSupply",
      "outputs": [
        {
          "internalType": "uint256",
          "name": "",
          "type": "uint256"
        }
      ],
      "stateMutability": "view",
      "type": "function"
    },
    {
      "inputs": [
        {
          "internalType": "address",
          "name": "from",
          "type": "address"
        },
        {
          "internalType": "address",
          "name": "to",
          "type": "address"
        },
        {
          "internalType": "uint256",
          "name": "tokenId",
          "type": "uint256"
        }
      ],
      "name": "transferFrom",
      "outputs": [],
      "stateMutability": "nonpayable",
      "type": "function"
    },
    {
      "inputs": [
        {
          "internalType": "address",
          "name": "newOwner",
          "type": "address"
        }
      ],
      "name": "transferOwnership",
      "outputs": [],
      "stateMutability": "nonpayable",
      "type": "function"
    },
    {
      "inputs": [
        {
          "internalType": "address",
          "name": "_owner",
          "type": "address"
        }
      ],
      "name": "walletOfOwner",
      "outputs": [
        {
          "internalType": "uint256[]",
          "name": "",
          "type": "uint256[]"
        }
      ],
      "stateMutability": "view",
      "type": "function"
    },
    {
      "inputs": [],
      "name": "withdraw",
      "outputs": [],
      "stateMutability": "payable",
      "type": "function"
    },
    {
      "inputs": [
        {
          "internalType": "uint256",
          "name": "_pid",
          "type": "uint256"
        }
      ],
      "name": "withdrawcustom",
      "outputs": [],
      "stateMutability": "payable",
      "type": "function"
    },
    {
      "stateMutability": "payable",
      "type": "receive"
    }
  ],
  "bytecode": "0x60c06040526005608081905264173539b7b760d91b60a09081526200002891600d919062000165565b50662386f26fc10000600e55612710600f5560326010556011805460ff191690553480156200005657600080fd5b50604080518082018252600b81526a14195c19509bdc9b93919560aa1b60208083019182528351808501909452600384526228212760e91b908401528151919291620000a59160009162000165565b508051620000bb90600190602084019062000165565b505050620000d8620000d26200010f60201b60201c565b62000113565b604051806080016040528060518152602001620031066051913980516200010891600c9160209091019062000165565b5062000248565b3390565b600a80546001600160a01b038381166001600160a01b0319831681179093556040519116919082907f8be0079c531659141344cd1fd0a4f28419497f9722a3daafe3b4186f6b6457e090600090a35050565b82805462000173906200020b565b90600052602060002090601f016020900481019282620001975760008555620001e2565b82601f10620001b257805160ff1916838001178555620001e2565b82800160010185558215620001e2579182015b82811115620001e2578251825591602001919060010190620001c5565b50620001f0929150620001f4565b5090565b5b80821115620001f05760008155600101620001f5565b600181811c908216806200022057607f821691505b602082108114156200024257634e487b7160e01b600052602260045260246000fd5b50919050565b612eae80620002586000396000f3fe6080604052600436106101e55760003560e01c806301ffc9a71461025657806302329a291461028b57806306ad922a146102ad57806306fdde03146102cd578063081812fc146102ef578063095ea7b31461031c5780630c75afab1461033c57806313faede61461035c57806318160ddd14610380578063239c70ae1461039557806323b872dd146103ab57806326c91cad146103cb5780632f745c59146103f957806334cc5dca14610419578063356911b41461042c5780633ccfd60b1461043f5780633d3d55081461044757806340c10f191461046757806342842e0e1461047a578063438b63001461049a5780634f6ccce7146104c757806355f804b3146104e75780635c975abb146105075780636352211e14610521578063690e4fc3146105415780636c0360eb1461056157806370a0823114610576578063715018a614610596578063789bb662146105ab5780637f00c7a6146105be5780638da5cb5b146105de57806395d89b41146105f3578063a22cb46514610608578063b609d57d14610628578063b88d4fde14610648578063c668286214610668578063c87b56dd1461067d578063d5abeb011461069d578063da3ef23f146106b3578063dbdff2c1146106d3578063e985e9c5146106e8578063f2fde38b1461070857610225565b36610225577f88a5966d370b9919b20f3e2c13ff65706f196a4e32cc2c12bf57088f88525874333460405161021b929190612acf565b60405180910390a1005b7ffbf15a1bae5e021d024841007b692b167afd2a281a4ff0b44f47387eb388205c333460405161021b929190612acf565b34801561026257600080fd5b506102766102713660046128c2565b610728565b60405190151581526020015b60405180910390f35b34801561029757600080fd5b506102ab6102a636600461288a565b610753565b005b3480156102b957600080fd5b506102ab6102c8366004612768565b61076e565b3480156102d957600080fd5b506102e26107d1565b6040516102829190612b2c565b3480156102fb57600080fd5b5061030f61030a36600461293f565b610863565b6040516102829190612a7e565b34801561032857600080fd5b506102ab610337366004612709565b61088a565b34801561034857600080fd5b5061030f61035736600461293f565b6109a0565b34801561036857600080fd5b50610372600e5481565b604051908152602001610282565b34801561038c57600080fd5b50600854610372565b3480156103a157600080fd5b5061037260105481565b3480156103b757600080fd5b506102ab6103c6366004612620565b6109e5565b3480156103d757600080fd5b506103eb6103e636600461293f565b610a16565b604051610282929190612acf565b34801561040557600080fd5b50610372610414366004612709565b610a4e565b6102ab61042736600461293f565b610ae4565b6102ab61043a366004612734565b610c20565b6102ab610d83565b34801561045357600080fd5b5061037261046236600461293f565b610db1565b6102ab610475366004612709565b610df0565b34801561048657600080fd5b506102ab610495366004612620565b610fc7565b3480156104a657600080fd5b506104ba6104b53660046125cc565b610fe2565b6040516102829190612ae8565b3480156104d357600080fd5b506103726104e236600461293f565b61109f565b3480156104f357600080fd5b506102ab6105023660046128fa565b611140565b34801561051357600080fd5b506011546102769060ff1681565b34801561052d57600080fd5b5061030f61053c36600461293f565b61115b565b34801561054d57600080fd5b506102ab61055c366004612709565b61118f565b34801561056d57600080fd5b506102e261122c565b34801561058257600080fd5b506103726105913660046125cc565b6112ba565b3480156105a257600080fd5b506102ab611340565b6102ab6105b936600461281b565b611352565b3480156105ca57600080fd5b506102ab6105d936600461293f565b611594565b3480156105ea57600080fd5b5061030f6115a1565b3480156105ff57600080fd5b506102e26115b0565b34801561061457600080fd5b506102ab6106233660046126dc565b6115bf565b34801561063457600080fd5b506102ab61064336600461296f565b6115ca565b34801561065457600080fd5b506102ab610663366004612660565b611698565b34801561067457600080fd5b506102e26116ca565b34801561068957600080fd5b506102e261069836600461293f565b6116d7565b3480156106a957600080fd5b50610372600f5481565b3480156106bf57600080fd5b506102ab6106ce3660046128fa565b6117a5565b3480156106df57600080fd5b506103726117c0565b3480156106f457600080fd5b506102766107033660046125e8565b6117fd565b34801561071457600080fd5b506102ab6107233660046125cc565b61182b565b60006001600160e01b0319821663780e9d6360e01b148061074d575061074d826118a4565b92915050565b61075b6118f4565b6011805460ff1916911515919091179055565b6107766118f4565b60008151116107ba5760405162461bcd60e51b815260206004820152600b60248201526a656d70747920617272617960a81b60448201526064015b60405180910390fd5b80516107cd906012906020840190612487565b5050565b6060600080546107e090612d7d565b80601f016020809104026020016040519081016040528092919081815260200182805461080c90612d7d565b80156108595780601f1061082e57610100808354040283529160200191610859565b820191906000526020600020905b81548152906001019060200180831161083c57829003601f168201915b5050505050905090565b600061086e82611953565b506000908152600460205260409020546001600160a01b031690565b60006108958261115b565b9050806001600160a01b0316836001600160a01b031614156109035760405162461bcd60e51b815260206004820152602160248201527f4552433732313a20617070726f76616c20746f2063757272656e74206f776e656044820152603960f91b60648201526084016107b1565b336001600160a01b038216148061091f575061091f81336117fd565b6109915760405162461bcd60e51b815260206004820152603d60248201527f4552433732313a20617070726f76652063616c6c6572206973206e6f7420746f60448201527f6b656e206f776e6572206f7220617070726f76656420666f7220616c6c00000060648201526084016107b1565b61099b8383611978565b505050565b600080600b83815481106109c457634e487b7160e01b600052603260045260246000fd5b60009182526020909120600290910201546001600160a01b03169392505050565b6109ef33826119e6565b610a0b5760405162461bcd60e51b81526004016107b190612b64565b61099b838383611a45565b600b8181548110610a2657600080fd5b6000918252602090912060029091020180546001909101546001600160a01b03909116915082565b6000610a59836112ba565b8210610abb5760405162461bcd60e51b815260206004820152602b60248201527f455243373231456e756d657261626c653a206f776e657220696e646578206f7560448201526a74206f6620626f756e647360a81b60648201526084016107b1565b506001600160a01b03919091166000908152600660209081526040808320938352929052205490565b610aec6118f4565b6000600b8281548110610b0f57634e487b7160e01b600052603260045260246000fd5b6000918252602090912060029091020180546040516370a0823160e01b81529192506001600160a01b031690819063a9059cbb90339083906370a0823190610b5b903090600401612a7e565b60206040518083038186803b158015610b7357600080fd5b505afa158015610b87573d6000803e3d6000fd5b505050506040513d601f19601f82011682018060405250810190610bab9190612957565b6040518363ffffffff1660e01b8152600401610bc8929190612acf565b602060405180830381600087803b158015610be257600080fd5b505af1158015610bf6573d6000803e3d6000fd5b505050506040513d601f19601f82011682018060405250810190610c1a91906128a6565b50505050565b6000600b8281548110610c4357634e487b7160e01b600052603260045260246000fd5b600091825260208220600290910201805460018201549193506001600160a01b031691610c6f60085490565b60115490915060009060ff1615610c8557600080fd5b60008711610c9257600080fd5b601054871115610ca157600080fd5b600f54610cae8884612d03565b1115610cb957600080fd5b60015b878111610d78576040516323b872dd60e01b8152336004820152306024820152604481018590526001600160a01b038616906323b872dd90606401602060405180830381600087803b158015610d1157600080fd5b505af1158015610d25573d6000803e3d6000fd5b505050506040513d601f19601f82011682018060405250810190610d4991906128a6565b610d5257600080fd5b610d5a611ba4565b9150610d668983611c13565b80610d7081612db8565b915050610cbc565b505050505050505050565b610d8b6118f4565b60405133904780156108fc02916000818181858888f19350505050610daf57600080fd5b565b600080600b8381548110610dd557634e487b7160e01b600052603260045260246000fd5b60009182526020909120600160029092020101549392505050565b6000610dfb60085490565b60115490915060009060ff1615610e245760405162461bcd60e51b81526004016107b190612b3f565b60008311610e695760405162461bcd60e51b81526020600482015260126024820152711a5b9d985b1a59081b5a5b9d105b5bdd5b9d60721b60448201526064016107b1565b601054831115610eaf5760405162461bcd60e51b8152602060048201526011602482015270195e18d95959081b5a5b9d105b5bdd5b9d607a1b60448201526064016107b1565b600f54610ebc8484612d03565b1115610eff5760405162461bcd60e51b815260206004820152601260248201527165786365656420746f74616c537570706c7960701b60448201526064016107b1565b610f076115a1565b6001600160a01b0316336001600160a01b031614610f905782600e54610f2d9190612d1b565b341015610f905760405162461bcd60e51b815260206004820152602b60248201527f4e6f7420656e6f7567682062616c616e636520746f20636f6d706c657465207460448201526a3930b739b0b1ba34b7b71760a91b60648201526084016107b1565b60015b838111610fc057610fa2611ba4565b9150610fae8583611c13565b80610fb881612db8565b915050610f93565b5050505050565b61099b83838360405180602001604052806000815250611698565b60606000610fef836112ba565b90506000816001600160401b0381111561101957634e487b7160e01b600052604160045260246000fd5b604051908082528060200260200182016040528015611042578160200160208202803683370190505b50905060005b828110156110975761105a8582610a4e565b82828151811061107a57634e487b7160e01b600052603260045260246000fd5b60209081029190910101528061108f81612db8565b915050611048565b509392505050565b60006110aa60085490565b821061110d5760405162461bcd60e51b815260206004820152602c60248201527f455243373231456e756d657261626c653a20676c6f62616c20696e646578206f60448201526b7574206f6620626f756e647360a01b60648201526084016107b1565b6008828154811061112e57634e487b7160e01b600052603260045260246000fd5b90600052602060002001549050919050565b6111486118f4565b80516107cd90600c9060208401906124ec565b60008061116783611c2d565b90506001600160a01b03811661074d5760405162461bcd60e51b81526004016107b190612ca1565b6111976118f4565b604080518082019091526001600160a01b03928316815260208101918252600b805460018101825560009190915290517f0175b7a638427703f0dbe7bb9bbf987a2551717b34e79f33b5b1008d1fa01db9600290920291820180546001600160a01b0319169190941617909255517f0175b7a638427703f0dbe7bb9bbf987a2551717b34e79f33b5b1008d1fa01dba90910155565b600c805461123990612d7d565b80601f016020809104026020016040519081016040528092919081815260200182805461126590612d7d565b80156112b25780601f10611287576101008083540402835291602001916112b2565b820191906000526020600020905b81548152906001019060200180831161129557829003601f168201915b505050505081565b60006001600160a01b0382166113245760405162461bcd60e51b815260206004820152602960248201527f4552433732313a2061646472657373207a65726f206973206e6f7420612076616044820152683634b21037bbb732b960b91b60648201526084016107b1565b506001600160a01b031660009081526003602052604090205490565b6113486118f4565b610daf6000611c48565b6000805b6012548110156113b2576012818154811061138157634e487b7160e01b600052603260045260246000fd5b6000918252602090912001546001600160a01b03163314156113a257600191505b6113ab81612db8565b9050611356565b506001811515146113d55760405162461bcd60e51b81526004016107b190612c03565b60006113e060085490565b60115490915060ff16156114065760405162461bcd60e51b81526004016107b190612b3f565b6010548311156114495760405162461bcd60e51b815260206004820152600e60248201526d0e8ded6cadcd2c85ad8cadccee8d60931b60448201526064016107b1565b8261147f5760405162461bcd60e51b815260206004820152600660248201526506c6573733c360d41b60448201526064016107b1565b600f5461148c8483612d03565b11156114cc5760405162461bcd60e51b815260206004820152600f60248201526e36b0bc39bab836363c9032b93937b960891b60448201526064016107b1565b60005b83811015610fc05760006114e260085490565b600f546114ef9190612d3a565b9050600086868481811061151357634e487b7160e01b600052603260045260246000fd5b905060200201359050600061152783611c9a565b90508282111561155457600082815260146020908152604080832054835260139091529020819055611576565b6000828152601360209081526040808320849055838352601490915290208290555b6115803383611c13565b5050508061158d90612db8565b90506114cf565b61159c6118f4565b601055565b600a546001600160a01b031690565b6060600180546107e090612d7d565b6107cd338383611cb5565b6000805b60125481101561162a57601281815481106115f957634e487b7160e01b600052603260045260246000fd5b6000918252602090912001546001600160a01b031633141561161a57600191505b61162381612db8565b90506115ce565b5060018115151461164d5760405162461bcd60e51b81526004016107b190612c03565b826064141561165c57600e8290555b81600b848154811061167e57634e487b7160e01b600052603260045260246000fd5b906000526020600020906002020160010181905550505050565b6116a233836119e6565b6116be5760405162461bcd60e51b81526004016107b190612b64565b610c1a84848484611d80565b600d805461123990612d7d565b60606116e282611db3565b6117465760405162461bcd60e51b815260206004820152602f60248201527f4552433732314d657461646174613a2055524920717565727920666f72206e6f60448201526e3732bc34b9ba32b73a103a37b5b2b760891b60648201526084016107b1565b6000611750611dd0565b90506000815111611770576040518060200160405280600081525061179e565b8061177a84611ddf565b600d60405160200161178e939291906129bc565b6040516020818303038152906040525b9392505050565b6117ad6118f4565b80516107cd90600d9060208401906124ec565b60008042446040516020016117df929190918252602082015260400190565b60408051601f19818403018152919052805160209091012092915050565b6001600160a01b03918216600090815260056020908152604080832093909416825291909152205460ff1690565b6118336118f4565b6001600160a01b0381166118985760405162461bcd60e51b815260206004820152602660248201527f4f776e61626c653a206e6577206f776e657220697320746865207a65726f206160448201526564647265737360d01b60648201526084016107b1565b6118a181611c48565b50565b60006001600160e01b031982166380ac58cd60e01b14806118d557506001600160e01b03198216635b5e139f60e01b145b8061074d57506301ffc9a760e01b6001600160e01b031983161461074d565b336118fd6115a1565b6001600160a01b031614610daf5760405162461bcd60e51b815260206004820181905260248201527f4f776e61626c653a2063616c6c6572206973206e6f7420746865206f776e657260448201526064016107b1565b61195c81611db3565b6118a15760405162461bcd60e51b81526004016107b190612ca1565b600081815260046020526040902080546001600160a01b0319166001600160a01b03841690811790915581906119ad8261115b565b6001600160a01b03167f8c5be1e5ebec7d5bd14f71427d1e84f3dd0314c0f7b2291e5b200ac8c7c3b92560405160405180910390a45050565b6000806119f28361115b565b9050806001600160a01b0316846001600160a01b03161480611a195750611a1981856117fd565b80611a3d5750836001600160a01b0316611a3284610863565b6001600160a01b0316145b949350505050565b826001600160a01b0316611a588261115b565b6001600160a01b031614611a7e5760405162461bcd60e51b81526004016107b190612c26565b6001600160a01b038216611ae05760405162461bcd60e51b8152602060048201526024808201527f4552433732313a207472616e7366657220746f20746865207a65726f206164646044820152637265737360e01b60648201526084016107b1565b611aed8383836001611e81565b826001600160a01b0316611b008261115b565b6001600160a01b031614611b265760405162461bcd60e51b81526004016107b190612c26565b600081815260046020908152604080832080546001600160a01b03199081169091556001600160a01b038781168086526003855283862080546000190190559087168086528386208054600101905586865260029094528285208054909216841790915590518493600080516020612e5983398151915291a4505050565b600080611bb060085490565b600f54611bbd9190612d3a565b9050600081611bca6117c0565b611bd49190612dd3565b611bdf906001612d03565b90506000611bec82611c9a565b90506000611bf984611c9a565b600093845260136020526040909320929092559392505050565b6107cd828260405180602001604052806000815250611fae565b6000908152600260205260409020546001600160a01b031690565b600a80546001600160a01b038381166001600160a01b0319831681179093556040519116919082907f8be0079c531659141344cd1fd0a4f28419497f9722a3daafe3b4186f6b6457e090600090a35050565b6000818152601360205260408120548061074d575090919050565b816001600160a01b0316836001600160a01b03161415611d135760405162461bcd60e51b815260206004820152601960248201527822a9219b99189d1030b8383937bb32903a379031b0b63632b960391b60448201526064016107b1565b6001600160a01b03838116600081815260056020908152604080832094871680845294825291829020805460ff191686151590811790915591519182527f17307eab39ab6107e8899845ad3d59bd9653f200f220920489ca2b5937696c31910160405180910390a3505050565b611d8b848484611a45565b611d9784848484611fe1565b610c1a5760405162461bcd60e51b81526004016107b190612bb1565b600080611dbf83611c2d565b6001600160a01b0316141592915050565b6060600c80546107e090612d7d565b60606000611dec836120ee565b60010190506000816001600160401b03811115611e1957634e487b7160e01b600052604160045260246000fd5b6040519080825280601f01601f191660200182016040528015611e43576020820181803683370190505b5090508181016020015b600019016f181899199a1a9b1b9c1cb0b131b232b360811b600a86061a8153600a8504945084611e7c57611097565b611e4d565b6001811115611ef05760405162461bcd60e51b815260206004820152603560248201527f455243373231456e756d657261626c653a20636f6e7365637574697665207472604482015274185b9cd9995c9cc81b9bdd081cdd5c1c1bdc9d1959605a1b60648201526084016107b1565b816001600160a01b038516611f4c57611f4781600880546000838152600960205260408120829055600182018355919091527ff3f7a9fe364faab93b216da50a3214154f22a0a2b415b23a84c8169e8b636ee30155565b611f6f565b836001600160a01b0316856001600160a01b031614611f6f57611f6f85826121c4565b6001600160a01b038416611f8b57611f8681612261565b610fc0565b846001600160a01b0316846001600160a01b031614610fc057610fc0848261233a565b611fb8838361237e565b611fc56000848484611fe1565b61099b5760405162461bcd60e51b81526004016107b190612bb1565b60006001600160a01b0384163b156120e357604051630a85bd0160e11b81526001600160a01b0385169063150b7a0290612025903390899088908890600401612a92565b602060405180830381600087803b15801561203f57600080fd5b505af192505050801561206f575060408051601f3d908101601f1916820190925261206c918101906128de565b60015b6120c9573d80801561209d576040519150601f19603f3d011682016040523d82523d6000602084013e6120a2565b606091505b5080516120c15760405162461bcd60e51b81526004016107b190612bb1565b805181602001fd5b6001600160e01b031916630a85bd0160e11b149050611a3d565b506001949350505050565b60008072184f03e93ff9f4daa797ed6e38ed64bf6a1f0160401b831061212d5772184f03e93ff9f4daa797ed6e38ed64bf6a1f0160401b830492506040015b6904ee2d6d415b85acef8160201b8310612157576904ee2d6d415b85acef8160201b830492506020015b662386f26fc10000831061217557662386f26fc10000830492506010015b6305f5e100831061218d576305f5e100830492506008015b61271083106121a157612710830492506004015b606483106121b3576064830492506002015b600a831061074d5760010192915050565b600060016121d1846112ba565b6121db9190612d3a565b60008381526007602052604090205490915080821461222e576001600160a01b03841660009081526006602090815260408083208584528252808320548484528184208190558352600790915290208190555b5060009182526007602090815260408084208490556001600160a01b039094168352600681528383209183525290812055565b60085460009061227390600190612d3a565b600083815260096020526040812054600880549394509092849081106122a957634e487b7160e01b600052603260045260246000fd5b9060005260206000200154905080600883815481106122d857634e487b7160e01b600052603260045260246000fd5b600091825260208083209091019290925582815260099091526040808220849055858252812055600880548061231e57634e487b7160e01b600052603160045260246000fd5b6001900381819060005260206000200160009055905550505050565b6000612345836112ba565b6001600160a01b039093166000908152600660209081526040808320868452825280832085905593825260079052919091209190915550565b6001600160a01b0382166123d45760405162461bcd60e51b815260206004820181905260248201527f4552433732313a206d696e7420746f20746865207a65726f206164647265737360448201526064016107b1565b6123dd81611db3565b156123fa5760405162461bcd60e51b81526004016107b190612c6b565b612408600083836001611e81565b61241181611db3565b1561242e5760405162461bcd60e51b81526004016107b190612c6b565b6001600160a01b038216600081815260036020908152604080832080546001019055848352600290915280822080546001600160a01b031916841790555183929190600080516020612e59833981519152908290a45050565b8280548282559060005260206000209081019282156124dc579160200282015b828111156124dc57825182546001600160a01b0319166001600160a01b039091161782556020909201916001909101906124a7565b506124e8929150612560565b5090565b8280546124f890612d7d565b90600052602060002090601f01602090048101928261251a57600085556124dc565b82601f1061253357805160ff19168380011785556124dc565b828001600101855582156124dc579182015b828111156124dc578251825591602001919060010190612545565b5b808211156124e85760008155600101612561565b60006001600160401b0383111561258e5761258e612e09565b6125a1601f8401601f1916602001612cd3565b90508281528383830111156125b557600080fd5b828260208301376000602084830101529392505050565b6000602082840312156125dd578081fd5b813561179e81612e1f565b600080604083850312156125fa578081fd5b823561260581612e1f565b9150602083013561261581612e1f565b809150509250929050565b600080600060608486031215612634578081fd5b833561263f81612e1f565b9250602084013561264f81612e1f565b929592945050506040919091013590565b60008060008060808587031215612675578081fd5b843561268081612e1f565b9350602085013561269081612e1f565b92506040850135915060608501356001600160401b038111156126b1578182fd5b8501601f810187136126c1578182fd5b6126d087823560208401612575565b91505092959194509250565b600080604083850312156126ee578182fd5b82356126f981612e1f565b9150602083013561261581612e34565b6000806040838503121561271b578182fd5b823561272681612e1f565b946020939093013593505050565b600080600060608486031215612748578283fd5b833561275381612e1f565b95602085013595506040909401359392505050565b6000602080838503121561277a578182fd5b82356001600160401b0380821115612790578384fd5b818501915085601f8301126127a3578384fd5b8135818111156127b5576127b5612e09565b8060051b91506127c6848301612cd3565b8181528481019084860184860187018a10156127e0578788fd5b8795505b8386101561280e57803594506127f985612e1f565b848352600195909501949186019186016127e4565b5098975050505050505050565b6000806020838503121561282d578182fd5b82356001600160401b0380821115612843578384fd5b818501915085601f830112612856578384fd5b813581811115612864578485fd5b8660208260051b8501011115612878578485fd5b60209290920196919550909350505050565b60006020828403121561289b578081fd5b813561179e81612e34565b6000602082840312156128b7578081fd5b815161179e81612e34565b6000602082840312156128d3578081fd5b813561179e81612e42565b6000602082840312156128ef578081fd5b815161179e81612e42565b60006020828403121561290b578081fd5b81356001600160401b03811115612920578182fd5b8201601f81018413612930578182fd5b611a3d84823560208401612575565b600060208284031215612950578081fd5b5035919050565b600060208284031215612968578081fd5b5051919050565b60008060408385031215612981578182fd5b50508035926020909101359150565b600081518084526129a8816020860160208601612d51565b601f01601f19169290920160200192915050565b6000845160206129cf8285838a01612d51565b8551918401916129e28184848a01612d51565b85549201918390600181811c90808316806129fe57607f831692505b858310811415612a1c57634e487b7160e01b88526022600452602488fd5b808015612a305760018114612a4157612a6d565b60ff19851688528388019550612a6d565b60008b815260209020895b85811015612a655781548a820152908401908801612a4c565b505083880195505b50939b9a5050505050505050505050565b6001600160a01b0391909116815260200190565b6001600160a01b0385811682528416602082015260408101839052608060608201819052600090612ac590830184612990565b9695505050505050565b6001600160a01b03929092168252602082015260400190565b6020808252825182820181905260009190848201906040850190845b81811015612b2057835183529284019291840191600101612b04565b50909695505050505050565b60208152600061179e6020830184612990565b6020808252600b908201526a3830bab9b2b216b2b937b960a91b604082015260600190565b6020808252602d908201527f4552433732313a2063616c6c6572206973206e6f7420746f6b656e206f776e6560408201526c1c881bdc88185c1c1c9bdd9959609a1b606082015260800190565b60208082526032908201527f4552433732313a207472616e7366657220746f206e6f6e20455243373231526560408201527131b2b4bb32b91034b6b83632b6b2b73a32b960711b606082015260800190565b6020808252600990820152683337b93134b23232b760b91b604082015260600190565b60208082526025908201527f4552433732313a207472616e736665722066726f6d20696e636f72726563742060408201526437bbb732b960d91b606082015260800190565b6020808252601c908201527b115490cdcc8c4e881d1bdad95b88185b1c9958591e481b5a5b9d195960221b604082015260600190565b602080825260189082015277115490cdcc8c4e881a5b9d985b1a59081d1bdad95b88125160421b604082015260600190565b604051601f8201601f191681016001600160401b0381118282101715612cfb57612cfb612e09565b604052919050565b60008219821115612d1657612d16612df3565b500190565b6000816000190483118215151615612d3557612d35612df3565b500290565b600082821015612d4c57612d4c612df3565b500390565b60005b83811015612d6c578181015183820152602001612d54565b83811115610c1a5750506000910152565b600181811c90821680612d9157607f821691505b60208210811415612db257634e487b7160e01b600052602260045260246000fd5b50919050565b6000600019821415612dcc57612dcc612df3565b5060010190565b600082612dee57634e487b7160e01b81526012600452602481fd5b500690565b634e487b7160e01b600052601160045260246000fd5b634e487b7160e01b600052604160045260246000fd5b6001600160a01b03811681146118a157600080fd5b80151581146118a157600080fd5b6001600160e01b0319811681146118a157600080fdfeddf252ad1be2c89b69c2b068fc378daa952ba7f163c4a11628f55a4df523b3efa264697066735822122070ea745f548a1d290ff4fed0c734716df19438c9e100c1a0b84e21d5b4caf1da64736f6c6343000804003368747470733a2f2f697066732e696f2f697066732f6261667962656965707a673665376f65733269666467786d6e36616e657065746d6e7167697168343274626a6a6e687634756b78356c6c373367612f",
  "linkReferences": {},
  "deployedLinkReferences": {}
}