{
  "_format": "hh-sol-artifact-1",
  "contractName": "NFTStaking",
  "sourceName": "contracts/nftStaking.sol",
  "abi": [
    {
      "inputs": [
        {
          "internalType": "address",
          "name": "_nft",
          "type": "address"
        },
        {
          "internalType": "address",
          "name": "_token",
          "type": "address"
        }
      ],
      "stateMutability": "nonpayable",
      "type": "constructor"
    },
    {
      "anonymous": false,
      "inputs": [
        {
          "indexed": false,
          "internalType": "address",
          "name": "owner",
          "type": "address"
        },
        {
          "indexed": false,
          "internalType": "uint256",
          "name": "amount",
          "type": "uint256"
        }
      ],
      "name": "Claimed",
      "type": "event"
    },
    {
      "anonymous": false,
      "inputs": [
        {
          "indexed": false,
          "internalType": "address",
          "name": "",
          "type": "address"
        },
        {
          "indexed": false,
          "internalType": "uint256",
          "name": "",
          "type": "uint256"
        }
      ],
      "name": "Fallback",
      "type": "event"
    },
    {
      "anonymous": false,
      "inputs": [
        {
          "indexed": false,
          "internalType": "address",
          "name": "owner",
          "type": "address"
        },
        {
          "indexed": false,
          "internalType": "uint256",
          "name": "tokenId",
          "type": "uint256"
        },
        {
          "indexed": false,
          "internalType": "uint256",
          "name": "value",
          "type": "uint256"
        }
      ],
      "name": "NFTStaked",
      "type": "event"
    },
    {
      "anonymous": false,
      "inputs": [
        {
          "indexed": false,
          "internalType": "address",
          "name": "owner",
          "type": "address"
        },
        {
          "indexed": false,
          "internalType": "uint256",
          "name": "tokenId",
          "type": "uint256"
        },
        {
          "indexed": false,
          "internalType": "uint256",
          "name": "value",
          "type": "uint256"
        }
      ],
      "name": "NFTUnstaked",
      "type": "event"
    },
    {
      "anonymous": false,
      "inputs": [
        {
          "indexed": true,
          "internalType": "address",
          "name": "previousOwner",
          "type": "address"
        },
        {
          "indexed": true,
          "internalType": "address",
          "name": "newOwner",
          "type": "address"
        }
      ],
      "name": "OwnershipTransferred",
      "type": "event"
    },
    {
      "anonymous": false,
      "inputs": [
        {
          "indexed": false,
          "internalType": "address",
          "name": "",
          "type": "address"
        },
        {
          "indexed": false,
          "internalType": "uint256",
          "name": "",
          "type": "uint256"
        }
      ],
      "name": "Received",
      "type": "event"
    },
    {
      "stateMutability": "payable",
      "type": "fallback"
    },
    {
      "inputs": [
        {
          "internalType": "address",
          "name": "account",
          "type": "address"
        }
      ],
      "name": "balanceOf",
      "outputs": [
        {
          "internalType": "uint256",
          "name": "",
          "type": "uint256"
        }
      ],
      "stateMutability": "view",
      "type": "function"
    },
    {
      "inputs": [
        {
          "internalType": "uint256[]",
          "name": "tokenIds",
          "type": "uint256[]"
        }
      ],
      "name": "claim",
      "outputs": [],
      "stateMutability": "nonpayable",
      "type": "function"
    },
    {
      "inputs": [
        {
          "internalType": "address",
          "name": "account",
          "type": "address"
        },
        {
          "internalType": "uint256[]",
          "name": "tokenIds",
          "type": "uint256[]"
        }
      ],
      "name": "claimForAddress",
      "outputs": [],
      "stateMutability": "nonpayable",
      "type": "function"
    },
    {
      "inputs": [
        {
          "internalType": "address",
          "name": "account",
          "type": "address"
        },
        {
          "internalType": "uint256[]",
          "name": "tokenIds",
          "type": "uint256[]"
        }
      ],
      "name": "earningInfo",
      "outputs": [
        {
          "internalType": "uint256[1]",
          "name": "info",
          "type": "uint256[1]"
        }
      ],
      "stateMutability": "view",
      "type": "function"
    },
    {
      "inputs": [],
      "name": "isStart",
      "outputs": [
        {
          "internalType": "bool",
          "name": "",
          "type": "bool"
        }
      ],
      "stateMutability": "view",
      "type": "function"
    },
    {
      "inputs": [
        {
          "internalType": "address",
          "name": "",
          "type": "address"
        },
        {
          "internalType": "address",
          "name": "from",
          "type": "address"
        },
        {
          "internalType": "uint256",
          "name": "",
          "type": "uint256"
        },
        {
          "internalType": "bytes",
          "name": "",
          "type": "bytes"
        }
      ],
      "name": "onERC721Received",
      "outputs": [
        {
          "internalType": "bytes4",
          "name": "",
          "type": "bytes4"
        }
      ],
      "stateMutability": "pure",
      "type": "function"
    },
    {
      "inputs": [],
      "name": "owner",
      "outputs": [
        {
          "internalType": "address",
          "name": "",
          "type": "address"
        }
      ],
      "stateMutability": "view",
      "type": "function"
    },
    {
      "inputs": [],
      "name": "renounceOwnership",
      "outputs": [],
      "stateMutability": "nonpayable",
      "type": "function"
    },
    {
      "inputs": [
        {
          "internalType": "bool",
          "name": "_isStart",
          "type": "bool"
        }
      ],
      "name": "setStartStatus",
      "outputs": [],
      "stateMutability": "nonpayable",
      "type": "function"
    },
    {
      "inputs": [
        {
          "internalType": "uint256",
          "name": "_tokenPrice",
          "type": "uint256"
        }
      ],
      "name": "setTokenPrice",
      "outputs": [],
      "stateMutability": "nonpayable",
      "type": "function"
    },
    {
      "inputs": [
        {
          "internalType": "uint256[]",
          "name": "tokenIds",
          "type": "uint256[]"
        }
      ],
      "name": "stake",
      "outputs": [],
      "stateMutability": "nonpayable",
      "type": "function"
    },
    {
      "inputs": [],
      "name": "tokenPrice",
      "outputs": [
        {
          "internalType": "uint256",
          "name": "",
          "type": "uint256"
        }
      ],
      "stateMutability": "view",
      "type": "function"
    },
    {
      "inputs": [
        {
          "internalType": "address",
          "name": "account",
          "type": "address"
        }
      ],
      "name": "tokensOfOwner",
      "outputs": [
        {
          "internalType": "uint256[]",
          "name": "ownerTokens",
          "type": "uint256[]"
        }
      ],
      "stateMutability": "view",
      "type": "function"
    },
    {
      "inputs": [],
      "name": "totalStaked",
      "outputs": [
        {
          "internalType": "uint256",
          "name": "",
          "type": "uint256"
        }
      ],
      "stateMutability": "view",
      "type": "function"
    },
    {
      "inputs": [
        {
          "internalType": "address",
          "name": "newOwner",
          "type": "address"
        }
      ],
      "name": "transferOwnership",
      "outputs": [],
      "stateMutability": "nonpayable",
      "type": "function"
    },
    {
      "inputs": [
        {
          "internalType": "uint256[]",
          "name": "tokenIds",
          "type": "uint256[]"
        }
      ],
      "name": "unstake",
      "outputs": [],
      "stateMutability": "nonpayable",
      "type": "function"
    },
    {
      "inputs": [
        {
          "internalType": "uint256",
          "name": "",
          "type": "uint256"
        }
      ],
      "name": "vault",
      "outputs": [
        {
          "internalType": "uint24",
          "name": "tokenId",
          "type": "uint24"
        },
        {
          "internalType": "uint48",
          "name": "timestamp",
          "type": "uint48"
        },
        {
          "internalType": "address",
          "name": "owner",
          "type": "address"
        }
      ],
      "stateMutability": "view",
      "type": "function"
    },
    {
      "stateMutability": "payable",
      "type": "receive"
    }
  ],
  "bytecode": "0x60806040523480156200001157600080fd5b50604051620016b1380380620016b18339810160408190526200003491620000f2565b6200003f3362000085565b60048054610100600160a81b0319166101006001600160a01b0394851602179055600580546001600160a01b031916919092161790556509184e72a00060035562000129565b600080546001600160a01b038381166001600160a01b0319831681178455604051919092169283917f8be0079c531659141344cd1fd0a4f28419497f9722a3daafe3b4186f6b6457e09190a35050565b80516001600160a01b0381168114620000ed57600080fd5b919050565b6000806040838503121562000105578182fd5b6200011083620000d5565b91506200012060208401620000d5565b90509250929050565b61157880620001396000396000f3fe6080604052600436106100d25760003560e01c8063094be381146101435780630fbf0a9314610165578063150b7a02146101855780636a61e5fc146101c35780636ba4c138146101e357806370a0823114610203578063715018a6146102475780637e75dd601461025c5780637ff9b59614610289578063817b1cd21461029f57806381a36fb6146102b55780638462151c1461033a5780638a55d36e146103675780638da5cb5b14610391578063c36be357146103be578063e449f341146103de578063f2fde38b146103fe57610112565b36610112577f88a5966d370b9919b20f3e2c13ff65706f196a4e32cc2c12bf57088f8852587433346040516101089291906113aa565b60405180910390a1005b7ffbf15a1bae5e021d024841007b692b167afd2a281a4ff0b44f47387eb388205c33346040516101089291906113aa565b34801561014f57600080fd5b5061016361015e366004611336565b61041e565b005b34801561017157600080fd5b506101636101803660046112f7565b610439565b34801561019157600080fd5b506101a56101a036600461120c565b610714565b6040516001600160e01b031990911681526020015b60405180910390f35b3480156101cf57600080fd5b506101636101de36600461136e565b61078a565b3480156101ef57600080fd5b506101636101fe3660046112f7565b610797565b34801561020f57600080fd5b5061023961021e3660046111d4565b6001600160a01b031660009081526002602052604090205490565b6040519081526020016101ba565b34801561025357600080fd5b506101636107a8565b34801561026857600080fd5b5061027c6102773660046112a5565b6107bc565b6040516101ba91906113e4565b34801561029557600080fd5b5061023960035481565b3480156102ab57600080fd5b5061023960015481565b3480156102c157600080fd5b506103096102d036600461136e565b60066020526000908152604090205462ffffff8116906301000000810465ffffffffffff1690600160481b90046001600160a01b031683565b6040805162ffffff909416845265ffffffffffff90921660208401526001600160a01b0316908201526060016101ba565b34801561034657600080fd5b5061035a6103553660046111d4565b610902565b6040516101ba9190611416565b34801561037357600080fd5b506004546103819060ff1681565b60405190151581526020016101ba565b34801561039d57600080fd5b506103a661096e565b6040516001600160a01b0390911681526020016101ba565b3480156103ca57600080fd5b506101636103d93660046112a5565b61097d565b3480156103ea57600080fd5b506101636103f93660046112f7565b61098f565b34801561040a57600080fd5b506101636104193660046111d4565b61099c565b610426610a15565b6004805460ff1916911515919091179055565b600082829050600160008282546104509190611480565b90915550600090505b8281101561070e5783838281811061048157634e487b7160e01b600052603260045260246000fd5b600480546040516331a9108f60e11b8152602090930294909401359550339361010090046001600160a01b03169250636352211e916104c69187910190815260200190565b60206040518083038186803b1580156104de57600080fd5b505afa1580156104f2573d6000803e3d6000fd5b505050506040513d601f19601f8201168201806040525081019061051691906111f0565b6001600160a01b0316146105625760405162461bcd60e51b815260206004820152600e60248201526d3737ba103cb7bab9103a37b5b2b760911b60448201526064015b60405180910390fd5b60008281526006602052604090205462ffffff16156105b45760405162461bcd60e51b815260206004820152600e60248201526d185b1c9958591e481cdd185ad95960921b6044820152606401610559565b600480546040516323b872dd60e01b81526101009091046001600160a01b0316916323b872dd916105eb9133913091889101611386565b600060405180830381600087803b15801561060557600080fd5b505af1158015610619573d6000803e3d6000fd5b505050507f36b3725f1783bad4ff05b7f4c077c3aa68eeb23a4d054ba189db4d01ac278d39338342604051610650939291906113c3565b60405180910390a1336000818152600260209081526040808320805460018101825590845282842001869055805160608101825262ffffff808816825265ffffffffffff42811683860190815283850197885289875260069095529290942090518154935195516001600160a01b0316600160481b02600160481b600160e81b0319969093166301000000026001600160481b0319909416941693909317919091179290921691909117905580610706816114ee565b915050610459565b50505050565b60006001600160a01b038516156107785760405162461bcd60e51b815260206004820152602260248201527f43616e6e6f742073656e64206e66747320746f205661756c74206469726563746044820152616c7960f01b6064820152608401610559565b50630a85bd0160e11b95945050505050565b610792610a15565b600355565b6107a43383836000610a74565b5050565b6107b0610a15565b6107ba6000610da4565b565b6107c461116d565b60008080805b858110156108d7578686828181106107f257634e487b7160e01b600052603260045260246000fd5b602090810292909201356000818152600684526040908190208151606081018352905462ffffff8116825265ffffffffffff6301000000820416958201959095526001600160a01b03600160481b909504851691810182905291975090928b161490506108715760405162461bcd60e51b81526004016105599061145a565b602081015165ffffffffffff166201518061088c82426114d7565b61089f9068056bc75e2d631000006114b8565b6108a99190611498565b93506108b6606485611498565b6108c09086611480565b9450505080806108cf906114ee565b9150506107ca565b5081156108f75760405180602001604052808381525093505050506108fb565b5050505b9392505050565b6001600160a01b03811660009081526002602090815260409182902080548351818402810184019094528084526060939283018282801561096257602002820191906000526020600020905b81548152602001906001019080831161094e575b50505050509050919050565b6000546001600160a01b031690565b61098a8383836000610a74565b505050565b6107a43383836001610a74565b6109a4610a15565b6001600160a01b038116610a095760405162461bcd60e51b815260206004820152602660248201527f4f776e61626c653a206e6577206f776e657220697320746865207a65726f206160448201526564647265737360d01b6064820152608401610559565b610a1281610da4565b50565b33610a1e61096e565b6001600160a01b0316146107ba5760405162461bcd60e51b815260206004820181905260248201527f4f776e61626c653a2063616c6c6572206973206e6f7420746865206f776e65726044820152606401610559565b60008080805b85811015610c4b57868682818110610aa257634e487b7160e01b600052603260045260246000fd5b602090810292909201356000818152600684526040908190208151606081018352905462ffffff8116825265ffffffffffff6301000000820416958201959095526001600160a01b03600160481b909504851691810182905291975090928b16149050610b215760405162461bcd60e51b81526004016105599061145a565b602081015165ffffffffffff1662015180610b3c82426114d7565b610b4f9068056bc75e2d631000006114b8565b610b599190611498565b9350610b66606485611498565b610b709086611480565b945060405180606001604052808762ffffff1681526020014265ffffffffffff1681526020018b6001600160a01b03168152506006600088815260200190815260200160002060008201518160000160006101000a81548162ffffff021916908362ffffff16021790555060208201518160000160036101000a81548165ffffffffffff021916908365ffffffffffff16021790555060408201518160000160096101000a8154816001600160a01b0302191690836001600160a01b0316021790555090505050508080610c43906114ee565b915050610a7a565b508115610d515760045460ff16610ccb576000670de0b6b3a764000060035484610c7591906114b8565b610c7f9190611498565b905060008111610c8e57600080fd5b6040516001600160a01b0389169082156108fc029083906000818181858888f19350505050158015610cc4573d6000803e3d6000fd5b5050610d51565b60055460405163a9059cbb60e01b81526001600160a01b039091169063a9059cbb90610cfd908a9086906004016113aa565b602060405180830381600087803b158015610d1757600080fd5b505af1158015610d2b573d6000803e3d6000fd5b505050506040513d601f19601f82011682018060405250810190610d4f9190611352565b505b8315610d6257610d62878787610df4565b7fd8138f8a3f377c5259ca548e70e4c2de94f129f5a11036a15b69513cba2b426a8783604051610d939291906113aa565b60405180910390a150505050505050565b600080546001600160a01b038381166001600160a01b0319831681178455604051919092169283917f8be0079c531659141344cd1fd0a4f28419497f9722a3daafe3b4186f6b6457e09190a35050565b60008060008484905060016000828254610e0e91906114d7565b90915550600090505b8481101561116457858582818110610e3f57634e487b7160e01b600052603260045260246000fd5b602090810292909201356000818152600684526040908190208151606081018352905462ffffff8116825265ffffffffffff6301000000820416958201959095526001600160a01b03600160481b909504851691810182905291975090928a16149050610ebe5760405162461bcd60e51b81526004016105599061145a565b6000858152600660205260409081902080546001600160e81b0319169055517fc486b9458a8637650d84d262414833a5a457bc91ae86b7da110386c8c3fa255b90610f0e908a90889042906113c3565b60405180910390a1600480546040516323b872dd60e01b81526101009091046001600160a01b0316916323b872dd91610f4d9130918d918b9101611386565b600060405180830381600087803b158015610f6757600080fd5b505af1158015610f7b573d6000803e3d6000fd5b5050506001600160a01b0389166000908152600260205260408120549095509350505b82841015611009576001600160a01b0388166000908152600260205260409020805486919086908110610fe157634e487b7160e01b600052603260045260246000fd5b90600052602060002001541415610ff757611009565b83611001816114ee565b945050610f9e565b6110146001846114d7565b8410156110b8576001600160a01b038816600090815260026020526040902061103e6001856114d7565b8154811061105c57634e487b7160e01b600052603260045260246000fd5b9060005260206000200154600260008a6001600160a01b03166001600160a01b0316815260200190815260200160002085815481106110ab57634e487b7160e01b600052603260045260246000fd5b6000918252602090912001555b6001600160a01b03881660009081526002602052604090206110db6001856114d7565b815481106110f957634e487b7160e01b600052603260045260246000fd5b600091825260208083209091018290556001600160a01b038a168252600290526040902080548061113a57634e487b7160e01b600052603160045260246000fd5b6001900381819060005260206000200160009055905550808061115c906114ee565b915050610e17565b50505050505050565b60405180602001604052806001906020820280368337509192915050565b60008083601f84011261119c578182fd5b5081356001600160401b038111156111b2578182fd5b6020830191508360208260051b85010111156111cd57600080fd5b9250929050565b6000602082840312156111e5578081fd5b81356108fb8161151f565b600060208284031215611201578081fd5b81516108fb8161151f565b600080600080600060808688031215611223578081fd5b853561122e8161151f565b9450602086013561123e8161151f565b93506040860135925060608601356001600160401b0380821115611260578283fd5b818801915088601f830112611273578283fd5b813581811115611281578384fd5b896020828501011115611292578384fd5b9699959850939650602001949392505050565b6000806000604084860312156112b9578283fd5b83356112c48161151f565b925060208401356001600160401b038111156112de578283fd5b6112ea8682870161118b565b9497909650939450505050565b60008060208385031215611309578182fd5b82356001600160401b0381111561131e578283fd5b61132a8582860161118b565b90969095509350505050565b600060208284031215611347578081fd5b81356108fb81611534565b600060208284031215611363578081fd5b81516108fb81611534565b60006020828403121561137f578081fd5b5035919050565b6001600160a01b039384168152919092166020820152604081019190915260600190565b6001600160a01b03929092168252602082015260400190565b6001600160a01b039390931683526020830191909152604082015260600190565b602081810190828460005b600181101561140c578151835291830191908301906001016113ef565b5050505092915050565b6020808252825182820181905260009190848201906040850190845b8181101561144e57835183529284019291840191600101611432565b50909695505050505050565b6020808252600c908201526b3737ba1030b71037bbb732b960a11b604082015260600190565b6000821982111561149357611493611509565b500190565b6000826114b357634e487b7160e01b81526012600452602481fd5b500490565b60008160001904831182151516156114d2576114d2611509565b500290565b6000828210156114e9576114e9611509565b500390565b600060001982141561150257611502611509565b5060010190565b634e487b7160e01b600052601160045260246000fd5b6001600160a01b0381168114610a1257600080fd5b8015158114610a1257600080fdfea26469706673582212205d32d43f4f20506c0522d87bfe3c1597f6064bd7c67f68a2252a635fd519cfca64736f6c63430008040033",
  "linkReferences": {},
  "deployedLinkReferences": {}
}