{
  "_format": "hh-sol-artifact-1",
  "contractName": "PepeBorn",
  "sourceName": "contracts/token.sol",
  "abi": [
    {
      "inputs": [],
      "stateMutability": "nonpayable",
      "type": "constructor"
    },
    {
      "anonymous": false,
      "inputs": [
        {
          "indexed": true,
          "internalType": "address",
          "name": "owner",
          "type": "address"
        },
        {
          "indexed": true,
          "internalType": "address",
          "name": "spender",
          "type": "address"
        },
        {
          "indexed": false,
          "internalType": "uint256",
          "name": "value",
          "type": "uint256"
        }
      ],
      "name": "Approval",
      "type": "event"
    },
    {
      "anonymous": false,
      "inputs": [
        {
          "indexed": true,
          "internalType": "address",
          "name": "previousOwner",
          "type": "address"
        },
        {
          "indexed": true,
          "internalType": "address",
          "name": "newOwner",
          "type": "address"
        }
      ],
      "name": "OwnershipTransferred",
      "type": "event"
    },
    {
      "anonymous": false,
      "inputs": [
        {
          "indexed": true,
          "internalType": "address",
          "name": "from",
          "type": "address"
        },
        {
          "indexed": true,
          "internalType": "address",
          "name": "to",
          "type": "address"
        },
        {
          "indexed": false,
          "internalType": "uint256",
          "name": "value",
          "type": "uint256"
        }
      ],
      "name": "Transfer",
      "type": "event"
    },
    {
      "inputs": [
        {
          "internalType": "address",
          "name": "controller",
          "type": "address"
        }
      ],
      "name": "addController",
      "outputs": [],
      "stateMutability": "nonpayable",
      "type": "function"
    },
    {
      "inputs": [
        {
          "internalType": "address",
          "name": "owner",
          "type": "address"
        },
        {
          "internalType": "address",
          "name": "spender",
          "type": "address"
        }
      ],
      "name": "allowance",
      "outputs": [
        {
          "internalType": "uint256",
          "name": "",
          "type": "uint256"
        }
      ],
      "stateMutability": "view",
      "type": "function"
    },
    {
      "inputs": [
        {
          "internalType": "address",
          "name": "spender",
          "type": "address"
        },
        {
          "internalType": "uint256",
          "name": "amount",
          "type": "uint256"
        }
      ],
      "name": "approve",
      "outputs": [
        {
          "internalType": "bool",
          "name": "",
          "type": "bool"
        }
      ],
      "stateMutability": "nonpayable",
      "type": "function"
    },
    {
      "inputs": [
        {
          "internalType": "address",
          "name": "account",
          "type": "address"
        }
      ],
      "name": "balanceOf",
      "outputs": [
        {
          "internalType": "uint256",
          "name": "",
          "type": "uint256"
        }
      ],
      "stateMutability": "view",
      "type": "function"
    },
    {
      "inputs": [
        {
          "internalType": "uint256",
          "name": "amount",
          "type": "uint256"
        }
      ],
      "name": "burn",
      "outputs": [],
      "stateMutability": "nonpayable",
      "type": "function"
    },
    {
      "inputs": [
        {
          "internalType": "address",
          "name": "account",
          "type": "address"
        },
        {
          "internalType": "uint256",
          "name": "amount",
          "type": "uint256"
        }
      ],
      "name": "burnFrom",
      "outputs": [],
      "stateMutability": "nonpayable",
      "type": "function"
    },
    {
      "inputs": [],
      "name": "decimals",
      "outputs": [
        {
          "internalType": "uint8",
          "name": "",
          "type": "uint8"
        }
      ],
      "stateMutability": "view",
      "type": "function"
    },
    {
      "inputs": [
        {
          "internalType": "address",
          "name": "spender",
          "type": "address"
        },
        {
          "internalType": "uint256",
          "name": "subtractedValue",
          "type": "uint256"
        }
      ],
      "name": "decreaseAllowance",
      "outputs": [
        {
          "internalType": "bool",
          "name": "",
          "type": "bool"
        }
      ],
      "stateMutability": "nonpayable",
      "type": "function"
    },
    {
      "inputs": [
        {
          "internalType": "address",
          "name": "spender",
          "type": "address"
        },
        {
          "internalType": "uint256",
          "name": "addedValue",
          "type": "uint256"
        }
      ],
      "name": "increaseAllowance",
      "outputs": [
        {
          "internalType": "bool",
          "name": "",
          "type": "bool"
        }
      ],
      "stateMutability": "nonpayable",
      "type": "function"
    },
    {
      "inputs": [
        {
          "internalType": "address",
          "name": "to",
          "type": "address"
        },
        {
          "internalType": "uint256",
          "name": "amount",
          "type": "uint256"
        }
      ],
      "name": "mint",
      "outputs": [],
      "stateMutability": "nonpayable",
      "type": "function"
    },
    {
      "inputs": [],
      "name": "name",
      "outputs": [
        {
          "internalType": "string",
          "name": "",
          "type": "string"
        }
      ],
      "stateMutability": "view",
      "type": "function"
    },
    {
      "inputs": [],
      "name": "owner",
      "outputs": [
        {
          "internalType": "address",
          "name": "",
          "type": "address"
        }
      ],
      "stateMutability": "view",
      "type": "function"
    },
    {
      "inputs": [
        {
          "internalType": "address",
          "name": "controller",
          "type": "address"
        }
      ],
      "name": "removeController",
      "outputs": [],
      "stateMutability": "nonpayable",
      "type": "function"
    },
    {
      "inputs": [],
      "name": "renounceOwnership",
      "outputs": [],
      "stateMutability": "nonpayable",
      "type": "function"
    },
    {
      "inputs": [],
      "name": "symbol",
      "outputs": [
        {
          "internalType": "string",
          "name": "",
          "type": "string"
        }
      ],
      "stateMutability": "view",
      "type": "function"
    },
    {
      "inputs": [],
      "name": "totalSupply",
      "outputs": [
        {
          "internalType": "uint256",
          "name": "",
          "type": "uint256"
        }
      ],
      "stateMutability": "view",
      "type": "function"
    },
    {
      "inputs": [
        {
          "internalType": "address",
          "name": "to",
          "type": "address"
        },
        {
          "internalType": "uint256",
          "name": "amount",
          "type": "uint256"
        }
      ],
      "name": "transfer",
      "outputs": [
        {
          "internalType": "bool",
          "name": "",
          "type": "bool"
        }
      ],
      "stateMutability": "nonpayable",
      "type": "function"
    },
    {
      "inputs": [
        {
          "internalType": "address",
          "name": "from",
          "type": "address"
        },
        {
          "internalType": "address",
          "name": "to",
          "type": "address"
        },
        {
          "internalType": "uint256",
          "name": "amount",
          "type": "uint256"
        }
      ],
      "name": "transferFrom",
      "outputs": [
        {
          "internalType": "bool",
          "name": "",
          "type": "bool"
        }
      ],
      "stateMutability": "nonpayable",
      "type": "function"
    },
    {
      "inputs": [
        {
          "internalType": "address",
          "name": "newOwner",
          "type": "address"
        }
      ],
      "name": "transferOwnership",
      "outputs": [],
      "stateMutability": "nonpayable",
      "type": "function"
    }
  ],
  "bytecode": "0x60806040523480156200001157600080fd5b50604051806040016040528060088152602001672832b832a137b93760c11b8152506040518060400160405280600381526020016214109560ea1b815250816003908051906020019062000067929190620001d7565b5080516200007d906004906020840190620001d7565b5050506200009a62000094620000bb60201b60201c565b620000bf565b6c0122ce41502f4d156990000000620000b4338262000111565b50620002df565b3390565b600580546001600160a01b038381166001600160a01b0319831681179093556040519116919082907f8be0079c531659141344cd1fd0a4f28419497f9722a3daafe3b4186f6b6457e090600090a35050565b6001600160a01b0382166200016c5760405162461bcd60e51b815260206004820152601f60248201527f45524332303a206d696e7420746f20746865207a65726f206164647265737300604482015260640160405180910390fd5b80600260008282546200018091906200027d565b90915550506001600160a01b038216600081815260208181526040808320805486019055518481527fddf252ad1be2c89b69c2b068fc378daa952ba7f163c4a11628f55a4df523b3ef910160405180910390a35050565b828054620001e590620002a2565b90600052602060002090601f01602090048101928262000209576000855562000254565b82601f106200022457805160ff191683800117855562000254565b8280016001018555821562000254579182015b828111156200025457825182559160200191906001019062000237565b506200026292915062000266565b5090565b5b8082111562000262576000815560010162000267565b600082198211156200029d57634e487b7160e01b81526011600452602481fd5b500190565b600181811c90821680620002b757607f821691505b60208210811415620002d957634e487b7160e01b600052602260045260246000fd5b50919050565b610dea80620002ef6000396000f3fe608060405234801561001057600080fd5b50600436106100f15760003560e01c806306fdde03146100f6578063095ea7b31461011457806318160ddd1461013757806323b872dd14610149578063313ce5671461015c578063395093511461016b57806340c10f191461017e57806342966c681461019357806370a08231146101a6578063715018a6146101cf57806379cc6790146101d75780638da5cb5b146101ea57806395d89b411461020a578063a457c2d714610212578063a7fc7a0714610225578063a9059cbb14610238578063dd62ed3e1461024b578063f2fde38b1461025e578063f6a74ed714610271575b600080fd5b6100fe610284565b60405161010b9190610ce2565b60405180910390f35b610127610122366004610ca1565b610316565b604051901515815260200161010b565b6002545b60405190815260200161010b565b610127610157366004610c66565b61032e565b6040516012815260200161010b565b610127610179366004610ca1565b610352565b61019161018c366004610ca1565b610374565b005b6101916101a1366004610cca565b610451565b61013b6101b4366004610c13565b6001600160a01b031660009081526020819052604090205490565b61019161045e565b6101916101e5366004610ca1565b610472565b6101f261049e565b6040516001600160a01b03909116815260200161010b565b6100fe6104ad565b610127610220366004610ca1565b6104bc565b610191610233366004610c13565b610537565b610127610246366004610ca1565b610563565b61013b610259366004610c34565b610571565b61019161026c366004610c13565b61059c565b61019161027f366004610c13565b610612565b60606003805461029390610d59565b80601f01602080910402602001604051908101604052809291908181526020018280546102bf90610d59565b801561030c5780601f106102e15761010080835404028352916020019161030c565b820191906000526020600020905b8154815290600101906020018083116102ef57829003601f168201915b5050505050905090565b60003361032481858561063b565b5060019392505050565b60003361033c858285610760565b6103478585856107da565b506001949350505050565b6000336103248185856103658383610571565b61036f9190610d35565b61063b565b3360009081526007602052604090205460ff166103d45760405162461bcd60e51b815260206004820152601960248201527813db9b1e4818dbdb9d1c9bdb1b195c9cc818d85b881b5a5b9d603a1b60448201526064015b60405180910390fd5b680a18f07d736b90be55601d1b816103eb60025490565b6103f59190610d35565b11156104435760405162461bcd60e51b815260206004820152601f60248201527f4d6178696d756d20737570706c7920686173206265656e20726561636865640060448201526064016103cb565b61044d828261096c565b5050565b61045b3382610a19565b50565b610466610b31565b6104706000610b90565b565b3360009081526007602052604090205460ff16156104945761044d8282610a19565b61044d8282610be2565b6005546001600160a01b031690565b60606004805461029390610d59565b600033816104ca8286610571565b90508381101561052a5760405162461bcd60e51b815260206004820152602560248201527f45524332303a2064656372656173656420616c6c6f77616e63652062656c6f77604482015264207a65726f60d81b60648201526084016103cb565b610347828686840361063b565b61053f610b31565b6001600160a01b03166000908152600760205260409020805460ff19166001179055565b6000336103248185856107da565b6001600160a01b03918216600090815260016020908152604080832093909416825291909152205490565b6105a4610b31565b6001600160a01b0381166106095760405162461bcd60e51b815260206004820152602660248201527f4f776e61626c653a206e6577206f776e657220697320746865207a65726f206160448201526564647265737360d01b60648201526084016103cb565b61045b81610b90565b61061a610b31565b6001600160a01b03166000908152600760205260409020805460ff19169055565b6001600160a01b03831661069d5760405162461bcd60e51b8152602060048201526024808201527f45524332303a20617070726f76652066726f6d20746865207a65726f206164646044820152637265737360e01b60648201526084016103cb565b6001600160a01b0382166106fe5760405162461bcd60e51b815260206004820152602260248201527f45524332303a20617070726f766520746f20746865207a65726f206164647265604482015261737360f01b60648201526084016103cb565b6001600160a01b0383811660008181526001602090815260408083209487168084529482529182902085905590518481527f8c5be1e5ebec7d5bd14f71427d1e84f3dd0314c0f7b2291e5b200ac8c7c3b92591015b60405180910390a3505050565b600061076c8484610571565b905060001981146107d457818110156107c75760405162461bcd60e51b815260206004820152601d60248201527f45524332303a20696e73756666696369656e7420616c6c6f77616e636500000060448201526064016103cb565b6107d4848484840361063b565b50505050565b6001600160a01b03831661083e5760405162461bcd60e51b815260206004820152602560248201527f45524332303a207472616e736665722066726f6d20746865207a65726f206164604482015264647265737360d81b60648201526084016103cb565b6001600160a01b0382166108a05760405162461bcd60e51b815260206004820152602360248201527f45524332303a207472616e7366657220746f20746865207a65726f206164647260448201526265737360e81b60648201526084016103cb565b6001600160a01b038316600090815260208190526040902054818110156109185760405162461bcd60e51b815260206004820152602660248201527f45524332303a207472616e7366657220616d6f756e7420657863656564732062604482015265616c616e636560d01b60648201526084016103cb565b6001600160a01b0384811660008181526020818152604080832087870390559387168083529184902080548701905592518581529092600080516020610d95833981519152910160405180910390a36107d4565b6001600160a01b0382166109c25760405162461bcd60e51b815260206004820152601f60248201527f45524332303a206d696e7420746f20746865207a65726f20616464726573730060448201526064016103cb565b80600260008282546109d49190610d35565b90915550506001600160a01b03821660008181526020818152604080832080548601905551848152600080516020610d95833981519152910160405180910390a35050565b6001600160a01b038216610a795760405162461bcd60e51b815260206004820152602160248201527f45524332303a206275726e2066726f6d20746865207a65726f206164647265736044820152607360f81b60648201526084016103cb565b6001600160a01b03821660009081526020819052604090205481811015610aed5760405162461bcd60e51b815260206004820152602260248201527f45524332303a206275726e20616d6f756e7420657863656564732062616c616e604482015261636560f01b60648201526084016103cb565b6001600160a01b038316600081815260208181526040808320868603905560028054879003905551858152919291600080516020610d958339815191529101610753565b33610b3a61049e565b6001600160a01b0316146104705760405162461bcd60e51b815260206004820181905260248201527f4f776e61626c653a2063616c6c6572206973206e6f7420746865206f776e657260448201526064016103cb565b600580546001600160a01b038381166001600160a01b0319831681179093556040519116919082907f8be0079c531659141344cd1fd0a4f28419497f9722a3daafe3b4186f6b6457e090600090a35050565b610bed823383610760565b61044d8282610a19565b80356001600160a01b0381168114610c0e57600080fd5b919050565b600060208284031215610c24578081fd5b610c2d82610bf7565b9392505050565b60008060408385031215610c46578081fd5b610c4f83610bf7565b9150610c5d60208401610bf7565b90509250929050565b600080600060608486031215610c7a578081fd5b610c8384610bf7565b9250610c9160208501610bf7565b9150604084013590509250925092565b60008060408385031215610cb3578182fd5b610cbc83610bf7565b946020939093013593505050565b600060208284031215610cdb578081fd5b5035919050565b6000602080835283518082850152825b81811015610d0e57858101830151858201604001528201610cf2565b81811115610d1f5783604083870101525b50601f01601f1916929092016040019392505050565b60008219821115610d5457634e487b7160e01b81526011600452602481fd5b500190565b600181811c90821680610d6d57607f821691505b60208210811415610d8e57634e487b7160e01b600052602260045260246000fd5b5091905056feddf252ad1be2c89b69c2b068fc378daa952ba7f163c4a11628f55a4df523b3efa2646970667358221220639dff4c963236851cf3eff6277cf00922423486ce3360aaec74646e11f7d0d164736f6c63430008040033",
  "linkReferences": {},
  "deployedLinkReferences": {}
}